{
  "contractName": "HappyMaru",
  "abi": [
    {
      "inputs": [],
      "stateMutability": "nonpayable",
      "type": "constructor"
    },
    {
      "anonymous": false,
      "inputs": [
        {
          "indexed": true,
          "internalType": "address",
          "name": "owner",
          "type": "address"
        },
        {
          "indexed": true,
          "internalType": "address",
          "name": "approved",
          "type": "address"
        },
        {
          "indexed": true,
          "internalType": "uint256",
          "name": "tokenId",
          "type": "uint256"
        }
      ],
      "name": "Approval",
      "type": "event"
    },
    {
      "anonymous": false,
      "inputs": [
        {
          "indexed": true,
          "internalType": "address",
          "name": "owner",
          "type": "address"
        },
        {
          "indexed": true,
          "internalType": "address",
          "name": "operator",
          "type": "address"
        },
        {
          "indexed": false,
          "internalType": "bool",
          "name": "approved",
          "type": "bool"
        }
      ],
      "name": "ApprovalForAll",
      "type": "event"
    },
    {
      "anonymous": false,
      "inputs": [
        {
          "indexed": false,
          "internalType": "uint256",
          "name": "_fromTokenId",
          "type": "uint256"
        },
        {
          "indexed": false,
          "internalType": "uint256",
          "name": "_toTokenId",
          "type": "uint256"
        }
      ],
      "name": "BatchMetadataUpdate",
      "type": "event"
    },
    {
      "anonymous": false,
      "inputs": [
        {
          "indexed": true,
          "internalType": "uint256",
          "name": "tokenId",
          "type": "uint256"
        },
        {
          "indexed": false,
          "internalType": "address payable",
          "name": "owner",
          "type": "address"
        },
        {
          "indexed": false,
          "internalType": "string",
          "name": "name",
          "type": "string"
        },
        {
          "indexed": false,
          "internalType": "string",
          "name": "breed",
          "type": "string"
        },
        {
          "indexed": false,
          "internalType": "string",
          "name": "birthDate",
          "type": "string"
        },
        {
          "indexed": false,
          "internalType": "string",
          "name": "gender",
          "type": "string"
        },
        {
          "indexed": false,
          "internalType": "bool",
          "name": "neutraled",
          "type": "bool"
        },
        {
          "indexed": false,
          "internalType": "string",
          "name": "description",
          "type": "string"
        },
        {
          "indexed": false,
          "internalType": "string",
          "name": "image",
          "type": "string"
        },
        {
          "indexed": false,
          "internalType": "string[]",
          "name": "noseData",
          "type": "string[]"
        }
      ],
      "name": "DogInfoCreated",
      "type": "event"
    },
    {
      "anonymous": false,
      "inputs": [
        {
          "indexed": false,
          "internalType": "uint256",
          "name": "_tokenId",
          "type": "uint256"
        }
      ],
      "name": "MetadataUpdate",
      "type": "event"
    },
    {
      "anonymous": false,
      "inputs": [
        {
          "indexed": true,
          "internalType": "address",
          "name": "previousOwner",
          "type": "address"
        },
        {
          "indexed": true,
          "internalType": "address",
          "name": "newOwner",
          "type": "address"
        }
      ],
      "name": "OwnershipTransferred",
      "type": "event"
    },
    {
      "anonymous": false,
      "inputs": [
        {
          "indexed": true,
          "internalType": "address",
          "name": "from",
          "type": "address"
        },
        {
          "indexed": true,
          "internalType": "address",
          "name": "to",
          "type": "address"
        },
        {
          "indexed": true,
          "internalType": "uint256",
          "name": "tokenId",
          "type": "uint256"
        }
      ],
      "name": "Transfer",
      "type": "event"
    },
    {
      "inputs": [
        {
          "internalType": "address",
          "name": "to",
          "type": "address"
        },
        {
          "internalType": "uint256",
          "name": "tokenId",
          "type": "uint256"
        }
      ],
      "name": "approve",
      "outputs": [],
      "stateMutability": "nonpayable",
      "type": "function"
    },
    {
      "inputs": [
        {
          "internalType": "address",
          "name": "owner",
          "type": "address"
        }
      ],
      "name": "balanceOf",
      "outputs": [
        {
          "internalType": "uint256",
          "name": "",
          "type": "uint256"
        }
      ],
      "stateMutability": "view",
      "type": "function",
      "constant": true
    },
    {
      "inputs": [
        {
          "internalType": "uint256",
          "name": "tokenId",
          "type": "uint256"
        }
      ],
      "name": "getApproved",
      "outputs": [
        {
          "internalType": "address",
          "name": "",
          "type": "address"
        }
      ],
      "stateMutability": "view",
      "type": "function",
      "constant": true
    },
    {
      "inputs": [
        {
          "internalType": "address",
          "name": "owner",
          "type": "address"
        },
        {
          "internalType": "address",
          "name": "operator",
          "type": "address"
        }
      ],
      "name": "isApprovedForAll",
      "outputs": [
        {
          "internalType": "bool",
          "name": "",
          "type": "bool"
        }
      ],
      "stateMutability": "view",
      "type": "function",
      "constant": true
    },
    {
      "inputs": [],
      "name": "name",
      "outputs": [
        {
          "internalType": "string",
          "name": "",
          "type": "string"
        }
      ],
      "stateMutability": "view",
      "type": "function",
      "constant": true
    },
    {
      "inputs": [],
      "name": "owner",
      "outputs": [
        {
          "internalType": "address",
          "name": "",
          "type": "address"
        }
      ],
      "stateMutability": "view",
      "type": "function",
      "constant": true
    },
    {
      "inputs": [
        {
          "internalType": "uint256",
          "name": "tokenId",
          "type": "uint256"
        }
      ],
      "name": "ownerOf",
      "outputs": [
        {
          "internalType": "address",
          "name": "",
          "type": "address"
        }
      ],
      "stateMutability": "view",
      "type": "function",
      "constant": true
    },
    {
      "inputs": [],
      "name": "renounceOwnership",
      "outputs": [],
      "stateMutability": "nonpayable",
      "type": "function"
    },
    {
      "inputs": [
        {
          "internalType": "address",
          "name": "from",
          "type": "address"
        },
        {
          "internalType": "address",
          "name": "to",
          "type": "address"
        },
        {
          "internalType": "uint256",
          "name": "tokenId",
          "type": "uint256"
        }
      ],
      "name": "safeTransferFrom",
      "outputs": [],
      "stateMutability": "nonpayable",
      "type": "function"
    },
    {
      "inputs": [
        {
          "internalType": "address",
          "name": "from",
          "type": "address"
        },
        {
          "internalType": "address",
          "name": "to",
          "type": "address"
        },
        {
          "internalType": "uint256",
          "name": "tokenId",
          "type": "uint256"
        },
        {
          "internalType": "bytes",
          "name": "data",
          "type": "bytes"
        }
      ],
      "name": "safeTransferFrom",
      "outputs": [],
      "stateMutability": "nonpayable",
      "type": "function"
    },
    {
      "inputs": [
        {
          "internalType": "address",
          "name": "operator",
          "type": "address"
        },
        {
          "internalType": "bool",
          "name": "approved",
          "type": "bool"
        }
      ],
      "name": "setApprovalForAll",
      "outputs": [],
      "stateMutability": "nonpayable",
      "type": "function"
    },
    {
      "inputs": [
        {
          "internalType": "bytes4",
          "name": "interfaceId",
          "type": "bytes4"
        }
      ],
      "name": "supportsInterface",
      "outputs": [
        {
          "internalType": "bool",
          "name": "",
          "type": "bool"
        }
      ],
      "stateMutability": "view",
      "type": "function",
      "constant": true
    },
    {
      "inputs": [],
      "name": "symbol",
      "outputs": [
        {
          "internalType": "string",
          "name": "",
          "type": "string"
        }
      ],
      "stateMutability": "view",
      "type": "function",
      "constant": true
    },
    {
      "inputs": [
        {
          "internalType": "uint256",
          "name": "tokenId",
          "type": "uint256"
        }
      ],
      "name": "tokenURI",
      "outputs": [
        {
          "internalType": "string",
          "name": "",
          "type": "string"
        }
      ],
      "stateMutability": "view",
      "type": "function",
      "constant": true
    },
    {
      "inputs": [
        {
          "internalType": "address",
          "name": "from",
          "type": "address"
        },
        {
          "internalType": "address",
          "name": "to",
          "type": "address"
        },
        {
          "internalType": "uint256",
          "name": "tokenId",
          "type": "uint256"
        }
      ],
      "name": "transferFrom",
      "outputs": [],
      "stateMutability": "nonpayable",
      "type": "function"
    },
    {
      "inputs": [
        {
          "internalType": "address",
          "name": "newOwner",
          "type": "address"
        }
      ],
      "name": "transferOwnership",
      "outputs": [],
      "stateMutability": "nonpayable",
      "type": "function"
    },
    {
      "inputs": [
        {
          "internalType": "string",
          "name": "_name",
          "type": "string"
        },
        {
          "internalType": "string",
          "name": "_breed",
          "type": "string"
        },
        {
          "internalType": "string",
          "name": "_birthDate",
          "type": "string"
        },
        {
          "internalType": "string",
          "name": "_gender",
          "type": "string"
        },
        {
          "internalType": "bool",
          "name": "_neutraled",
          "type": "bool"
        },
        {
          "internalType": "string",
          "name": "_description",
          "type": "string"
        },
        {
          "internalType": "string",
          "name": "_image",
          "type": "string"
        },
        {
          "internalType": "string[]",
          "name": "_noseData",
          "type": "string[]"
        },
        {
          "internalType": "string",
          "name": "_tokenURI",
          "type": "string"
        },
        {
          "internalType": "address payable",
          "name": "_address",
          "type": "address"
        }
      ],
      "name": "createDogInfo",
      "outputs": [
        {
          "internalType": "uint256",
          "name": "",
          "type": "uint256"
        }
      ],
      "stateMutability": "nonpayable",
      "type": "function"
    },
    {
      "inputs": [],
      "name": "getNfts",
      "outputs": [
        {
          "components": [
            {
              "internalType": "uint256",
              "name": "tokenId",
              "type": "uint256"
            },
            {
              "internalType": "address payable",
              "name": "owner",
              "type": "address"
            },
            {
              "internalType": "string",
              "name": "name",
              "type": "string"
            },
            {
              "internalType": "string",
              "name": "breed",
              "type": "string"
            },
            {
              "internalType": "string",
              "name": "birthDate",
              "type": "string"
            },
            {
              "internalType": "string",
              "name": "gender",
              "type": "string"
            },
            {
              "internalType": "bool",
              "name": "neutraled",
              "type": "bool"
            },
            {
              "internalType": "string",
              "name": "description",
              "type": "string"
            },
            {
              "internalType": "string",
              "name": "image",
              "type": "string"
            },
            {
              "internalType": "string[]",
              "name": "noseData",
              "type": "string[]"
            }
          ],
          "internalType": "struct HappyMaru.dogInfo[]",
          "name": "",
          "type": "tuple[]"
        }
      ],
      "stateMutability": "view",
      "type": "function",
      "constant": true
    },
    {
      "inputs": [
        {
          "internalType": "uint256",
          "name": "_tokenId",
          "type": "uint256"
        }
      ],
      "name": "getDogInfo",
      "outputs": [
        {
          "components": [
            {
              "internalType": "uint256",
              "name": "tokenId",
              "type": "uint256"
            },
            {
              "internalType": "address payable",
              "name": "owner",
              "type": "address"
            },
            {
              "internalType": "string",
              "name": "name",
              "type": "string"
            },
            {
              "internalType": "string",
              "name": "breed",
              "type": "string"
            },
            {
              "internalType": "string",
              "name": "birthDate",
              "type": "string"
            },
            {
              "internalType": "string",
              "name": "gender",
              "type": "string"
            },
            {
              "internalType": "bool",
              "name": "neutraled",
              "type": "bool"
            },
            {
              "internalType": "string",
              "name": "description",
              "type": "string"
            },
            {
              "internalType": "string",
              "name": "image",
              "type": "string"
            },
            {
              "internalType": "string[]",
              "name": "noseData",
              "type": "string[]"
            }
          ],
          "internalType": "struct HappyMaru.dogInfo",
          "name": "",
          "type": "tuple"
        }
      ],
      "stateMutability": "view",
      "type": "function",
      "constant": true
    },
    {
      "inputs": [
        {
          "internalType": "address",
          "name": "owner",
          "type": "address"
        }
      ],
      "name": "getNftsByAddress",
      "outputs": [
        {
          "internalType": "uint256[]",
          "name": "",
          "type": "uint256[]"
        }
      ],
      "stateMutability": "view",
      "type": "function",
      "constant": true
    },
    {
      "inputs": [
        {
          "internalType": "address",
          "name": "from",
          "type": "address"
        },
        {
          "internalType": "address payable",
          "name": "to",
          "type": "address"
        },
        {
          "internalType": "uint256",
          "name": "tokenId",
          "type": "uint256"
        }
      ],
      "name": "sendNft",
      "outputs": [
        {
          "internalType": "uint256",
          "name": "",
          "type": "uint256"
        }
      ],
      "stateMutability": "nonpayable",
      "type": "function"
    },
    {
      "inputs": [],
      "name": "getNftsCount",
      "outputs": [
        {
          "internalType": "uint256",
          "name": "",
          "type": "uint256"
        }
      ],
      "stateMutability": "view",
      "type": "function",
      "constant": true
    }
  ],
  "bytecode": "0x60806040523480156200001157600080fd5b506040518060400160405280600a81526020017f4861707079204d617275000000000000000000000000000000000000000000008152506040518060400160405280601581526020017f48617070794d617275277320646f6720494e464f20000000000000000000000081525081600090816200008f919062000412565b508060019081620000a1919062000412565b505050620000c4620000b8620000ca60201b60201c565b620000d260201b60201c565b620004f9565b600033905090565b6000600760009054906101000a900473ffffffffffffffffffffffffffffffffffffffff16905081600760006101000a81548173ffffffffffffffffffffffffffffffffffffffff021916908373ffffffffffffffffffffffffffffffffffffffff1602179055508173ffffffffffffffffffffffffffffffffffffffff168173ffffffffffffffffffffffffffffffffffffffff167f8be0079c531659141344cd1fd0a4f28419497f9722a3daafe3b4186f6b6457e060405160405180910390a35050565b600081519050919050565b7f4e487b7100000000000000000000000000000000000000000000000000000000600052604160045260246000fd5b7f4e487b7100000000000000000000000000000000000000000000000000000000600052602260045260246000fd5b600060028204905060018216806200021a57607f821691505b60208210810362000230576200022f620001d2565b5b50919050565b60008190508160005260206000209050919050565b60006020601f8301049050919050565b600082821b905092915050565b6000600883026200029a7fffffffffffffffffffffffffffffffffffffffffffffffffffffffffffffffff826200025b565b620002a686836200025b565b95508019841693508086168417925050509392505050565b6000819050919050565b6000819050919050565b6000620002f3620002ed620002e784620002be565b620002c8565b620002be565b9050919050565b6000819050919050565b6200030f83620002d2565b620003276200031e82620002fa565b84845462000268565b825550505050565b600090565b6200033e6200032f565b6200034b81848462000304565b505050565b5b8181101562000373576200036760008262000334565b60018101905062000351565b5050565b601f821115620003c2576200038c8162000236565b62000397846200024b565b81016020851015620003a7578190505b620003bf620003b6856200024b565b83018262000350565b50505b505050565b600082821c905092915050565b6000620003e760001984600802620003c7565b1980831691505092915050565b6000620004028383620003d4565b9150826002028217905092915050565b6200041d8262000198565b67ffffffffffffffff811115620004395762000438620001a3565b5b62000445825462000201565b6200045282828562000377565b600060209050601f8311600181146200048a576000841562000475578287015190505b620004818582620003f4565b865550620004f1565b601f1984166200049a8662000236565b60005b82811015620004c4578489015182556001820191506020850194506020810190506200049d565b86831015620004e45784890151620004e0601f891682620003d4565b8355505b6001600288020188555050505b505050505050565b6149ae80620005096000396000f3fe608060405234801561001057600080fd5b50600436106101425760003560e01c806370a08231116100b8578063b88d4fde1161007c578063b88d4fde14610389578063c87b56dd146103a5578063d8cb55e3146103d5578063e985e9c5146103f3578063f2fde38b14610423578063fdec17d51461043f57610142565b806370a08231146102f7578063715018a6146103275780638da5cb5b1461033157806395d89b411461034f578063a22cb4651461036d57610142565b806323b872dd1161010a57806323b872dd146101ff578063362f5fb21461021b5780633a66dd361461024b57806342842e0e1461027b5780634d81c77d146102975780636352211e146102c757610142565b806301ffc9a71461014757806305ed9a671461017757806306fdde0314610195578063081812fc146101b3578063095ea7b3146101e3575b600080fd5b610161600480360381019061015c9190612db4565b61046f565b60405161016e9190612dfc565b60405180910390f35b61017f6104d0565b60405161018c9190612e30565b60405180910390f35b61019d6104e1565b6040516101aa9190612edb565b60405180910390f35b6101cd60048036038101906101c89190612f29565b610573565b6040516101da9190612f97565b60405180910390f35b6101fd60048036038101906101f89190612fde565b6105b9565b005b6102196004803603810190610214919061301e565b6106d0565b005b61023560048036038101906102309190612f29565b610730565b60405161024291906132c0565b60405180910390f35b610265600480360381019061026091906132e2565b610c1e565b60405161027291906133be565b60405180910390f35b6102956004803603810190610290919061301e565b610d24565b005b6102b160048036038101906102ac919061340c565b610d44565b6040516102be9190612e30565b60405180910390f35b6102e160048036038101906102dc9190612f29565b610db0565b6040516102ee9190612f97565b60405180910390f35b610311600480360381019061030c91906132e2565b610e36565b60405161031e9190612e30565b60405180910390f35b61032f610eed565b005b610339610f01565b6040516103469190612f97565b60405180910390f35b610357610f2b565b6040516103649190612edb565b60405180910390f35b6103876004803603810190610382919061348b565b610fbd565b005b6103a3600480360381019061039e9190613600565b610fd3565b005b6103bf60048036038101906103ba9190612f29565b611035565b6040516103cc9190612edb565b60405180910390f35b6103dd611147565b6040516103ea9190613849565b60405180910390f35b61040d6004803603810190610408919061386b565b611773565b60405161041a9190612dfc565b60405180910390f35b61043d600480360381019061043891906132e2565b611807565b005b61045960048036038101906104549190613a32565b61188a565b6040516104669190612e30565b60405180910390f35b6000634906490660e01b7bffffffffffffffffffffffffffffffffffffffffffffffffffffffff1916827bffffffffffffffffffffffffffffffffffffffffffffffffffffffff191614806104c957506104c88261199d565b5b9050919050565b60006104dc6008611a7f565b905090565b6060600080546104f090613c20565b80601f016020809104026020016040519081016040528092919081815260200182805461051c90613c20565b80156105695780601f1061053e57610100808354040283529160200191610569565b820191906000526020600020905b81548152906001019060200180831161054c57829003601f168201915b5050505050905090565b600061057e82611a8d565b6004600083815260200190815260200160002060009054906101000a900473ffffffffffffffffffffffffffffffffffffffff169050919050565b60006105c482610db0565b90508073ffffffffffffffffffffffffffffffffffffffff168373ffffffffffffffffffffffffffffffffffffffff1603610634576040517f08c379a000000000000000000000000000000000000000000000000000000000815260040161062b90613cc3565b60405180910390fd5b8073ffffffffffffffffffffffffffffffffffffffff16610653611ad8565b73ffffffffffffffffffffffffffffffffffffffff16148061068257506106818161067c611ad8565b611773565b5b6106c1576040517f08c379a00000000000000000000000000000000000000000000000000000000081526004016106b890613d55565b60405180910390fd5b6106cb8383611ae0565b505050565b6106e16106db611ad8565b82611b99565b610720576040517f08c379a000000000000000000000000000000000000000000000000000000000815260040161071790613de7565b60405180910390fd5b61072b838383611c2e565b505050565b610738612c03565b600a600083815260200190815260200160002060405180610140016040529081600082015481526020016001820160009054906101000a900473ffffffffffffffffffffffffffffffffffffffff1673ffffffffffffffffffffffffffffffffffffffff1673ffffffffffffffffffffffffffffffffffffffff1681526020016002820180546107c790613c20565b80601f01602080910402602001604051908101604052809291908181526020018280546107f390613c20565b80156108405780601f1061081557610100808354040283529160200191610840565b820191906000526020600020905b81548152906001019060200180831161082357829003601f168201915b5050505050815260200160038201805461085990613c20565b80601f016020809104026020016040519081016040528092919081815260200182805461088590613c20565b80156108d25780601f106108a7576101008083540402835291602001916108d2565b820191906000526020600020905b8154815290600101906020018083116108b557829003601f168201915b505050505081526020016004820180546108eb90613c20565b80601f016020809104026020016040519081016040528092919081815260200182805461091790613c20565b80156109645780601f1061093957610100808354040283529160200191610964565b820191906000526020600020905b81548152906001019060200180831161094757829003601f168201915b5050505050815260200160058201805461097d90613c20565b80601f01602080910402602001604051908101604052809291908181526020018280546109a990613c20565b80156109f65780601f106109cb576101008083540402835291602001916109f6565b820191906000526020600020905b8154815290600101906020018083116109d957829003601f168201915b505050505081526020016006820160009054906101000a900460ff16151515158152602001600782018054610a2a90613c20565b80601f0160208091040260200160405190810160405280929190818152602001828054610a5690613c20565b8015610aa35780601f10610a7857610100808354040283529160200191610aa3565b820191906000526020600020905b815481529060010190602001808311610a8657829003601f168201915b50505050508152602001600882018054610abc90613c20565b80601f0160208091040260200160405190810160405280929190818152602001828054610ae890613c20565b8015610b355780601f10610b0a57610100808354040283529160200191610b35565b820191906000526020600020905b815481529060010190602001808311610b1857829003601f168201915b5050505050815260200160098201805480602002602001604051908101604052809291908181526020016000905b82821015610c0f578382906000526020600020018054610b8290613c20565b80601f0160208091040260200160405190810160405280929190818152602001828054610bae90613c20565b8015610bfb5780601f10610bd057610100808354040283529160200191610bfb565b820191906000526020600020905b815481529060010190602001808311610bde57829003601f168201915b505050505081526020019060010190610b63565b50505050815250509050919050565b6060600073ffffffffffffffffffffffffffffffffffffffff168273ffffffffffffffffffffffffffffffffffffffff1603610c8f576040517f08c379a0000000000000000000000000000000000000000000000000000000008152600401610c8690613e79565b60405180910390fd5b600b60008373ffffffffffffffffffffffffffffffffffffffff1673ffffffffffffffffffffffffffffffffffffffff168152602001908152602001600020805480602002602001604051908101604052809291908181526020018280548015610d1857602002820191906000526020600020905b815481526020019060010190808311610d04575b50505050509050919050565b610d3f83838360405180602001604052806000815250610fd3565b505050565b6000610d51848484610d24565b82600a600084815260200190815260200160002060010160006101000a81548173ffffffffffffffffffffffffffffffffffffffff021916908373ffffffffffffffffffffffffffffffffffffffff1602179055508190509392505050565b600080610dbc83611f27565b9050600073ffffffffffffffffffffffffffffffffffffffff168173ffffffffffffffffffffffffffffffffffffffff1603610e2d576040517f08c379a0000000000000000000000000000000000000000000000000000000008152600401610e2490613ee5565b60405180910390fd5b80915050919050565b60008073ffffffffffffffffffffffffffffffffffffffff168273ffffffffffffffffffffffffffffffffffffffff1603610ea6576040517f08c379a0000000000000000000000000000000000000000000000000000000008152600401610e9d90613e79565b60405180910390fd5b600360008373ffffffffffffffffffffffffffffffffffffffff1673ffffffffffffffffffffffffffffffffffffffff168152602001908152602001600020549050919050565b610ef5611f64565b610eff6000611fe2565b565b6000600760009054906101000a900473ffffffffffffffffffffffffffffffffffffffff16905090565b606060018054610f3a90613c20565b80601f0160208091040260200160405190810160405280929190818152602001828054610f6690613c20565b8015610fb35780601f10610f8857610100808354040283529160200191610fb3565b820191906000526020600020905b815481529060010190602001808311610f9657829003601f168201915b5050505050905090565b610fcf610fc8611ad8565b83836120a8565b5050565b610fe4610fde611ad8565b83611b99565b611023576040517f08c379a000000000000000000000000000000000000000000000000000000000815260040161101a90613de7565b60405180910390fd5b61102f84848484612214565b50505050565b606061104082611a8d565b600060066000848152602001908152602001600020805461106090613c20565b80601f016020809104026020016040519081016040528092919081815260200182805461108c90613c20565b80156110d95780601f106110ae576101008083540402835291602001916110d9565b820191906000526020600020905b8154815290600101906020018083116110bc57829003601f168201915b5050505050905060006110ea612270565b905060008151036110ff578192505050611142565b60008251111561113457808260405160200161111c929190613f41565b60405160208183030381529060405292505050611142565b61113d84612287565b925050505b919050565b60606000600b60003373ffffffffffffffffffffffffffffffffffffffff1673ffffffffffffffffffffffffffffffffffffffff1681526020019081526020016000208054806020026020016040519081016040528092919081815260200182805480156111d457602002820191906000526020600020905b8154815260200190600101908083116111c0575b505050505090506000815167ffffffffffffffff8111156111f8576111f76134d5565b5b60405190808252806020026020018201604052801561123157816020015b61121e612c03565b8152602001906001900390816112165790505b50905060005b825181101561176a57600a600084838151811061125757611256613f65565b5b6020026020010151815260200190815260200160002060405180610140016040529081600082015481526020016001820160009054906101000a900473ffffffffffffffffffffffffffffffffffffffff1673ffffffffffffffffffffffffffffffffffffffff1673ffffffffffffffffffffffffffffffffffffffff1681526020016002820180546112e990613c20565b80601f016020809104026020016040519081016040528092919081815260200182805461131590613c20565b80156113625780601f1061133757610100808354040283529160200191611362565b820191906000526020600020905b81548152906001019060200180831161134557829003601f168201915b5050505050815260200160038201805461137b90613c20565b80601f01602080910402602001604051908101604052809291908181526020018280546113a790613c20565b80156113f45780601f106113c9576101008083540402835291602001916113f4565b820191906000526020600020905b8154815290600101906020018083116113d757829003601f168201915b5050505050815260200160048201805461140d90613c20565b80601f016020809104026020016040519081016040528092919081815260200182805461143990613c20565b80156114865780601f1061145b57610100808354040283529160200191611486565b820191906000526020600020905b81548152906001019060200180831161146957829003601f168201915b5050505050815260200160058201805461149f90613c20565b80601f01602080910402602001604051908101604052809291908181526020018280546114cb90613c20565b80156115185780601f106114ed57610100808354040283529160200191611518565b820191906000526020600020905b8154815290600101906020018083116114fb57829003601f168201915b505050505081526020016006820160009054906101000a900460ff1615151515815260200160078201805461154c90613c20565b80601f016020809104026020016040519081016040528092919081815260200182805461157890613c20565b80156115c55780601f1061159a576101008083540402835291602001916115c5565b820191906000526020600020905b8154815290600101906020018083116115a857829003601f168201915b505050505081526020016008820180546115de90613c20565b80601f016020809104026020016040519081016040528092919081815260200182805461160a90613c20565b80156116575780601f1061162c57610100808354040283529160200191611657565b820191906000526020600020905b81548152906001019060200180831161163a57829003601f168201915b5050505050815260200160098201805480602002602001604051908101604052809291908181526020016000905b828210156117315783829060005260206000200180546116a490613c20565b80601f01602080910402602001604051908101604052809291908181526020018280546116d090613c20565b801561171d5780601f106116f25761010080835404028352916020019161171d565b820191906000526020600020905b81548152906001019060200180831161170057829003601f168201915b505050505081526020019060010190611685565b505050508152505082828151811061174c5761174b613f65565b5b6020026020010181905250808061176290613fc3565b915050611237565b50809250505090565b6000600560008473ffffffffffffffffffffffffffffffffffffffff1673ffffffffffffffffffffffffffffffffffffffff16815260200190815260200160002060008373ffffffffffffffffffffffffffffffffffffffff1673ffffffffffffffffffffffffffffffffffffffff16815260200190815260200160002060009054906101000a900460ff16905092915050565b61180f611f64565b600073ffffffffffffffffffffffffffffffffffffffff168173ffffffffffffffffffffffffffffffffffffffff160361187e576040517f08c379a00000000000000000000000000000000000000000000000000000000081526004016118759061407d565b60405180910390fd5b61188781611fe2565b50565b6000806118976008611a7f565b90506118a383826122ef565b6118ad818561250c565b600b60008473ffffffffffffffffffffffffffffffffffffffff1673ffffffffffffffffffffffffffffffffffffffff16815260200190815260200160002081908060018154018082558091505060019003906000526020600020016000909190919091505560006040518061014001604052808381526020018573ffffffffffffffffffffffffffffffffffffffff1681526020018e81526020018d81526020018c81526020018b81526020018a151581526020018981526020018881526020018781525090506119808282876125b0565b61198a600861276b565b81925050509a9950505050505050505050565b60007f80ac58cd000000000000000000000000000000000000000000000000000000007bffffffffffffffffffffffffffffffffffffffffffffffffffffffff1916827bffffffffffffffffffffffffffffffffffffffffffffffffffffffff19161480611a6857507f5b5e139f000000000000000000000000000000000000000000000000000000007bffffffffffffffffffffffffffffffffffffffffffffffffffffffff1916827bffffffffffffffffffffffffffffffffffffffffffffffffffffffff1916145b80611a785750611a7782612781565b5b9050919050565b600081600001549050919050565b611a96816127eb565b611ad5576040517f08c379a0000000000000000000000000000000000000000000000000000000008152600401611acc90613ee5565b60405180910390fd5b50565b600033905090565b816004600083815260200190815260200160002060006101000a81548173ffffffffffffffffffffffffffffffffffffffff021916908373ffffffffffffffffffffffffffffffffffffffff160217905550808273ffffffffffffffffffffffffffffffffffffffff16611b5383610db0565b73ffffffffffffffffffffffffffffffffffffffff167f8c5be1e5ebec7d5bd14f71427d1e84f3dd0314c0f7b2291e5b200ac8c7c3b92560405160405180910390a45050565b600080611ba583610db0565b90508073ffffffffffffffffffffffffffffffffffffffff168473ffffffffffffffffffffffffffffffffffffffff161480611be75750611be68185611773565b5b80611c2557508373ffffffffffffffffffffffffffffffffffffffff16611c0d84610573565b73ffffffffffffffffffffffffffffffffffffffff16145b91505092915050565b8273ffffffffffffffffffffffffffffffffffffffff16611c4e82610db0565b73ffffffffffffffffffffffffffffffffffffffff1614611ca4576040517f08c379a0000000000000000000000000000000000000000000000000000000008152600401611c9b9061410f565b60405180910390fd5b600073ffffffffffffffffffffffffffffffffffffffff168273ffffffffffffffffffffffffffffffffffffffff1603611d13576040517f08c379a0000000000000000000000000000000000000000000000000000000008152600401611d0a906141a1565b60405180910390fd5b611d20838383600161282c565b8273ffffffffffffffffffffffffffffffffffffffff16611d4082610db0565b73ffffffffffffffffffffffffffffffffffffffff1614611d96576040517f08c379a0000000000000000000000000000000000000000000000000000000008152600401611d8d9061410f565b60405180910390fd5b6004600082815260200190815260200160002060006101000a81549073ffffffffffffffffffffffffffffffffffffffff02191690556001600360008573ffffffffffffffffffffffffffffffffffffffff1673ffffffffffffffffffffffffffffffffffffffff168152602001908152602001600020600082825403925050819055506001600360008473ffffffffffffffffffffffffffffffffffffffff1673ffffffffffffffffffffffffffffffffffffffff16815260200190815260200160002060008282540192505081905550816002600083815260200190815260200160002060006101000a81548173ffffffffffffffffffffffffffffffffffffffff021916908373ffffffffffffffffffffffffffffffffffffffff160217905550808273ffffffffffffffffffffffffffffffffffffffff168473ffffffffffffffffffffffffffffffffffffffff167fddf252ad1be2c89b69c2b068fc378daa952ba7f163c4a11628f55a4df523b3ef60405160405180910390a4611f228383836001612832565b505050565b60006002600083815260200190815260200160002060009054906101000a900473ffffffffffffffffffffffffffffffffffffffff169050919050565b611f6c611ad8565b73ffffffffffffffffffffffffffffffffffffffff16611f8a610f01565b73ffffffffffffffffffffffffffffffffffffffff1614611fe0576040517f08c379a0000000000000000000000000000000000000000000000000000000008152600401611fd79061420d565b60405180910390fd5b565b6000600760009054906101000a900473ffffffffffffffffffffffffffffffffffffffff16905081600760006101000a81548173ffffffffffffffffffffffffffffffffffffffff021916908373ffffffffffffffffffffffffffffffffffffffff1602179055508173ffffffffffffffffffffffffffffffffffffffff168173ffffffffffffffffffffffffffffffffffffffff167f8be0079c531659141344cd1fd0a4f28419497f9722a3daafe3b4186f6b6457e060405160405180910390a35050565b8173ffffffffffffffffffffffffffffffffffffffff168373ffffffffffffffffffffffffffffffffffffffff1603612116576040517f08c379a000000000000000000000000000000000000000000000000000000000815260040161210d90614279565b60405180910390fd5b80600560008573ffffffffffffffffffffffffffffffffffffffff1673ffffffffffffffffffffffffffffffffffffffff16815260200190815260200160002060008473ffffffffffffffffffffffffffffffffffffffff1673ffffffffffffffffffffffffffffffffffffffff16815260200190815260200160002060006101000a81548160ff0219169083151502179055508173ffffffffffffffffffffffffffffffffffffffff168373ffffffffffffffffffffffffffffffffffffffff167f17307eab39ab6107e8899845ad3d59bd9653f200f220920489ca2b5937696c31836040516122079190612dfc565b60405180910390a3505050565b61221f848484611c2e565b61222b84848484612838565b61226a576040517f08c379a00000000000000000000000000000000000000000000000000000000081526004016122619061430b565b60405180910390fd5b50505050565b606060405180602001604052806000815250905090565b606061229282611a8d565b600061229c612270565b905060008151116122bc57604051806020016040528060008152506122e7565b806122c6846129bf565b6040516020016122d7929190613f41565b6040516020818303038152906040525b915050919050565b600073ffffffffffffffffffffffffffffffffffffffff168273ffffffffffffffffffffffffffffffffffffffff160361235e576040517f08c379a000000000000000000000000000000000000000000000000000000000815260040161235590614377565b60405180910390fd5b612367816127eb565b156123a7576040517f08c379a000000000000000000000000000000000000000000000000000000000815260040161239e906143e3565b60405180910390fd5b6123b560008383600161282c565b6123be816127eb565b156123fe576040517f08c379a00000000000000000000000000000000000000000000000000000000081526004016123f5906143e3565b60405180910390fd5b6001600360008473ffffffffffffffffffffffffffffffffffffffff1673ffffffffffffffffffffffffffffffffffffffff16815260200190815260200160002060008282540192505081905550816002600083815260200190815260200160002060006101000a81548173ffffffffffffffffffffffffffffffffffffffff021916908373ffffffffffffffffffffffffffffffffffffffff160217905550808273ffffffffffffffffffffffffffffffffffffffff16600073ffffffffffffffffffffffffffffffffffffffff167fddf252ad1be2c89b69c2b068fc378daa952ba7f163c4a11628f55a4df523b3ef60405160405180910390a4612508600083836001612832565b5050565b612515826127eb565b612554576040517f08c379a000000000000000000000000000000000000000000000000000000000815260040161254b90614475565b60405180910390fd5b806006600084815260200190815260200160002090816125749190614641565b507ff8e1a15aba9398e019f0b49df1a4fde98ee17ae345cb5f6b5e2c27f5033e8ce7826040516125a49190612e30565b60405180910390a15050565b81600a60008581526020019081526020016000206000820151816000015560208201518160010160006101000a81548173ffffffffffffffffffffffffffffffffffffffff021916908373ffffffffffffffffffffffffffffffffffffffff160217905550604082015181600201908161262a9190614641565b5060608201518160030190816126409190614641565b5060808201518160040190816126569190614641565b5060a082015181600501908161266c9190614641565b5060c08201518160060160006101000a81548160ff02191690831515021790555060e08201518160070190816126a29190614641565b506101008201518160080190816126b99190614641565b506101208201518160090190805190602001906126d7929190612c6e565b5090505080600c600085815260200190815260200160002090816126fb9190614641565b50827fab85fdc0254be39f261931b7e870ff87a8df8647394623162c23637344e2feb1338460400151856060015186608001518760a001518860c001518960e001518a61010001518b610120015160405161275e999897969594939291906147a8565b60405180910390a2505050565b6001816000016000828254019250508190555050565b60007f01ffc9a7000000000000000000000000000000000000000000000000000000007bffffffffffffffffffffffffffffffffffffffffffffffffffffffff1916827bffffffffffffffffffffffffffffffffffffffffffffffffffffffff1916149050919050565b60008073ffffffffffffffffffffffffffffffffffffffff1661280d83611f27565b73ffffffffffffffffffffffffffffffffffffffff1614159050919050565b50505050565b50505050565b60006128598473ffffffffffffffffffffffffffffffffffffffff16612a8d565b156129b2578373ffffffffffffffffffffffffffffffffffffffff1663150b7a02612882611ad8565b8786866040518563ffffffff1660e01b81526004016128a494939291906148bb565b6020604051808303816000875af19250505080156128e057506040513d601f19601f820116820180604052508101906128dd919061491c565b60015b612962573d8060008114612910576040519150601f19603f3d011682016040523d82523d6000602084013e612915565b606091505b50600081510361295a576040517f08c379a00000000000000000000000000000000000000000000000000000000081526004016129519061430b565b60405180910390fd5b805181602001fd5b63150b7a0260e01b7bffffffffffffffffffffffffffffffffffffffffffffffffffffffff1916817bffffffffffffffffffffffffffffffffffffffffffffffffffffffff1916149150506129b7565b600190505b949350505050565b6060600060016129ce84612ab0565b01905060008167ffffffffffffffff8111156129ed576129ec6134d5565b5b6040519080825280601f01601f191660200182016040528015612a1f5781602001600182028036833780820191505090505b509050600082602001820190505b600115612a82578080600190039150507f3031323334353637383961626364656600000000000000000000000000000000600a86061a8153600a8581612a7657612a75614949565b5b04945060008503612a2d575b819350505050919050565b6000808273ffffffffffffffffffffffffffffffffffffffff163b119050919050565b600080600090507a184f03e93ff9f4daa797ed6e38ed64bf6a1f0100000000000000008310612b0e577a184f03e93ff9f4daa797ed6e38ed64bf6a1f0100000000000000008381612b0457612b03614949565b5b0492506040810190505b6d04ee2d6d415b85acef81000000008310612b4b576d04ee2d6d415b85acef81000000008381612b4157612b40614949565b5b0492506020810190505b662386f26fc100008310612b7a57662386f26fc100008381612b7057612b6f614949565b5b0492506010810190505b6305f5e1008310612ba3576305f5e1008381612b9957612b98614949565b5b0492506008810190505b6127108310612bc8576127108381612bbe57612bbd614949565b5b0492506004810190505b60648310612beb5760648381612be157612be0614949565b5b0492506002810190505b600a8310612bfa576001810190505b80915050919050565b60405180610140016040528060008152602001600073ffffffffffffffffffffffffffffffffffffffff168152602001606081526020016060815260200160608152602001606081526020016000151581526020016060815260200160608152602001606081525090565b828054828255906000526020600020908101928215612cb6579160200282015b82811115612cb5578251829081612ca59190614641565b5091602001919060010190612c8e565b5b509050612cc39190612cc7565b5090565b5b80821115612ce75760008181612cde9190612ceb565b50600101612cc8565b5090565b508054612cf790613c20565b6000825580601f10612d095750612d28565b601f016020900490600052602060002090810190612d279190612d2b565b5b50565b5b80821115612d44576000816000905550600101612d2c565b5090565b6000604051905090565b600080fd5b600080fd5b60007fffffffff0000000000000000000000000000000000000000000000000000000082169050919050565b612d9181612d5c565b8114612d9c57600080fd5b50565b600081359050612dae81612d88565b92915050565b600060208284031215612dca57612dc9612d52565b5b6000612dd884828501612d9f565b91505092915050565b60008115159050919050565b612df681612de1565b82525050565b6000602082019050612e116000830184612ded565b92915050565b6000819050919050565b612e2a81612e17565b82525050565b6000602082019050612e456000830184612e21565b92915050565b600081519050919050565b600082825260208201905092915050565b60005b83811015612e85578082015181840152602081019050612e6a565b60008484015250505050565b6000601f19601f8301169050919050565b6000612ead82612e4b565b612eb78185612e56565b9350612ec7818560208601612e67565b612ed081612e91565b840191505092915050565b60006020820190508181036000830152612ef58184612ea2565b905092915050565b612f0681612e17565b8114612f1157600080fd5b50565b600081359050612f2381612efd565b92915050565b600060208284031215612f3f57612f3e612d52565b5b6000612f4d84828501612f14565b91505092915050565b600073ffffffffffffffffffffffffffffffffffffffff82169050919050565b6000612f8182612f56565b9050919050565b612f9181612f76565b82525050565b6000602082019050612fac6000830184612f88565b92915050565b612fbb81612f76565b8114612fc657600080fd5b50565b600081359050612fd881612fb2565b92915050565b60008060408385031215612ff557612ff4612d52565b5b600061300385828601612fc9565b925050602061301485828601612f14565b9150509250929050565b60008060006060848603121561303757613036612d52565b5b600061304586828701612fc9565b935050602061305686828701612fc9565b925050604061306786828701612f14565b9150509250925092565b61307a81612e17565b82525050565b600061308b82612f56565b9050919050565b61309b81613080565b82525050565b600082825260208201905092915050565b60006130bd82612e4b565b6130c781856130a1565b93506130d7818560208601612e67565b6130e081612e91565b840191505092915050565b6130f481612de1565b82525050565b600081519050919050565b600082825260208201905092915050565b6000819050602082019050919050565b600061313283836130b2565b905092915050565b6000602082019050919050565b6000613152826130fa565b61315c8185613105565b93508360208202850161316e85613116565b8060005b858110156131aa578484038952815161318b8582613126565b94506131968361313a565b925060208a01995050600181019050613172565b50829750879550505050505092915050565b6000610140830160008301516131d56000860182613071565b5060208301516131e86020860182613092565b506040830151848203604086015261320082826130b2565b9150506060830151848203606086015261321a82826130b2565b9150506080830151848203608086015261323482826130b2565b91505060a083015184820360a086015261324e82826130b2565b91505060c083015161326360c08601826130eb565b5060e083015184820360e086015261327b82826130b2565b91505061010083015184820361010086015261329782826130b2565b9150506101208301518482036101208601526132b38282613147565b9150508091505092915050565b600060208201905081810360008301526132da81846131bc565b905092915050565b6000602082840312156132f8576132f7612d52565b5b600061330684828501612fc9565b91505092915050565b600081519050919050565b600082825260208201905092915050565b6000819050602082019050919050565b60006133478383613071565b60208301905092915050565b6000602082019050919050565b600061336b8261330f565b613375818561331a565b93506133808361332b565b8060005b838110156133b1578151613398888261333b565b97506133a383613353565b925050600181019050613384565b5085935050505092915050565b600060208201905081810360008301526133d88184613360565b905092915050565b6133e981613080565b81146133f457600080fd5b50565b600081359050613406816133e0565b92915050565b60008060006060848603121561342557613424612d52565b5b600061343386828701612fc9565b9350506020613444868287016133f7565b925050604061345586828701612f14565b9150509250925092565b61346881612de1565b811461347357600080fd5b50565b6000813590506134858161345f565b92915050565b600080604083850312156134a2576134a1612d52565b5b60006134b085828601612fc9565b92505060206134c185828601613476565b9150509250929050565b600080fd5b600080fd5b7f4e487b7100000000000000000000000000000000000000000000000000000000600052604160045260246000fd5b61350d82612e91565b810181811067ffffffffffffffff8211171561352c5761352b6134d5565b5b80604052505050565b600061353f612d48565b905061354b8282613504565b919050565b600067ffffffffffffffff82111561356b5761356a6134d5565b5b61357482612e91565b9050602081019050919050565b82818337600083830152505050565b60006135a361359e84613550565b613535565b9050828152602081018484840111156135bf576135be6134d0565b5b6135ca848285613581565b509392505050565b600082601f8301126135e7576135e66134cb565b5b81356135f7848260208601613590565b91505092915050565b6000806000806080858703121561361a57613619612d52565b5b600061362887828801612fc9565b945050602061363987828801612fc9565b935050604061364a87828801612f14565b925050606085013567ffffffffffffffff81111561366b5761366a612d57565b5b613677878288016135d2565b91505092959194509250565b600081519050919050565b600082825260208201905092915050565b6000819050602082019050919050565b6000610140830160008301516136c86000860182613071565b5060208301516136db6020860182613092565b50604083015184820360408601526136f382826130b2565b9150506060830151848203606086015261370d82826130b2565b9150506080830151848203608086015261372782826130b2565b91505060a083015184820360a086015261374182826130b2565b91505060c083015161375660c08601826130eb565b5060e083015184820360e086015261376e82826130b2565b91505061010083015184820361010086015261378a82826130b2565b9150506101208301518482036101208601526137a68282613147565b9150508091505092915050565b60006137bf83836136af565b905092915050565b6000602082019050919050565b60006137df82613683565b6137e9818561368e565b9350836020820285016137fb8561369f565b8060005b85811015613837578484038952815161381885826137b3565b9450613823836137c7565b925060208a019950506001810190506137ff565b50829750879550505050505092915050565b6000602082019050818103600083015261386381846137d4565b905092915050565b6000806040838503121561388257613881612d52565b5b600061389085828601612fc9565b92505060206138a185828601612fc9565b9150509250929050565b600067ffffffffffffffff8211156138c6576138c56134d5565b5b6138cf82612e91565b9050602081019050919050565b60006138ef6138ea846138ab565b613535565b90508281526020810184848401111561390b5761390a6134d0565b5b613916848285613581565b509392505050565b600082601f830112613933576139326134cb565b5b81356139438482602086016138dc565b91505092915050565b600067ffffffffffffffff821115613967576139666134d5565b5b602082029050602081019050919050565b600080fd5b600061399061398b8461394c565b613535565b905080838252602082019050602084028301858111156139b3576139b2613978565b5b835b818110156139fa57803567ffffffffffffffff8111156139d8576139d76134cb565b5b8086016139e5898261391e565b855260208501945050506020810190506139b5565b5050509392505050565b600082601f830112613a1957613a186134cb565b5b8135613a2984826020860161397d565b91505092915050565b6000806000806000806000806000806101408b8d031215613a5657613a55612d52565b5b60008b013567ffffffffffffffff811115613a7457613a73612d57565b5b613a808d828e0161391e565b9a505060208b013567ffffffffffffffff811115613aa157613aa0612d57565b5b613aad8d828e0161391e565b99505060408b013567ffffffffffffffff811115613ace57613acd612d57565b5b613ada8d828e0161391e565b98505060608b013567ffffffffffffffff811115613afb57613afa612d57565b5b613b078d828e0161391e565b9750506080613b188d828e01613476565b96505060a08b013567ffffffffffffffff811115613b3957613b38612d57565b5b613b458d828e0161391e565b95505060c08b013567ffffffffffffffff811115613b6657613b65612d57565b5b613b728d828e0161391e565b94505060e08b013567ffffffffffffffff811115613b9357613b92612d57565b5b613b9f8d828e01613a04565b9350506101008b013567ffffffffffffffff811115613bc157613bc0612d57565b5b613bcd8d828e0161391e565b925050610120613bdf8d828e016133f7565b9150509295989b9194979a5092959850565b7f4e487b7100000000000000000000000000000000000000000000000000000000600052602260045260246000fd5b60006002820490506001821680613c3857607f821691505b602082108103613c4b57613c4a613bf1565b5b50919050565b7f4552433732313a20617070726f76616c20746f2063757272656e74206f776e6560008201527f7200000000000000000000000000000000000000000000000000000000000000602082015250565b6000613cad602183612e56565b9150613cb882613c51565b604082019050919050565b60006020820190508181036000830152613cdc81613ca0565b9050919050565b7f4552433732313a20617070726f76652063616c6c6572206973206e6f7420746f60008201527f6b656e206f776e6572206f7220617070726f76656420666f7220616c6c000000602082015250565b6000613d3f603d83612e56565b9150613d4a82613ce3565b604082019050919050565b60006020820190508181036000830152613d6e81613d32565b9050919050565b7f4552433732313a2063616c6c6572206973206e6f7420746f6b656e206f776e6560008201527f72206f7220617070726f76656400000000000000000000000000000000000000602082015250565b6000613dd1602d83612e56565b9150613ddc82613d75565b604082019050919050565b60006020820190508181036000830152613e0081613dc4565b9050919050565b7f4552433732313a2061646472657373207a65726f206973206e6f74206120766160008201527f6c6964206f776e65720000000000000000000000000000000000000000000000602082015250565b6000613e63602983612e56565b9150613e6e82613e07565b604082019050919050565b60006020820190508181036000830152613e9281613e56565b9050919050565b7f4552433732313a20696e76616c696420746f6b656e2049440000000000000000600082015250565b6000613ecf601883612e56565b9150613eda82613e99565b602082019050919050565b60006020820190508181036000830152613efe81613ec2565b9050919050565b600081905092915050565b6000613f1b82612e4b565b613f258185613f05565b9350613f35818560208601612e67565b80840191505092915050565b6000613f4d8285613f10565b9150613f598284613f10565b91508190509392505050565b7f4e487b7100000000000000000000000000000000000000000000000000000000600052603260045260246000fd5b7f4e487b7100000000000000000000000000000000000000000000000000000000600052601160045260246000fd5b6000613fce82612e17565b91507fffffffffffffffffffffffffffffffffffffffffffffffffffffffffffffffff820361400057613fff613f94565b5b600182019050919050565b7f4f776e61626c653a206e6577206f776e657220697320746865207a65726f206160008201527f6464726573730000000000000000000000000000000000000000000000000000602082015250565b6000614067602683612e56565b91506140728261400b565b604082019050919050565b600060208201905081810360008301526140968161405a565b9050919050565b7f4552433732313a207472616e736665722066726f6d20696e636f72726563742060008201527f6f776e6572000000000000000000000000000000000000000000000000000000602082015250565b60006140f9602583612e56565b91506141048261409d565b604082019050919050565b60006020820190508181036000830152614128816140ec565b9050919050565b7f4552433732313a207472616e7366657220746f20746865207a65726f2061646460008201527f7265737300000000000000000000000000000000000000000000000000000000602082015250565b600061418b602483612e56565b91506141968261412f565b604082019050919050565b600060208201905081810360008301526141ba8161417e565b9050919050565b7f4f776e61626c653a2063616c6c6572206973206e6f7420746865206f776e6572600082015250565b60006141f7602083612e56565b9150614202826141c1565b602082019050919050565b60006020820190508181036000830152614226816141ea565b9050919050565b7f4552433732313a20617070726f766520746f2063616c6c657200000000000000600082015250565b6000614263601983612e56565b915061426e8261422d565b602082019050919050565b6000602082019050818103600083015261429281614256565b9050919050565b7f4552433732313a207472616e7366657220746f206e6f6e20455243373231526560008201527f63656976657220696d706c656d656e7465720000000000000000000000000000602082015250565b60006142f5603283612e56565b915061430082614299565b604082019050919050565b60006020820190508181036000830152614324816142e8565b9050919050565b7f4552433732313a206d696e7420746f20746865207a65726f2061646472657373600082015250565b6000614361602083612e56565b915061436c8261432b565b602082019050919050565b6000602082019050818103600083015261439081614354565b9050919050565b7f4552433732313a20746f6b656e20616c7265616479206d696e74656400000000600082015250565b60006143cd601c83612e56565b91506143d882614397565b602082019050919050565b600060208201905081810360008301526143fc816143c0565b9050919050565b7f45524337323155524953746f726167653a2055524920736574206f66206e6f6e60008201527f6578697374656e7420746f6b656e000000000000000000000000000000000000602082015250565b600061445f602e83612e56565b915061446a82614403565b604082019050919050565b6000602082019050818103600083015261448e81614452565b9050919050565b60008190508160005260206000209050919050565b60006020601f8301049050919050565b600082821b905092915050565b6000600883026144f77fffffffffffffffffffffffffffffffffffffffffffffffffffffffffffffffff826144ba565b61450186836144ba565b95508019841693508086168417925050509392505050565b6000819050919050565b600061453e61453961453484612e17565b614519565b612e17565b9050919050565b6000819050919050565b61455883614523565b61456c61456482614545565b8484546144c7565b825550505050565b600090565b614581614574565b61458c81848461454f565b505050565b5b818110156145b0576145a5600082614579565b600181019050614592565b5050565b601f8211156145f5576145c681614495565b6145cf846144aa565b810160208510156145de578190505b6145f26145ea856144aa565b830182614591565b50505b505050565b600082821c905092915050565b6000614618600019846008026145fa565b1980831691505092915050565b60006146318383614607565b9150826002028217905092915050565b61464a82612e4b565b67ffffffffffffffff811115614663576146626134d5565b5b61466d8254613c20565b6146788282856145b4565b600060209050601f8311600181146146ab5760008415614699578287015190505b6146a38582614625565b86555061470b565b601f1984166146b986614495565b60005b828110156146e1578489015182556001820191506020850194506020810190506146bc565b868310156146fe57848901516146fa601f891682614607565b8355505b6001600288020188555050505b505050505050565b61471c81613080565b82525050565b600082825260208201905092915050565b600061473e826130fa565b6147488185614722565b93508360208202850161475a85613116565b8060005b8581101561479657848403895281516147778582613126565b94506147828361313a565b925060208a0199505060018101905061475e565b50829750879550505050505092915050565b6000610120820190506147be600083018c614713565b81810360208301526147d0818b612ea2565b905081810360408301526147e4818a612ea2565b905081810360608301526147f88189612ea2565b9050818103608083015261480c8188612ea2565b905061481b60a0830187612ded565b81810360c083015261482d8186612ea2565b905081810360e08301526148418185612ea2565b90508181036101008301526148568184614733565b90509a9950505050505050505050565b600081519050919050565b600082825260208201905092915050565b600061488d82614866565b6148978185614871565b93506148a7818560208601612e67565b6148b081612e91565b840191505092915050565b60006080820190506148d06000830187612f88565b6148dd6020830186612f88565b6148ea6040830185612e21565b81810360608301526148fc8184614882565b905095945050505050565b60008151905061491681612d88565b92915050565b60006020828403121561493257614931612d52565b5b600061494084828501614907565b91505092915050565b7f4e487b7100000000000000000000000000000000000000000000000000000000600052601260045260246000fdfea2646970667358221220bb76b8c65f101e99e2f1b3519cdb94ea4ce7869a4bb17dcde164bf98ee7a828164736f6c63430008130033",
  "immutableReferences": {},
  "source": "// contracts/MyNFT.sol\r\n// SPDX-License-Identifier: MIT\r\npragma solidity ^0.8.0;\r\n\r\nimport \"@openzeppelin/contracts/token/ERC721/ERC721.sol\";\r\nimport \"@openzeppelin/contracts/utils/Counters.sol\";\r\nimport \"@openzeppelin/contracts/access/Ownable.sol\";\r\nimport \"@openzeppelin/contracts/token/ERC721/extensions/ERC721URIStorage.sol\";\r\n\r\ncontract HappyMaru is ERC721URIStorage, Ownable {\r\n    using Counters for Counters.Counter;\r\n    Counters.Counter private tokenIds;\r\n    Counters.Counter private userIds;\r\n\r\n    struct dogInfo {\r\n        uint256 tokenId;\r\n        address payable owner;\r\n        // \r\n        string name;\r\n        // \r\n        string breed;\r\n        // \r\n        string birthDate;\r\n        //  \r\n        string gender;\r\n        //  \r\n        bool neutraled;\r\n        // \r\n        string description;\r\n        // \r\n        string image;\r\n        //  \r\n        string[] noseData;\r\n    }\r\n\r\n    mapping(uint256 => dogInfo) private nfts;\r\n    mapping(address => uint256[]) private dogOwners;\r\n    mapping(uint256 => string) private tokenURIs;\r\n\r\n    event DogInfoCreated(\r\n        uint256 indexed tokenId,\r\n        address payable owner,\r\n        string name,\r\n        string breed,\r\n        string birthDate,\r\n        string gender,\r\n        bool neutraled,\r\n        string description,\r\n        string image,\r\n        string[] noseData\r\n    );\r\n\r\n    constructor() ERC721(\"Happy Maru\", \"HappyMaru's dog INFO \") {}\r\n\r\n    function _setNft(\r\n        uint256 _tokenId,\r\n        dogInfo memory _info,\r\n        string memory tokenURI\r\n    ) private {\r\n        nfts[_tokenId] = _info;\r\n        tokenURIs[_tokenId] = tokenURI;\r\n        emit DogInfoCreated(\r\n            _tokenId,\r\n            payable(msg.sender),\r\n            _info.name,\r\n            _info.breed,\r\n            _info.birthDate,\r\n            _info.gender,\r\n            _info.neutraled,\r\n            _info.description,\r\n            _info.image,\r\n            _info.noseData\r\n        );\r\n    }\r\n\r\n    /// @dev this function mints received NFTs\r\n    /// @param _name name\r\n    /// @param _breed breed\r\n    /// @param _birthDate birthDate\r\n    /// @param _gender gender\r\n    /// @param _neutraled neutraled\r\n    /// @param _description description\r\n    /// @param _image image Url\r\n    /// @param _noseData nose data\r\n    /// @param _tokenURI image Url\r\n    /// @return newTokenId of the created NFT\r\n    function createDogInfo(\r\n        string memory _name,\r\n        string memory _breed,\r\n        string memory _birthDate,\r\n        string memory _gender,\r\n        bool _neutraled,\r\n        string memory _description,\r\n        string memory _image,\r\n        string[] memory _noseData,\r\n        string memory _tokenURI,\r\n        address payable _address\r\n    ) public returns (uint256)  {\r\n        uint256 newTokenId = tokenIds.current();\r\n        _mint(_address, newTokenId);\r\n\r\n        _setTokenURI(newTokenId, _tokenURI);\r\n        dogOwners[_address].push(newTokenId);\r\n        dogInfo memory _info = dogInfo(newTokenId, payable(_address), _name, _breed, _birthDate, _gender, _neutraled, _description, _image, _noseData);\r\n        _setNft(\r\n            newTokenId, _info, _tokenURI\r\n        );\r\n        tokenIds.increment();\r\n        return newTokenId;\r\n    }\r\n\r\n\r\n    /// @dev fetches NFT that a specific user has created\r\n    /// @return nftStruct[] list of nfts created by a user with their metadata\r\n    function getNfts() public view returns (dogInfo[] memory) {\r\n        uint256[] memory ownDogIds =  dogOwners[msg.sender];\r\n        dogInfo[] memory ownDogInfos = new dogInfo[](ownDogIds.length);\r\n\r\n        for (uint256 i = 0; i < ownDogIds.length; i++){\r\n            ownDogInfos[i] = nfts[ownDogIds[i]];\r\n        }\r\n        \r\n        return ownDogInfos;\r\n    }\r\n\r\n    /// @dev fetches details of a particular\r\n    /// @param _tokenId The token ID\r\n    /// @return nftStruct NFT data of the specific token ID\r\n    function getDogInfo(\r\n        uint256 _tokenId\r\n    ) public view returns (dogInfo memory) {\r\n        return nfts[_tokenId];\r\n    }\r\n\r\n    function getNftsByAddress(address owner) public view returns (uint256[] memory) {\r\n        require(owner != address(0), \"ERC721: address zero is not a valid owner\");\r\n        return dogOwners[owner];\r\n    }\r\n\r\n    function sendNft(address from, address payable to, uint256 tokenId) public returns (uint256) {\r\n        safeTransferFrom(from, to, tokenId);\r\n        // owner  \r\n        nfts[tokenId].owner = to;\r\n        return tokenId;\r\n    }\r\n\r\n    function getNftsCount() public view returns (uint256) {\r\n        return tokenIds.current();\r\n    }\r\n}\r\n",
  "sourcePath": "C:\\Projects\\happy-maru-smart-contract\\contracts\\HappyMaru.sol",
  "compiler": {
    "name": "solc",
    "version": "0.8.19+commit.7dd6d404.Emscripten.clang"
  },
  "schemaVersion": "3.4.16",
  "updatedAt": "2024-08-24T15:09:13.308Z",
  "networkType": "ethereum",
  "devdoc": {
    "events": {
      "Approval(address,address,uint256)": {
        "details": "Emitted when `owner` enables `approved` to manage the `tokenId` token."
      },
      "ApprovalForAll(address,address,bool)": {
        "details": "Emitted when `owner` enables or disables (`approved`) `operator` to manage all of its assets."
      },
      "BatchMetadataUpdate(uint256,uint256)": {
        "details": "This event emits when the metadata of a range of tokens is changed. So that the third-party platforms such as NFT market could timely update the images and related attributes of the NFTs."
      },
      "MetadataUpdate(uint256)": {
        "details": "This event emits when the metadata of a token is changed. So that the third-party platforms such as NFT market could timely update the images and related attributes of the NFT."
      },
      "Transfer(address,address,uint256)": {
        "details": "Emitted when `tokenId` token is transferred from `from` to `to`."
      }
    },
    "kind": "dev",
    "methods": {
      "approve(address,uint256)": {
        "details": "See {IERC721-approve}."
      },
      "balanceOf(address)": {
        "details": "See {IERC721-balanceOf}."
      },
      "createDogInfo(string,string,string,string,bool,string,string,string[],string,address)": {
        "details": "this function mints received NFTs",
        "params": {
          "_birthDate": "birthDate",
          "_breed": "breed",
          "_description": "description",
          "_gender": "gender",
          "_image": "image Url",
          "_name": "name",
          "_neutraled": "neutraled",
          "_noseData": "nose data",
          "_tokenURI": "image Url"
        },
        "returns": {
          "_0": "newTokenId of the created NFT"
        }
      },
      "getApproved(uint256)": {
        "details": "See {IERC721-getApproved}."
      },
      "getDogInfo(uint256)": {
        "details": "fetches details of a particular",
        "params": {
          "_tokenId": "The token ID"
        },
        "returns": {
          "_0": "nftStruct NFT data of the specific token ID"
        }
      },
      "getNfts()": {
        "details": "fetches NFT that a specific user has created",
        "returns": {
          "_0": "nftStruct[] list of nfts created by a user with their metadata"
        }
      },
      "isApprovedForAll(address,address)": {
        "details": "See {IERC721-isApprovedForAll}."
      },
      "name()": {
        "details": "See {IERC721Metadata-name}."
      },
      "owner()": {
        "details": "Returns the address of the current owner."
      },
      "ownerOf(uint256)": {
        "details": "See {IERC721-ownerOf}."
      },
      "renounceOwnership()": {
        "details": "Leaves the contract without owner. It will not be possible to call `onlyOwner` functions. Can only be called by the current owner. NOTE: Renouncing ownership will leave the contract without an owner, thereby disabling any functionality that is only available to the owner."
      },
      "safeTransferFrom(address,address,uint256)": {
        "details": "See {IERC721-safeTransferFrom}."
      },
      "safeTransferFrom(address,address,uint256,bytes)": {
        "details": "See {IERC721-safeTransferFrom}."
      },
      "setApprovalForAll(address,bool)": {
        "details": "See {IERC721-setApprovalForAll}."
      },
      "supportsInterface(bytes4)": {
        "details": "See {IERC165-supportsInterface}"
      },
      "symbol()": {
        "details": "See {IERC721Metadata-symbol}."
      },
      "tokenURI(uint256)": {
        "details": "See {IERC721Metadata-tokenURI}."
      },
      "transferFrom(address,address,uint256)": {
        "details": "See {IERC721-transferFrom}."
      },
      "transferOwnership(address)": {
        "details": "Transfers ownership of the contract to a new account (`newOwner`). Can only be called by the current owner."
      }
    },
    "version": 1
  },
  "userdoc": {
    "kind": "user",
    "methods": {},
    "version": 1
  }
}