{
  "contractName": "HappyMaru",
  "abi": [
    {
      "inputs": [],
      "stateMutability": "nonpayable",
      "type": "constructor"
    },
    {
      "anonymous": false,
      "inputs": [
        {
          "indexed": true,
          "internalType": "address",
          "name": "owner",
          "type": "address"
        },
        {
          "indexed": true,
          "internalType": "address",
          "name": "approved",
          "type": "address"
        },
        {
          "indexed": true,
          "internalType": "uint256",
          "name": "tokenId",
          "type": "uint256"
        }
      ],
      "name": "Approval",
      "type": "event"
    },
    {
      "anonymous": false,
      "inputs": [
        {
          "indexed": true,
          "internalType": "address",
          "name": "owner",
          "type": "address"
        },
        {
          "indexed": true,
          "internalType": "address",
          "name": "operator",
          "type": "address"
        },
        {
          "indexed": false,
          "internalType": "bool",
          "name": "approved",
          "type": "bool"
        }
      ],
      "name": "ApprovalForAll",
      "type": "event"
    },
    {
      "anonymous": false,
      "inputs": [
        {
          "indexed": false,
          "internalType": "uint256",
          "name": "_fromTokenId",
          "type": "uint256"
        },
        {
          "indexed": false,
          "internalType": "uint256",
          "name": "_toTokenId",
          "type": "uint256"
        }
      ],
      "name": "BatchMetadataUpdate",
      "type": "event"
    },
    {
      "anonymous": false,
      "inputs": [
        {
          "indexed": true,
          "internalType": "uint256",
          "name": "tokenId",
          "type": "uint256"
        },
        {
          "indexed": false,
          "internalType": "address payable",
          "name": "owner",
          "type": "address"
        },
        {
          "indexed": false,
          "internalType": "string",
          "name": "name",
          "type": "string"
        },
        {
          "indexed": false,
          "internalType": "string",
          "name": "breed",
          "type": "string"
        },
        {
          "indexed": false,
          "internalType": "string",
          "name": "birthDate",
          "type": "string"
        },
        {
          "indexed": false,
          "internalType": "string",
          "name": "gender",
          "type": "string"
        },
        {
          "indexed": false,
          "internalType": "bool",
          "name": "neutraled",
          "type": "bool"
        },
        {
          "indexed": false,
          "internalType": "string",
          "name": "description",
          "type": "string"
        },
        {
          "indexed": false,
          "internalType": "string",
          "name": "image",
          "type": "string"
        }
      ],
      "name": "DogInfoCreated",
      "type": "event"
    },
    {
      "anonymous": false,
      "inputs": [
        {
          "indexed": false,
          "internalType": "uint256",
          "name": "_tokenId",
          "type": "uint256"
        }
      ],
      "name": "MetadataUpdate",
      "type": "event"
    },
    {
      "anonymous": false,
      "inputs": [
        {
          "indexed": true,
          "internalType": "address",
          "name": "previousOwner",
          "type": "address"
        },
        {
          "indexed": true,
          "internalType": "address",
          "name": "newOwner",
          "type": "address"
        }
      ],
      "name": "OwnershipTransferred",
      "type": "event"
    },
    {
      "anonymous": false,
      "inputs": [
        {
          "indexed": true,
          "internalType": "address",
          "name": "from",
          "type": "address"
        },
        {
          "indexed": true,
          "internalType": "address",
          "name": "to",
          "type": "address"
        },
        {
          "indexed": true,
          "internalType": "uint256",
          "name": "tokenId",
          "type": "uint256"
        }
      ],
      "name": "Transfer",
      "type": "event"
    },
    {
      "inputs": [
        {
          "internalType": "address",
          "name": "to",
          "type": "address"
        },
        {
          "internalType": "uint256",
          "name": "tokenId",
          "type": "uint256"
        }
      ],
      "name": "approve",
      "outputs": [],
      "stateMutability": "nonpayable",
      "type": "function"
    },
    {
      "inputs": [
        {
          "internalType": "address",
          "name": "owner",
          "type": "address"
        }
      ],
      "name": "balanceOf",
      "outputs": [
        {
          "internalType": "uint256",
          "name": "",
          "type": "uint256"
        }
      ],
      "stateMutability": "view",
      "type": "function",
      "constant": true
    },
    {
      "inputs": [
        {
          "internalType": "uint256",
          "name": "tokenId",
          "type": "uint256"
        }
      ],
      "name": "getApproved",
      "outputs": [
        {
          "internalType": "address",
          "name": "",
          "type": "address"
        }
      ],
      "stateMutability": "view",
      "type": "function",
      "constant": true
    },
    {
      "inputs": [
        {
          "internalType": "address",
          "name": "owner",
          "type": "address"
        },
        {
          "internalType": "address",
          "name": "operator",
          "type": "address"
        }
      ],
      "name": "isApprovedForAll",
      "outputs": [
        {
          "internalType": "bool",
          "name": "",
          "type": "bool"
        }
      ],
      "stateMutability": "view",
      "type": "function",
      "constant": true
    },
    {
      "inputs": [],
      "name": "name",
      "outputs": [
        {
          "internalType": "string",
          "name": "",
          "type": "string"
        }
      ],
      "stateMutability": "view",
      "type": "function",
      "constant": true
    },
    {
      "inputs": [],
      "name": "owner",
      "outputs": [
        {
          "internalType": "address",
          "name": "",
          "type": "address"
        }
      ],
      "stateMutability": "view",
      "type": "function",
      "constant": true
    },
    {
      "inputs": [
        {
          "internalType": "uint256",
          "name": "tokenId",
          "type": "uint256"
        }
      ],
      "name": "ownerOf",
      "outputs": [
        {
          "internalType": "address",
          "name": "",
          "type": "address"
        }
      ],
      "stateMutability": "view",
      "type": "function",
      "constant": true
    },
    {
      "inputs": [],
      "name": "renounceOwnership",
      "outputs": [],
      "stateMutability": "nonpayable",
      "type": "function"
    },
    {
      "inputs": [
        {
          "internalType": "address",
          "name": "from",
          "type": "address"
        },
        {
          "internalType": "address",
          "name": "to",
          "type": "address"
        },
        {
          "internalType": "uint256",
          "name": "tokenId",
          "type": "uint256"
        }
      ],
      "name": "safeTransferFrom",
      "outputs": [],
      "stateMutability": "nonpayable",
      "type": "function"
    },
    {
      "inputs": [
        {
          "internalType": "address",
          "name": "from",
          "type": "address"
        },
        {
          "internalType": "address",
          "name": "to",
          "type": "address"
        },
        {
          "internalType": "uint256",
          "name": "tokenId",
          "type": "uint256"
        },
        {
          "internalType": "bytes",
          "name": "data",
          "type": "bytes"
        }
      ],
      "name": "safeTransferFrom",
      "outputs": [],
      "stateMutability": "nonpayable",
      "type": "function"
    },
    {
      "inputs": [
        {
          "internalType": "address",
          "name": "operator",
          "type": "address"
        },
        {
          "internalType": "bool",
          "name": "approved",
          "type": "bool"
        }
      ],
      "name": "setApprovalForAll",
      "outputs": [],
      "stateMutability": "nonpayable",
      "type": "function"
    },
    {
      "inputs": [
        {
          "internalType": "bytes4",
          "name": "interfaceId",
          "type": "bytes4"
        }
      ],
      "name": "supportsInterface",
      "outputs": [
        {
          "internalType": "bool",
          "name": "",
          "type": "bool"
        }
      ],
      "stateMutability": "view",
      "type": "function",
      "constant": true
    },
    {
      "inputs": [],
      "name": "symbol",
      "outputs": [
        {
          "internalType": "string",
          "name": "",
          "type": "string"
        }
      ],
      "stateMutability": "view",
      "type": "function",
      "constant": true
    },
    {
      "inputs": [
        {
          "internalType": "uint256",
          "name": "tokenId",
          "type": "uint256"
        }
      ],
      "name": "tokenURI",
      "outputs": [
        {
          "internalType": "string",
          "name": "",
          "type": "string"
        }
      ],
      "stateMutability": "view",
      "type": "function",
      "constant": true
    },
    {
      "inputs": [
        {
          "internalType": "address",
          "name": "from",
          "type": "address"
        },
        {
          "internalType": "address",
          "name": "to",
          "type": "address"
        },
        {
          "internalType": "uint256",
          "name": "tokenId",
          "type": "uint256"
        }
      ],
      "name": "transferFrom",
      "outputs": [],
      "stateMutability": "nonpayable",
      "type": "function"
    },
    {
      "inputs": [
        {
          "internalType": "address",
          "name": "newOwner",
          "type": "address"
        }
      ],
      "name": "transferOwnership",
      "outputs": [],
      "stateMutability": "nonpayable",
      "type": "function"
    },
    {
      "inputs": [
        {
          "internalType": "string",
          "name": "_name",
          "type": "string"
        },
        {
          "internalType": "string",
          "name": "_breed",
          "type": "string"
        },
        {
          "internalType": "string",
          "name": "_birthDate",
          "type": "string"
        },
        {
          "internalType": "string",
          "name": "_gender",
          "type": "string"
        },
        {
          "internalType": "bool",
          "name": "_neutraled",
          "type": "bool"
        },
        {
          "internalType": "string",
          "name": "_description",
          "type": "string"
        },
        {
          "internalType": "string",
          "name": "_image",
          "type": "string"
        },
        {
          "internalType": "string",
          "name": "_tokenURI",
          "type": "string"
        }
      ],
      "name": "createDogInfo",
      "outputs": [
        {
          "internalType": "uint256",
          "name": "",
          "type": "uint256"
        }
      ],
      "stateMutability": "nonpayable",
      "type": "function"
    },
    {
      "inputs": [],
      "name": "getNfts",
      "outputs": [
        {
          "components": [
            {
              "internalType": "uint256",
              "name": "tokenId",
              "type": "uint256"
            },
            {
              "internalType": "address payable",
              "name": "owner",
              "type": "address"
            },
            {
              "internalType": "string",
              "name": "name",
              "type": "string"
            },
            {
              "internalType": "string",
              "name": "breed",
              "type": "string"
            },
            {
              "internalType": "string",
              "name": "birthDate",
              "type": "string"
            },
            {
              "internalType": "string",
              "name": "gender",
              "type": "string"
            },
            {
              "internalType": "bool",
              "name": "neutraled",
              "type": "bool"
            },
            {
              "internalType": "string",
              "name": "description",
              "type": "string"
            },
            {
              "internalType": "string",
              "name": "image",
              "type": "string"
            }
          ],
          "internalType": "struct HappyMaru.dogInfo[]",
          "name": "",
          "type": "tuple[]"
        }
      ],
      "stateMutability": "view",
      "type": "function",
      "constant": true
    },
    {
      "inputs": [
        {
          "internalType": "uint256",
          "name": "_tokenId",
          "type": "uint256"
        }
      ],
      "name": "getIndividualNFT",
      "outputs": [
        {
          "components": [
            {
              "internalType": "uint256",
              "name": "tokenId",
              "type": "uint256"
            },
            {
              "internalType": "address payable",
              "name": "owner",
              "type": "address"
            },
            {
              "internalType": "string",
              "name": "name",
              "type": "string"
            },
            {
              "internalType": "string",
              "name": "breed",
              "type": "string"
            },
            {
              "internalType": "string",
              "name": "birthDate",
              "type": "string"
            },
            {
              "internalType": "string",
              "name": "gender",
              "type": "string"
            },
            {
              "internalType": "bool",
              "name": "neutraled",
              "type": "bool"
            },
            {
              "internalType": "string",
              "name": "description",
              "type": "string"
            },
            {
              "internalType": "string",
              "name": "image",
              "type": "string"
            }
          ],
          "internalType": "struct HappyMaru.dogInfo",
          "name": "",
          "type": "tuple"
        }
      ],
      "stateMutability": "view",
      "type": "function",
      "constant": true
    },
    {
      "inputs": [
        {
          "internalType": "address",
          "name": "owner",
          "type": "address"
        }
      ],
      "name": "getNftsByAddress",
      "outputs": [
        {
          "internalType": "uint256[]",
          "name": "",
          "type": "uint256[]"
        }
      ],
      "stateMutability": "view",
      "type": "function",
      "constant": true
    },
    {
      "inputs": [
        {
          "internalType": "address",
          "name": "from",
          "type": "address"
        },
        {
          "internalType": "address payable",
          "name": "to",
          "type": "address"
        },
        {
          "internalType": "uint256",
          "name": "tokenId",
          "type": "uint256"
        }
      ],
      "name": "sendNft",
      "outputs": [
        {
          "internalType": "uint256",
          "name": "",
          "type": "uint256"
        }
      ],
      "stateMutability": "nonpayable",
      "type": "function"
    },
    {
      "inputs": [],
      "name": "getNftsCount",
      "outputs": [
        {
          "internalType": "uint256",
          "name": "",
          "type": "uint256"
        }
      ],
      "stateMutability": "view",
      "type": "function",
      "constant": true
    },
    {
      "inputs": [
        {
          "internalType": "string",
          "name": "_tokenURI",
          "type": "string"
        },
        {
          "components": [
            {
              "internalType": "uint256",
              "name": "tokenId",
              "type": "uint256"
            },
            {
              "internalType": "address payable",
              "name": "owner",
              "type": "address"
            },
            {
              "internalType": "string",
              "name": "name",
              "type": "string"
            },
            {
              "internalType": "string",
              "name": "breed",
              "type": "string"
            },
            {
              "internalType": "string",
              "name": "birthDate",
              "type": "string"
            },
            {
              "internalType": "string",
              "name": "gender",
              "type": "string"
            },
            {
              "internalType": "bool",
              "name": "neutraled",
              "type": "bool"
            },
            {
              "internalType": "string",
              "name": "description",
              "type": "string"
            },
            {
              "internalType": "string",
              "name": "image",
              "type": "string"
            }
          ],
          "internalType": "struct HappyMaru.dogInfo",
          "name": "_info",
          "type": "tuple"
        },
        {
          "internalType": "address",
          "name": "from",
          "type": "address"
        },
        {
          "internalType": "address payable",
          "name": "to",
          "type": "address"
        }
      ],
      "name": "createAndSendNft",
      "outputs": [
        {
          "internalType": "uint256",
          "name": "",
          "type": "uint256"
        }
      ],
      "stateMutability": "nonpayable",
      "type": "function"
    }
  ],
  "bytecode": "0x60806040523480156200001157600080fd5b506040518060400160405280600a81526020017f4861707079204d617275000000000000000000000000000000000000000000008152506040518060400160405280601581526020017f48617070794d617275277320646f6720494e464f20000000000000000000000081525081600090816200008f91906200044c565b508060019081620000a191906200044c565b505050620000c4620000b8620000ee60201b60201c565b620000f660201b60201c565b620000d66008620001bc60201b60201c565b620000e86009620001bc60201b60201c565b62000533565b600033905090565b6000600760009054906101000a900473ffffffffffffffffffffffffffffffffffffffff16905081600760006101000a81548173ffffffffffffffffffffffffffffffffffffffff021916908373ffffffffffffffffffffffffffffffffffffffff1602179055508173ffffffffffffffffffffffffffffffffffffffff168173ffffffffffffffffffffffffffffffffffffffff167f8be0079c531659141344cd1fd0a4f28419497f9722a3daafe3b4186f6b6457e060405160405180910390a35050565b6001816000016000828254019250508190555050565b600081519050919050565b7f4e487b7100000000000000000000000000000000000000000000000000000000600052604160045260246000fd5b7f4e487b7100000000000000000000000000000000000000000000000000000000600052602260045260246000fd5b600060028204905060018216806200025457607f821691505b6020821081036200026a57620002696200020c565b5b50919050565b60008190508160005260206000209050919050565b60006020601f8301049050919050565b600082821b905092915050565b600060088302620002d47fffffffffffffffffffffffffffffffffffffffffffffffffffffffffffffffff8262000295565b620002e0868362000295565b95508019841693508086168417925050509392505050565b6000819050919050565b6000819050919050565b60006200032d620003276200032184620002f8565b62000302565b620002f8565b9050919050565b6000819050919050565b62000349836200030c565b62000361620003588262000334565b848454620002a2565b825550505050565b600090565b6200037862000369565b620003858184846200033e565b505050565b5b81811015620003ad57620003a16000826200036e565b6001810190506200038b565b5050565b601f821115620003fc57620003c68162000270565b620003d18462000285565b81016020851015620003e1578190505b620003f9620003f08562000285565b8301826200038a565b50505b505050565b600082821c905092915050565b6000620004216000198460080262000401565b1980831691505092915050565b60006200043c83836200040e565b9150826002028217905092915050565b6200045782620001d2565b67ffffffffffffffff811115620004735762000472620001dd565b5b6200047f82546200023b565b6200048c828285620003b1565b600060209050601f831160018114620004c45760008415620004af578287015190505b620004bb85826200042e565b8655506200052b565b601f198416620004d48662000270565b60005b82811015620004fe57848901518255600182019150602085019450602081019050620004d7565b868310156200051e57848901516200051a601f8916826200040e565b8355505b6001600288020188555050505b505050505050565b61480480620005436000396000f3fe608060405234801561001057600080fd5b506004361061014d5760003560e01c806370a08231116100c3578063b88d4fde1161007c578063b88d4fde146103c4578063c87b56dd146103e0578063d8cb55e314610410578063e985e9c51461042e578063f2fde38b1461045e578063fde50cf01461047a5761014d565b806370a0823114610302578063715018a614610332578063768563191461033c5780638da5cb5b1461036c57806395d89b411461038a578063a22cb465146103a85761014d565b806318199fd51161011557806318199fd51461020a57806323b872dd1461023a5780633a66dd361461025657806342842e0e146102865780634d81c77d146102a25780636352211e146102d25761014d565b806301ffc9a71461015257806305ed9a671461018257806306fdde03146101a0578063081812fc146101be578063095ea7b3146101ee575b600080fd5b61016c60048036038101906101679190612c9a565b6104aa565b6040516101799190612ce2565b60405180910390f35b61018a61050b565b6040516101979190612d16565b60405180910390f35b6101a861051c565b6040516101b59190612dc1565b60405180910390f35b6101d860048036038101906101d39190612e0f565b6105ae565b6040516101e59190612e7d565b60405180910390f35b61020860048036038101906102039190612ec4565b6105f4565b005b610224600480360381019061021f9190613065565b61070b565b6040516102319190612d16565b60405180910390f35b610254600480360381019061024f91906131df565b610816565b005b610270600480360381019061026b9190613232565b610876565b60405161027d919061331d565b60405180910390f35b6102a0600480360381019061029b91906131df565b61097c565b005b6102bc60048036038101906102b7919061337d565b61099c565b6040516102c99190612d16565b60405180910390f35b6102ec60048036038101906102e79190612e0f565b610a08565b6040516102f99190612e7d565b60405180910390f35b61031c60048036038101906103179190613232565b610a8e565b6040516103299190612d16565b60405180910390f35b61033a610b45565b005b61035660048036038101906103519190612e0f565b610b59565b6040516103639190613520565b60405180910390f35b610374610f6e565b6040516103819190612e7d565b60405180910390f35b610392610f98565b60405161039f9190612dc1565b60405180910390f35b6103c260048036038101906103bd9190613542565b61102a565b005b6103de60048036038101906103d99190613623565b611040565b005b6103fa60048036038101906103f59190612e0f565b6110a2565b6040516104079190612dc1565b60405180910390f35b6104186111b4565b6040516104259190613850565b60405180910390f35b61044860048036038101906104439190613872565b611768565b6040516104559190612ce2565b60405180910390f35b61047860048036038101906104739190613232565b6117fc565b005b610494600480360381019061048f9190613a44565b61187f565b6040516104a19190612d16565b60405180910390f35b6000634906490660e01b7bffffffffffffffffffffffffffffffffffffffffffffffffffffffff1916827bffffffffffffffffffffffffffffffffffffffffffffffffffffffff19161480610504575061050382611989565b5b9050919050565b60006105176008611a6b565b905090565b60606000805461052b90613b12565b80601f016020809104026020016040519081016040528092919081815260200182805461055790613b12565b80156105a45780601f10610579576101008083540402835291602001916105a4565b820191906000526020600020905b81548152906001019060200180831161058757829003601f168201915b5050505050905090565b60006105b982611a79565b6004600083815260200190815260200160002060009054906101000a900473ffffffffffffffffffffffffffffffffffffffff169050919050565b60006105ff82610a08565b90508073ffffffffffffffffffffffffffffffffffffffff168373ffffffffffffffffffffffffffffffffffffffff160361066f576040517f08c379a000000000000000000000000000000000000000000000000000000000815260040161066690613bb5565b60405180910390fd5b8073ffffffffffffffffffffffffffffffffffffffff1661068e611ac4565b73ffffffffffffffffffffffffffffffffffffffff1614806106bd57506106bc816106b7611ac4565b611768565b5b6106fc576040517f08c379a00000000000000000000000000000000000000000000000000000000081526004016106f390613c47565b60405180910390fd5b6107068383611acc565b505050565b6000806107186008611a6b565b90506107243382611b85565b61072e8184611da2565b600b60003373ffffffffffffffffffffffffffffffffffffffff1673ffffffffffffffffffffffffffffffffffffffff16815260200190815260200160002081908060018154018082558091505060019003906000526020600020016000909190919091505560006040518061012001604052808381526020013373ffffffffffffffffffffffffffffffffffffffff1681526020018c81526020018b81526020018a815260200189815260200188151581526020018781526020018681525090506107fb828286611e46565b6108056008611fdc565b819250505098975050505050505050565b610827610821611ac4565b82611ff2565b610866576040517f08c379a000000000000000000000000000000000000000000000000000000000815260040161085d90613cd9565b60405180910390fd5b610871838383612087565b505050565b6060600073ffffffffffffffffffffffffffffffffffffffff168273ffffffffffffffffffffffffffffffffffffffff16036108e7576040517f08c379a00000000000000000000000000000000000000000000000000000000081526004016108de90613d6b565b60405180910390fd5b600b60008373ffffffffffffffffffffffffffffffffffffffff1673ffffffffffffffffffffffffffffffffffffffff16815260200190815260200160002080548060200260200160405190810160405280929190818152602001828054801561097057602002820191906000526020600020905b81548152602001906001019080831161095c575b50505050509050919050565b61099783838360405180602001604052806000815250611040565b505050565b60006109a984848461097c565b82600a600084815260200190815260200160002060010160006101000a81548173ffffffffffffffffffffffffffffffffffffffff021916908373ffffffffffffffffffffffffffffffffffffffff1602179055508190509392505050565b600080610a1483612380565b9050600073ffffffffffffffffffffffffffffffffffffffff168173ffffffffffffffffffffffffffffffffffffffff1603610a85576040517f08c379a0000000000000000000000000000000000000000000000000000000008152600401610a7c90613dd7565b60405180910390fd5b80915050919050565b60008073ffffffffffffffffffffffffffffffffffffffff168273ffffffffffffffffffffffffffffffffffffffff1603610afe576040517f08c379a0000000000000000000000000000000000000000000000000000000008152600401610af590613d6b565b60405180910390fd5b600360008373ffffffffffffffffffffffffffffffffffffffff1673ffffffffffffffffffffffffffffffffffffffff168152602001908152602001600020549050919050565b610b4d6123bd565b610b57600061243b565b565b610b61612bca565b600a600083815260200190815260200160002060405180610120016040529081600082015481526020016001820160009054906101000a900473ffffffffffffffffffffffffffffffffffffffff1673ffffffffffffffffffffffffffffffffffffffff1673ffffffffffffffffffffffffffffffffffffffff168152602001600282018054610bf090613b12565b80601f0160208091040260200160405190810160405280929190818152602001828054610c1c90613b12565b8015610c695780601f10610c3e57610100808354040283529160200191610c69565b820191906000526020600020905b815481529060010190602001808311610c4c57829003601f168201915b50505050508152602001600382018054610c8290613b12565b80601f0160208091040260200160405190810160405280929190818152602001828054610cae90613b12565b8015610cfb5780601f10610cd057610100808354040283529160200191610cfb565b820191906000526020600020905b815481529060010190602001808311610cde57829003601f168201915b50505050508152602001600482018054610d1490613b12565b80601f0160208091040260200160405190810160405280929190818152602001828054610d4090613b12565b8015610d8d5780601f10610d6257610100808354040283529160200191610d8d565b820191906000526020600020905b815481529060010190602001808311610d7057829003601f168201915b50505050508152602001600582018054610da690613b12565b80601f0160208091040260200160405190810160405280929190818152602001828054610dd290613b12565b8015610e1f5780601f10610df457610100808354040283529160200191610e1f565b820191906000526020600020905b815481529060010190602001808311610e0257829003601f168201915b505050505081526020016006820160009054906101000a900460ff16151515158152602001600782018054610e5390613b12565b80601f0160208091040260200160405190810160405280929190818152602001828054610e7f90613b12565b8015610ecc5780601f10610ea157610100808354040283529160200191610ecc565b820191906000526020600020905b815481529060010190602001808311610eaf57829003601f168201915b50505050508152602001600882018054610ee590613b12565b80601f0160208091040260200160405190810160405280929190818152602001828054610f1190613b12565b8015610f5e5780601f10610f3357610100808354040283529160200191610f5e565b820191906000526020600020905b815481529060010190602001808311610f4157829003601f168201915b5050505050815250509050919050565b6000600760009054906101000a900473ffffffffffffffffffffffffffffffffffffffff16905090565b606060018054610fa790613b12565b80601f0160208091040260200160405190810160405280929190818152602001828054610fd390613b12565b80156110205780601f10610ff557610100808354040283529160200191611020565b820191906000526020600020905b81548152906001019060200180831161100357829003601f168201915b5050505050905090565b61103c611035611ac4565b8383612501565b5050565b61105161104b611ac4565b83611ff2565b611090576040517f08c379a000000000000000000000000000000000000000000000000000000000815260040161108790613cd9565b60405180910390fd5b61109c8484848461266d565b50505050565b60606110ad82611a79565b60006006600084815260200190815260200160002080546110cd90613b12565b80601f01602080910402602001604051908101604052809291908181526020018280546110f990613b12565b80156111465780601f1061111b57610100808354040283529160200191611146565b820191906000526020600020905b81548152906001019060200180831161112957829003601f168201915b5050505050905060006111576126c9565b9050600081510361116c5781925050506111af565b6000825111156111a1578082604051602001611189929190613e33565b604051602081830303815290604052925050506111af565b6111aa846126e0565b925050505b919050565b606060006111c26008611a6b565b905060008167ffffffffffffffff8111156111e0576111df612f0e565b5b60405190808252806020026020018201604052801561121957816020015b611206612bca565b8152602001906001900390816111fe5790505b509050600080600190505b838110156116ad573373ffffffffffffffffffffffffffffffffffffffff1661124c82610a08565b73ffffffffffffffffffffffffffffffffffffffff160361169a57600a600082815260200190815260200160002060405180610120016040529081600082015481526020016001820160009054906101000a900473ffffffffffffffffffffffffffffffffffffffff1673ffffffffffffffffffffffffffffffffffffffff1673ffffffffffffffffffffffffffffffffffffffff1681526020016002820180546112f690613b12565b80601f016020809104026020016040519081016040528092919081815260200182805461132290613b12565b801561136f5780601f106113445761010080835404028352916020019161136f565b820191906000526020600020905b81548152906001019060200180831161135257829003601f168201915b5050505050815260200160038201805461138890613b12565b80601f01602080910402602001604051908101604052809291908181526020018280546113b490613b12565b80156114015780601f106113d657610100808354040283529160200191611401565b820191906000526020600020905b8154815290600101906020018083116113e457829003601f168201915b5050505050815260200160048201805461141a90613b12565b80601f016020809104026020016040519081016040528092919081815260200182805461144690613b12565b80156114935780601f1061146857610100808354040283529160200191611493565b820191906000526020600020905b81548152906001019060200180831161147657829003601f168201915b505050505081526020016005820180546114ac90613b12565b80601f01602080910402602001604051908101604052809291908181526020018280546114d890613b12565b80156115255780601f106114fa57610100808354040283529160200191611525565b820191906000526020600020905b81548152906001019060200180831161150857829003601f168201915b505050505081526020016006820160009054906101000a900460ff1615151515815260200160078201805461155990613b12565b80601f016020809104026020016040519081016040528092919081815260200182805461158590613b12565b80156115d25780601f106115a7576101008083540402835291602001916115d2565b820191906000526020600020905b8154815290600101906020018083116115b557829003601f168201915b505050505081526020016008820180546115eb90613b12565b80601f016020809104026020016040519081016040528092919081815260200182805461161790613b12565b80156116645780601f1061163957610100808354040283529160200191611664565b820191906000526020600020905b81548152906001019060200180831161164757829003601f168201915b5050505050815250508383815181106116805761167f613e57565b5b6020026020010181905250818061169690613eb5565b9250505b80806116a590613eb5565b915050611224565b5060008167ffffffffffffffff8111156116ca576116c9612f0e565b5b60405190808252806020026020018201604052801561170357816020015b6116f0612bca565b8152602001906001900390816116e85790505b50905060005b8281101561175d5783818151811061172457611723613e57565b5b602002602001015182828151811061173f5761173e613e57565b5b6020026020010181905250808061175590613eb5565b915050611709565b508094505050505090565b6000600560008473ffffffffffffffffffffffffffffffffffffffff1673ffffffffffffffffffffffffffffffffffffffff16815260200190815260200160002060008373ffffffffffffffffffffffffffffffffffffffff1673ffffffffffffffffffffffffffffffffffffffff16815260200190815260200160002060009054906101000a900460ff16905092915050565b6118046123bd565b600073ffffffffffffffffffffffffffffffffffffffff168173ffffffffffffffffffffffffffffffffffffffff1603611873576040517f08c379a000000000000000000000000000000000000000000000000000000000815260040161186a90613f6f565b60405180910390fd5b61187c8161243b565b50565b60008061188c6008611a6b565b90506118988482611b85565b6118a28187611da2565b600b60008573ffffffffffffffffffffffffffffffffffffffff1673ffffffffffffffffffffffffffffffffffffffff168152602001908152602001600020819080600181540180825580915050600190039060005260206000200160009091909190915055611913818688611e46565b61191d6008611fdc565b61192884848361097c565b82600a600083815260200190815260200160002060010160006101000a81548173ffffffffffffffffffffffffffffffffffffffff021916908373ffffffffffffffffffffffffffffffffffffffff16021790555080915050949350505050565b60007f80ac58cd000000000000000000000000000000000000000000000000000000007bffffffffffffffffffffffffffffffffffffffffffffffffffffffff1916827bffffffffffffffffffffffffffffffffffffffffffffffffffffffff19161480611a5457507f5b5e139f000000000000000000000000000000000000000000000000000000007bffffffffffffffffffffffffffffffffffffffffffffffffffffffff1916827bffffffffffffffffffffffffffffffffffffffffffffffffffffffff1916145b80611a645750611a6382612748565b5b9050919050565b600081600001549050919050565b611a82816127b2565b611ac1576040517f08c379a0000000000000000000000000000000000000000000000000000000008152600401611ab890613dd7565b60405180910390fd5b50565b600033905090565b816004600083815260200190815260200160002060006101000a81548173ffffffffffffffffffffffffffffffffffffffff021916908373ffffffffffffffffffffffffffffffffffffffff160217905550808273ffffffffffffffffffffffffffffffffffffffff16611b3f83610a08565b73ffffffffffffffffffffffffffffffffffffffff167f8c5be1e5ebec7d5bd14f71427d1e84f3dd0314c0f7b2291e5b200ac8c7c3b92560405160405180910390a45050565b600073ffffffffffffffffffffffffffffffffffffffff168273ffffffffffffffffffffffffffffffffffffffff1603611bf4576040517f08c379a0000000000000000000000000000000000000000000000000000000008152600401611beb90613fdb565b60405180910390fd5b611bfd816127b2565b15611c3d576040517f08c379a0000000000000000000000000000000000000000000000000000000008152600401611c3490614047565b60405180910390fd5b611c4b6000838360016127f3565b611c54816127b2565b15611c94576040517f08c379a0000000000000000000000000000000000000000000000000000000008152600401611c8b90614047565b60405180910390fd5b6001600360008473ffffffffffffffffffffffffffffffffffffffff1673ffffffffffffffffffffffffffffffffffffffff16815260200190815260200160002060008282540192505081905550816002600083815260200190815260200160002060006101000a81548173ffffffffffffffffffffffffffffffffffffffff021916908373ffffffffffffffffffffffffffffffffffffffff160217905550808273ffffffffffffffffffffffffffffffffffffffff16600073ffffffffffffffffffffffffffffffffffffffff167fddf252ad1be2c89b69c2b068fc378daa952ba7f163c4a11628f55a4df523b3ef60405160405180910390a4611d9e6000838360016127f9565b5050565b611dab826127b2565b611dea576040517f08c379a0000000000000000000000000000000000000000000000000000000008152600401611de1906140d9565b60405180910390fd5b80600660008481526020019081526020016000209081611e0a91906142a5565b507ff8e1a15aba9398e019f0b49df1a4fde98ee17ae345cb5f6b5e2c27f5033e8ce782604051611e3a9190612d16565b60405180910390a15050565b81600a60008581526020019081526020016000206000820151816000015560208201518160010160006101000a81548173ffffffffffffffffffffffffffffffffffffffff021916908373ffffffffffffffffffffffffffffffffffffffff1602179055506040820151816002019081611ec091906142a5565b506060820151816003019081611ed691906142a5565b506080820151816004019081611eec91906142a5565b5060a0820151816005019081611f0291906142a5565b5060c08201518160060160006101000a81548160ff02191690831515021790555060e0820151816007019081611f3891906142a5565b50610100820151816008019081611f4f91906142a5565b5090505080600c60008581526020019081526020016000209081611f7391906142a5565b50827f94009785e13accce9aee6dcc034e8e35e3cc1f97e82830cba04004b920e515c4338460400151856060015186608001518760a001518860c001518960e001518a6101000151604051611fcf989796959493929190614386565b60405180910390a2505050565b6001816000016000828254019250508190555050565b600080611ffe83610a08565b90508073ffffffffffffffffffffffffffffffffffffffff168473ffffffffffffffffffffffffffffffffffffffff161480612040575061203f8185611768565b5b8061207e57508373ffffffffffffffffffffffffffffffffffffffff16612066846105ae565b73ffffffffffffffffffffffffffffffffffffffff16145b91505092915050565b8273ffffffffffffffffffffffffffffffffffffffff166120a782610a08565b73ffffffffffffffffffffffffffffffffffffffff16146120fd576040517f08c379a00000000000000000000000000000000000000000000000000000000081526004016120f4906144a0565b60405180910390fd5b600073ffffffffffffffffffffffffffffffffffffffff168273ffffffffffffffffffffffffffffffffffffffff160361216c576040517f08c379a000000000000000000000000000000000000000000000000000000000815260040161216390614532565b60405180910390fd5b61217983838360016127f3565b8273ffffffffffffffffffffffffffffffffffffffff1661219982610a08565b73ffffffffffffffffffffffffffffffffffffffff16146121ef576040517f08c379a00000000000000000000000000000000000000000000000000000000081526004016121e6906144a0565b60405180910390fd5b6004600082815260200190815260200160002060006101000a81549073ffffffffffffffffffffffffffffffffffffffff02191690556001600360008573ffffffffffffffffffffffffffffffffffffffff1673ffffffffffffffffffffffffffffffffffffffff168152602001908152602001600020600082825403925050819055506001600360008473ffffffffffffffffffffffffffffffffffffffff1673ffffffffffffffffffffffffffffffffffffffff16815260200190815260200160002060008282540192505081905550816002600083815260200190815260200160002060006101000a81548173ffffffffffffffffffffffffffffffffffffffff021916908373ffffffffffffffffffffffffffffffffffffffff160217905550808273ffffffffffffffffffffffffffffffffffffffff168473ffffffffffffffffffffffffffffffffffffffff167fddf252ad1be2c89b69c2b068fc378daa952ba7f163c4a11628f55a4df523b3ef60405160405180910390a461237b83838360016127f9565b505050565b60006002600083815260200190815260200160002060009054906101000a900473ffffffffffffffffffffffffffffffffffffffff169050919050565b6123c5611ac4565b73ffffffffffffffffffffffffffffffffffffffff166123e3610f6e565b73ffffffffffffffffffffffffffffffffffffffff1614612439576040517f08c379a00000000000000000000000000000000000000000000000000000000081526004016124309061459e565b60405180910390fd5b565b6000600760009054906101000a900473ffffffffffffffffffffffffffffffffffffffff16905081600760006101000a81548173ffffffffffffffffffffffffffffffffffffffff021916908373ffffffffffffffffffffffffffffffffffffffff1602179055508173ffffffffffffffffffffffffffffffffffffffff168173ffffffffffffffffffffffffffffffffffffffff167f8be0079c531659141344cd1fd0a4f28419497f9722a3daafe3b4186f6b6457e060405160405180910390a35050565b8173ffffffffffffffffffffffffffffffffffffffff168373ffffffffffffffffffffffffffffffffffffffff160361256f576040517f08c379a00000000000000000000000000000000000000000000000000000000081526004016125669061460a565b60405180910390fd5b80600560008573ffffffffffffffffffffffffffffffffffffffff1673ffffffffffffffffffffffffffffffffffffffff16815260200190815260200160002060008473ffffffffffffffffffffffffffffffffffffffff1673ffffffffffffffffffffffffffffffffffffffff16815260200190815260200160002060006101000a81548160ff0219169083151502179055508173ffffffffffffffffffffffffffffffffffffffff168373ffffffffffffffffffffffffffffffffffffffff167f17307eab39ab6107e8899845ad3d59bd9653f200f220920489ca2b5937696c31836040516126609190612ce2565b60405180910390a3505050565b612678848484612087565b612684848484846127ff565b6126c3576040517f08c379a00000000000000000000000000000000000000000000000000000000081526004016126ba9061469c565b60405180910390fd5b50505050565b606060405180602001604052806000815250905090565b60606126eb82611a79565b60006126f56126c9565b905060008151116127155760405180602001604052806000815250612740565b8061271f84612986565b604051602001612730929190613e33565b6040516020818303038152906040525b915050919050565b60007f01ffc9a7000000000000000000000000000000000000000000000000000000007bffffffffffffffffffffffffffffffffffffffffffffffffffffffff1916827bffffffffffffffffffffffffffffffffffffffffffffffffffffffff1916149050919050565b60008073ffffffffffffffffffffffffffffffffffffffff166127d483612380565b73ffffffffffffffffffffffffffffffffffffffff1614159050919050565b50505050565b50505050565b60006128208473ffffffffffffffffffffffffffffffffffffffff16612a54565b15612979578373ffffffffffffffffffffffffffffffffffffffff1663150b7a02612849611ac4565b8786866040518563ffffffff1660e01b815260040161286b9493929190614711565b6020604051808303816000875af19250505080156128a757506040513d601f19601f820116820180604052508101906128a49190614772565b60015b612929573d80600081146128d7576040519150601f19603f3d011682016040523d82523d6000602084013e6128dc565b606091505b506000815103612921576040517f08c379a00000000000000000000000000000000000000000000000000000000081526004016129189061469c565b60405180910390fd5b805181602001fd5b63150b7a0260e01b7bffffffffffffffffffffffffffffffffffffffffffffffffffffffff1916817bffffffffffffffffffffffffffffffffffffffffffffffffffffffff19161491505061297e565b600190505b949350505050565b60606000600161299584612a77565b01905060008167ffffffffffffffff8111156129b4576129b3612f0e565b5b6040519080825280601f01601f1916602001820160405280156129e65781602001600182028036833780820191505090505b509050600082602001820190505b600115612a49578080600190039150507f3031323334353637383961626364656600000000000000000000000000000000600a86061a8153600a8581612a3d57612a3c61479f565b5b049450600085036129f4575b819350505050919050565b6000808273ffffffffffffffffffffffffffffffffffffffff163b119050919050565b600080600090507a184f03e93ff9f4daa797ed6e38ed64bf6a1f0100000000000000008310612ad5577a184f03e93ff9f4daa797ed6e38ed64bf6a1f0100000000000000008381612acb57612aca61479f565b5b0492506040810190505b6d04ee2d6d415b85acef81000000008310612b12576d04ee2d6d415b85acef81000000008381612b0857612b0761479f565b5b0492506020810190505b662386f26fc100008310612b4157662386f26fc100008381612b3757612b3661479f565b5b0492506010810190505b6305f5e1008310612b6a576305f5e1008381612b6057612b5f61479f565b5b0492506008810190505b6127108310612b8f576127108381612b8557612b8461479f565b5b0492506004810190505b60648310612bb25760648381612ba857612ba761479f565b5b0492506002810190505b600a8310612bc1576001810190505b80915050919050565b60405180610120016040528060008152602001600073ffffffffffffffffffffffffffffffffffffffff1681526020016060815260200160608152602001606081526020016060815260200160001515815260200160608152602001606081525090565b6000604051905090565b600080fd5b600080fd5b60007fffffffff0000000000000000000000000000000000000000000000000000000082169050919050565b612c7781612c42565b8114612c8257600080fd5b50565b600081359050612c9481612c6e565b92915050565b600060208284031215612cb057612caf612c38565b5b6000612cbe84828501612c85565b91505092915050565b60008115159050919050565b612cdc81612cc7565b82525050565b6000602082019050612cf76000830184612cd3565b92915050565b6000819050919050565b612d1081612cfd565b82525050565b6000602082019050612d2b6000830184612d07565b92915050565b600081519050919050565b600082825260208201905092915050565b60005b83811015612d6b578082015181840152602081019050612d50565b60008484015250505050565b6000601f19601f8301169050919050565b6000612d9382612d31565b612d9d8185612d3c565b9350612dad818560208601612d4d565b612db681612d77565b840191505092915050565b60006020820190508181036000830152612ddb8184612d88565b905092915050565b612dec81612cfd565b8114612df757600080fd5b50565b600081359050612e0981612de3565b92915050565b600060208284031215612e2557612e24612c38565b5b6000612e3384828501612dfa565b91505092915050565b600073ffffffffffffffffffffffffffffffffffffffff82169050919050565b6000612e6782612e3c565b9050919050565b612e7781612e5c565b82525050565b6000602082019050612e926000830184612e6e565b92915050565b612ea181612e5c565b8114612eac57600080fd5b50565b600081359050612ebe81612e98565b92915050565b60008060408385031215612edb57612eda612c38565b5b6000612ee985828601612eaf565b9250506020612efa85828601612dfa565b9150509250929050565b600080fd5b600080fd5b7f4e487b7100000000000000000000000000000000000000000000000000000000600052604160045260246000fd5b612f4682612d77565b810181811067ffffffffffffffff82111715612f6557612f64612f0e565b5b80604052505050565b6000612f78612c2e565b9050612f848282612f3d565b919050565b600067ffffffffffffffff821115612fa457612fa3612f0e565b5b612fad82612d77565b9050602081019050919050565b82818337600083830152505050565b6000612fdc612fd784612f89565b612f6e565b905082815260208101848484011115612ff857612ff7612f09565b5b613003848285612fba565b509392505050565b600082601f8301126130205761301f612f04565b5b8135613030848260208601612fc9565b91505092915050565b61304281612cc7565b811461304d57600080fd5b50565b60008135905061305f81613039565b92915050565b600080600080600080600080610100898b03121561308657613085612c38565b5b600089013567ffffffffffffffff8111156130a4576130a3612c3d565b5b6130b08b828c0161300b565b985050602089013567ffffffffffffffff8111156130d1576130d0612c3d565b5b6130dd8b828c0161300b565b975050604089013567ffffffffffffffff8111156130fe576130fd612c3d565b5b61310a8b828c0161300b565b965050606089013567ffffffffffffffff81111561312b5761312a612c3d565b5b6131378b828c0161300b565b95505060806131488b828c01613050565b94505060a089013567ffffffffffffffff81111561316957613168612c3d565b5b6131758b828c0161300b565b93505060c089013567ffffffffffffffff81111561319657613195612c3d565b5b6131a28b828c0161300b565b92505060e089013567ffffffffffffffff8111156131c3576131c2612c3d565b5b6131cf8b828c0161300b565b9150509295985092959890939650565b6000806000606084860312156131f8576131f7612c38565b5b600061320686828701612eaf565b935050602061321786828701612eaf565b925050604061322886828701612dfa565b9150509250925092565b60006020828403121561324857613247612c38565b5b600061325684828501612eaf565b91505092915050565b600081519050919050565b600082825260208201905092915050565b6000819050602082019050919050565b61329481612cfd565b82525050565b60006132a6838361328b565b60208301905092915050565b6000602082019050919050565b60006132ca8261325f565b6132d4818561326a565b93506132df8361327b565b8060005b838110156133105781516132f7888261329a565b9750613302836132b2565b9250506001810190506132e3565b5085935050505092915050565b6000602082019050818103600083015261333781846132bf565b905092915050565b600061334a82612e3c565b9050919050565b61335a8161333f565b811461336557600080fd5b50565b60008135905061337781613351565b92915050565b60008060006060848603121561339657613395612c38565b5b60006133a486828701612eaf565b93505060206133b586828701613368565b92505060406133c686828701612dfa565b9150509250925092565b6133d98161333f565b82525050565b600082825260208201905092915050565b60006133fb82612d31565b61340581856133df565b9350613415818560208601612d4d565b61341e81612d77565b840191505092915050565b61343281612cc7565b82525050565b600061012083016000830151613451600086018261328b565b50602083015161346460208601826133d0565b506040830151848203604086015261347c82826133f0565b9150506060830151848203606086015261349682826133f0565b915050608083015184820360808601526134b082826133f0565b91505060a083015184820360a08601526134ca82826133f0565b91505060c08301516134df60c0860182613429565b5060e083015184820360e08601526134f782826133f0565b91505061010083015184820361010086015261351382826133f0565b9150508091505092915050565b6000602082019050818103600083015261353a8184613438565b905092915050565b6000806040838503121561355957613558612c38565b5b600061356785828601612eaf565b925050602061357885828601613050565b9150509250929050565b600067ffffffffffffffff82111561359d5761359c612f0e565b5b6135a682612d77565b9050602081019050919050565b60006135c66135c184613582565b612f6e565b9050828152602081018484840111156135e2576135e1612f09565b5b6135ed848285612fba565b509392505050565b600082601f83011261360a57613609612f04565b5b813561361a8482602086016135b3565b91505092915050565b6000806000806080858703121561363d5761363c612c38565b5b600061364b87828801612eaf565b945050602061365c87828801612eaf565b935050604061366d87828801612dfa565b925050606085013567ffffffffffffffff81111561368e5761368d612c3d565b5b61369a878288016135f5565b91505092959194509250565b600081519050919050565b600082825260208201905092915050565b6000819050602082019050919050565b6000610120830160008301516136eb600086018261328b565b5060208301516136fe60208601826133d0565b506040830151848203604086015261371682826133f0565b9150506060830151848203606086015261373082826133f0565b9150506080830151848203608086015261374a82826133f0565b91505060a083015184820360a086015261376482826133f0565b91505060c083015161377960c0860182613429565b5060e083015184820360e086015261379182826133f0565b9150506101008301518482036101008601526137ad82826133f0565b9150508091505092915050565b60006137c683836136d2565b905092915050565b6000602082019050919050565b60006137e6826136a6565b6137f081856136b1565b935083602082028501613802856136c2565b8060005b8581101561383e578484038952815161381f85826137ba565b945061382a836137ce565b925060208a01995050600181019050613806565b50829750879550505050505092915050565b6000602082019050818103600083015261386a81846137db565b905092915050565b6000806040838503121561388957613888612c38565b5b600061389785828601612eaf565b92505060206138a885828601612eaf565b9150509250929050565b600080fd5b600080fd5b600061012082840312156138d3576138d26138b2565b5b6138de610120612f6e565b905060006138ee84828501612dfa565b600083015250602061390284828501613368565b602083015250604082013567ffffffffffffffff811115613926576139256138b7565b5b6139328482850161300b565b604083015250606082013567ffffffffffffffff811115613956576139556138b7565b5b6139628482850161300b565b606083015250608082013567ffffffffffffffff811115613986576139856138b7565b5b6139928482850161300b565b60808301525060a082013567ffffffffffffffff8111156139b6576139b56138b7565b5b6139c28482850161300b565b60a08301525060c06139d684828501613050565b60c08301525060e082013567ffffffffffffffff8111156139fa576139f96138b7565b5b613a068482850161300b565b60e08301525061010082013567ffffffffffffffff811115613a2b57613a2a6138b7565b5b613a378482850161300b565b6101008301525092915050565b60008060008060808587031215613a5e57613a5d612c38565b5b600085013567ffffffffffffffff811115613a7c57613a7b612c3d565b5b613a888782880161300b565b945050602085013567ffffffffffffffff811115613aa957613aa8612c3d565b5b613ab5878288016138bc565b9350506040613ac687828801612eaf565b9250506060613ad787828801613368565b91505092959194509250565b7f4e487b7100000000000000000000000000000000000000000000000000000000600052602260045260246000fd5b60006002820490506001821680613b2a57607f821691505b602082108103613b3d57613b3c613ae3565b5b50919050565b7f4552433732313a20617070726f76616c20746f2063757272656e74206f776e6560008201527f7200000000000000000000000000000000000000000000000000000000000000602082015250565b6000613b9f602183612d3c565b9150613baa82613b43565b604082019050919050565b60006020820190508181036000830152613bce81613b92565b9050919050565b7f4552433732313a20617070726f76652063616c6c6572206973206e6f7420746f60008201527f6b656e206f776e6572206f7220617070726f76656420666f7220616c6c000000602082015250565b6000613c31603d83612d3c565b9150613c3c82613bd5565b604082019050919050565b60006020820190508181036000830152613c6081613c24565b9050919050565b7f4552433732313a2063616c6c6572206973206e6f7420746f6b656e206f776e6560008201527f72206f7220617070726f76656400000000000000000000000000000000000000602082015250565b6000613cc3602d83612d3c565b9150613cce82613c67565b604082019050919050565b60006020820190508181036000830152613cf281613cb6565b9050919050565b7f4552433732313a2061646472657373207a65726f206973206e6f74206120766160008201527f6c6964206f776e65720000000000000000000000000000000000000000000000602082015250565b6000613d55602983612d3c565b9150613d6082613cf9565b604082019050919050565b60006020820190508181036000830152613d8481613d48565b9050919050565b7f4552433732313a20696e76616c696420746f6b656e2049440000000000000000600082015250565b6000613dc1601883612d3c565b9150613dcc82613d8b565b602082019050919050565b60006020820190508181036000830152613df081613db4565b9050919050565b600081905092915050565b6000613e0d82612d31565b613e178185613df7565b9350613e27818560208601612d4d565b80840191505092915050565b6000613e3f8285613e02565b9150613e4b8284613e02565b91508190509392505050565b7f4e487b7100000000000000000000000000000000000000000000000000000000600052603260045260246000fd5b7f4e487b7100000000000000000000000000000000000000000000000000000000600052601160045260246000fd5b6000613ec082612cfd565b91507fffffffffffffffffffffffffffffffffffffffffffffffffffffffffffffffff8203613ef257613ef1613e86565b5b600182019050919050565b7f4f776e61626c653a206e6577206f776e657220697320746865207a65726f206160008201527f6464726573730000000000000000000000000000000000000000000000000000602082015250565b6000613f59602683612d3c565b9150613f6482613efd565b604082019050919050565b60006020820190508181036000830152613f8881613f4c565b9050919050565b7f4552433732313a206d696e7420746f20746865207a65726f2061646472657373600082015250565b6000613fc5602083612d3c565b9150613fd082613f8f565b602082019050919050565b60006020820190508181036000830152613ff481613fb8565b9050919050565b7f4552433732313a20746f6b656e20616c7265616479206d696e74656400000000600082015250565b6000614031601c83612d3c565b915061403c82613ffb565b602082019050919050565b6000602082019050818103600083015261406081614024565b9050919050565b7f45524337323155524953746f726167653a2055524920736574206f66206e6f6e60008201527f6578697374656e7420746f6b656e000000000000000000000000000000000000602082015250565b60006140c3602e83612d3c565b91506140ce82614067565b604082019050919050565b600060208201905081810360008301526140f2816140b6565b9050919050565b60008190508160005260206000209050919050565b60006020601f8301049050919050565b600082821b905092915050565b60006008830261415b7fffffffffffffffffffffffffffffffffffffffffffffffffffffffffffffffff8261411e565b614165868361411e565b95508019841693508086168417925050509392505050565b6000819050919050565b60006141a261419d61419884612cfd565b61417d565b612cfd565b9050919050565b6000819050919050565b6141bc83614187565b6141d06141c8826141a9565b84845461412b565b825550505050565b600090565b6141e56141d8565b6141f08184846141b3565b505050565b5b81811015614214576142096000826141dd565b6001810190506141f6565b5050565b601f8211156142595761422a816140f9565b6142338461410e565b81016020851015614242578190505b61425661424e8561410e565b8301826141f5565b50505b505050565b600082821c905092915050565b600061427c6000198460080261425e565b1980831691505092915050565b6000614295838361426b565b9150826002028217905092915050565b6142ae82612d31565b67ffffffffffffffff8111156142c7576142c6612f0e565b5b6142d18254613b12565b6142dc828285614218565b600060209050601f83116001811461430f57600084156142fd578287015190505b6143078582614289565b86555061436f565b601f19841661431d866140f9565b60005b8281101561434557848901518255600182019150602085019450602081019050614320565b86831015614362578489015161435e601f89168261426b565b8355505b6001600288020188555050505b505050505050565b6143808161333f565b82525050565b60006101008201905061439c600083018b614377565b81810360208301526143ae818a612d88565b905081810360408301526143c28189612d88565b905081810360608301526143d68188612d88565b905081810360808301526143ea8187612d88565b90506143f960a0830186612cd3565b81810360c083015261440b8185612d88565b905081810360e083015261441f8184612d88565b90509998505050505050505050565b7f4552433732313a207472616e736665722066726f6d20696e636f72726563742060008201527f6f776e6572000000000000000000000000000000000000000000000000000000602082015250565b600061448a602583612d3c565b91506144958261442e565b604082019050919050565b600060208201905081810360008301526144b98161447d565b9050919050565b7f4552433732313a207472616e7366657220746f20746865207a65726f2061646460008201527f7265737300000000000000000000000000000000000000000000000000000000602082015250565b600061451c602483612d3c565b9150614527826144c0565b604082019050919050565b6000602082019050818103600083015261454b8161450f565b9050919050565b7f4f776e61626c653a2063616c6c6572206973206e6f7420746865206f776e6572600082015250565b6000614588602083612d3c565b915061459382614552565b602082019050919050565b600060208201905081810360008301526145b78161457b565b9050919050565b7f4552433732313a20617070726f766520746f2063616c6c657200000000000000600082015250565b60006145f4601983612d3c565b91506145ff826145be565b602082019050919050565b60006020820190508181036000830152614623816145e7565b9050919050565b7f4552433732313a207472616e7366657220746f206e6f6e20455243373231526560008201527f63656976657220696d706c656d656e7465720000000000000000000000000000602082015250565b6000614686603283612d3c565b91506146918261462a565b604082019050919050565b600060208201905081810360008301526146b581614679565b9050919050565b600081519050919050565b600082825260208201905092915050565b60006146e3826146bc565b6146ed81856146c7565b93506146fd818560208601612d4d565b61470681612d77565b840191505092915050565b60006080820190506147266000830187612e6e565b6147336020830186612e6e565b6147406040830185612d07565b818103606083015261475281846146d8565b905095945050505050565b60008151905061476c81612c6e565b92915050565b60006020828403121561478857614787612c38565b5b60006147968482850161475d565b91505092915050565b7f4e487b7100000000000000000000000000000000000000000000000000000000600052601260045260246000fdfea2646970667358221220d135879a025613293fd789306b458ab230f6c50d6f7230ac10162e27f8d2e38264736f6c63430008130033",
  "immutableReferences": {},
  "source": "// contracts/MyNFT.sol\r\n// SPDX-License-Identifier: MIT\r\npragma solidity ^0.8.0;\r\n\r\nimport \"@openzeppelin/contracts/token/ERC721/ERC721.sol\";\r\nimport \"@openzeppelin/contracts/utils/Counters.sol\";\r\nimport \"@openzeppelin/contracts/access/Ownable.sol\";\r\nimport \"@openzeppelin/contracts/token/ERC721/extensions/ERC721URIStorage.sol\";\r\n\r\ncontract HappyMaru is ERC721URIStorage, Ownable {\r\n    using Counters for Counters.Counter;\r\n    Counters.Counter private tokenIds;\r\n    Counters.Counter private userIds;\r\n\r\n    struct dogInfo {\r\n        uint256 tokenId;\r\n        address payable owner;\r\n        // \r\n        string name;\r\n        // \r\n        string breed;\r\n        // \r\n        string birthDate;\r\n        //  \r\n        string gender;\r\n        //  \r\n        bool neutraled;\r\n        // \r\n        string description;\r\n        // \r\n        string image;\r\n    }\r\n\r\n    mapping(uint256 => dogInfo) private nfts;\r\n    mapping(address => uint256[]) private dogOwners;\r\n    mapping(uint256 => string) private tokenURIs;\r\n\r\n    event DogInfoCreated(\r\n        uint256 indexed tokenId,\r\n        address payable owner,\r\n        string name,\r\n        string breed,\r\n        string birthDate,\r\n        string gender,\r\n        bool neutraled,\r\n        string description,\r\n        string image\r\n    );\r\n\r\n    constructor() ERC721(\"Happy Maru\", \"HappyMaru's dog INFO \") {\r\n        tokenIds.increment();\r\n        userIds.increment();\r\n    }\r\n\r\n    function setNft(\r\n        uint256 _tokenId,\r\n        dogInfo memory _info,\r\n        string memory tokenURI\r\n    ) private {\r\n        nfts[_tokenId] = _info;\r\n        tokenURIs[_tokenId] = tokenURI;\r\n        emit DogInfoCreated(\r\n            _tokenId,\r\n            payable(msg.sender),\r\n            _info.name,\r\n            _info.breed,\r\n            _info.birthDate,\r\n            _info.gender,\r\n            _info.neutraled,\r\n            _info.description,\r\n            _info.image\r\n        );\r\n    }\r\n\r\n    /// @dev this function mints received NFTs\r\n    /// @param _name name\r\n    /// @param _breed breed\r\n    /// @param _birthDate birthDate\r\n    /// @param _gender gender\r\n    /// @param _neutraled neutraled\r\n    /// @param _description description\r\n    /// @param _image image Url\r\n    /// @param _tokenURI image Url\r\n    /// @return newTokenId of the created NFT\r\n    function createDogInfo(\r\n        string memory _name,\r\n        string memory _breed,\r\n        string memory _birthDate,\r\n        string memory _gender,\r\n        bool _neutraled,\r\n        string memory _description,\r\n        string memory _image,\r\n        string memory _tokenURI\r\n    ) public returns (uint256) {\r\n        uint256 newTokenId = tokenIds.current();\r\n        _mint(msg.sender, newTokenId);\r\n\r\n        _setTokenURI(newTokenId, _tokenURI);\r\n        dogOwners[msg.sender].push(newTokenId);\r\n        dogInfo memory _info = dogInfo(newTokenId, payable(msg.sender), _name, _breed, _birthDate, _gender, _neutraled, _description, _image);\r\n        setNft(\r\n            newTokenId, _info, _tokenURI\r\n        );\r\n        tokenIds.increment();\r\n        return newTokenId;\r\n    }\r\n\r\n    /// @dev fetches NFT that a specific user has created\r\n    /// @return nftStruct[] list of nfts created by a user with their metadata\r\n    function getNfts() public view returns (dogInfo[] memory) {\r\n        uint256 nftCount = tokenIds.current();\r\n        dogInfo[] memory myNfts = new dogInfo[](nftCount);\r\n        uint256 j = 0;\r\n        for (uint256 i = 1; i < nftCount; i++) {\r\n            if (ownerOf(i) == msg.sender) {\r\n                myNfts[j] = nfts[i];\r\n                j++;\r\n            }\r\n        }\r\n        dogInfo[] memory returnMyNFts = new dogInfo[](j);\r\n        for (uint256 i = 0; i < j; i++) {\r\n            returnMyNFts[i] = myNfts[i];\r\n        }\r\n        return returnMyNFts;\r\n    }\r\n\r\n    /// @dev fetches details of a particular NFT magazine subscription\r\n    /// @param _tokenId The token ID of the NFT Magazine\r\n    /// @return nftStruct NFT data of the specific token ID\r\n    function getIndividualNFT(\r\n        uint256 _tokenId\r\n    ) public view returns (dogInfo memory) {\r\n        return nfts[_tokenId];\r\n    }\r\n\r\n    function getNftsByAddress(address owner) public view returns (uint256[] memory) {\r\n        require(owner != address(0), \"ERC721: address zero is not a valid owner\");\r\n        return dogOwners[owner];\r\n    }\r\n\r\n    function sendNft(address from, address payable to, uint256 tokenId) public returns (uint256) {\r\n        safeTransferFrom(from, to, tokenId);\r\n        // owner  \r\n        nfts[tokenId].owner = to;\r\n        return tokenId;\r\n    }\r\n\r\n    function getNftsCount() public view returns (uint256) {\r\n        return tokenIds.current();\r\n    }\r\n\r\n    /// @dev this function mints received NFTs\r\n    /// @param _tokenURI the new token URI\r\n    /// @param _info dogInfo\r\n    /// @return newTokenId of the created NFT\r\n    function createAndSendNft(\r\n        string memory _tokenURI,\r\n        dogInfo memory _info,\r\n        address from, address payable to\r\n    ) public returns (uint256) {\r\n        uint256 newTokenId = tokenIds.current();\r\n        _mint(from, newTokenId);\r\n        _setTokenURI(newTokenId, _tokenURI);\r\n        dogOwners[from].push(newTokenId);\r\n        setNft(\r\n            newTokenId, _info, _tokenURI\r\n        );\r\n        tokenIds.increment();\r\n\r\n        safeTransferFrom(from, to, newTokenId);\r\n        nfts[newTokenId].owner = to;\r\n        return newTokenId;\r\n    }\r\n}\r\n",
  "sourcePath": "C:\\Projects\\happy-maru-smart-contract\\contracts\\HappyMaru.sol",
  "compiler": {
    "name": "solc",
    "version": "0.8.19+commit.7dd6d404.Emscripten.clang"
  },
  "schemaVersion": "3.4.16",
  "updatedAt": "2024-07-19T16:12:18.310Z",
  "networkType": "ethereum",
  "devdoc": {
    "events": {
      "Approval(address,address,uint256)": {
        "details": "Emitted when `owner` enables `approved` to manage the `tokenId` token."
      },
      "ApprovalForAll(address,address,bool)": {
        "details": "Emitted when `owner` enables or disables (`approved`) `operator` to manage all of its assets."
      },
      "BatchMetadataUpdate(uint256,uint256)": {
        "details": "This event emits when the metadata of a range of tokens is changed. So that the third-party platforms such as NFT market could timely update the images and related attributes of the NFTs."
      },
      "MetadataUpdate(uint256)": {
        "details": "This event emits when the metadata of a token is changed. So that the third-party platforms such as NFT market could timely update the images and related attributes of the NFT."
      },
      "Transfer(address,address,uint256)": {
        "details": "Emitted when `tokenId` token is transferred from `from` to `to`."
      }
    },
    "kind": "dev",
    "methods": {
      "approve(address,uint256)": {
        "details": "See {IERC721-approve}."
      },
      "balanceOf(address)": {
        "details": "See {IERC721-balanceOf}."
      },
      "createAndSendNft(string,(uint256,address,string,string,string,string,bool,string,string),address,address)": {
        "details": "this function mints received NFTs",
        "params": {
          "_info": "dogInfo",
          "_tokenURI": "the new token URI"
        },
        "returns": {
          "_0": "newTokenId of the created NFT"
        }
      },
      "createDogInfo(string,string,string,string,bool,string,string,string)": {
        "details": "this function mints received NFTs",
        "params": {
          "_birthDate": "birthDate",
          "_breed": "breed",
          "_description": "description",
          "_gender": "gender",
          "_image": "image Url",
          "_name": "name",
          "_neutraled": "neutraled",
          "_tokenURI": "image Url"
        },
        "returns": {
          "_0": "newTokenId of the created NFT"
        }
      },
      "getApproved(uint256)": {
        "details": "See {IERC721-getApproved}."
      },
      "getIndividualNFT(uint256)": {
        "details": "fetches details of a particular NFT magazine subscription",
        "params": {
          "_tokenId": "The token ID of the NFT Magazine"
        },
        "returns": {
          "_0": "nftStruct NFT data of the specific token ID"
        }
      },
      "getNfts()": {
        "details": "fetches NFT that a specific user has created",
        "returns": {
          "_0": "nftStruct[] list of nfts created by a user with their metadata"
        }
      },
      "isApprovedForAll(address,address)": {
        "details": "See {IERC721-isApprovedForAll}."
      },
      "name()": {
        "details": "See {IERC721Metadata-name}."
      },
      "owner()": {
        "details": "Returns the address of the current owner."
      },
      "ownerOf(uint256)": {
        "details": "See {IERC721-ownerOf}."
      },
      "renounceOwnership()": {
        "details": "Leaves the contract without owner. It will not be possible to call `onlyOwner` functions. Can only be called by the current owner. NOTE: Renouncing ownership will leave the contract without an owner, thereby disabling any functionality that is only available to the owner."
      },
      "safeTransferFrom(address,address,uint256)": {
        "details": "See {IERC721-safeTransferFrom}."
      },
      "safeTransferFrom(address,address,uint256,bytes)": {
        "details": "See {IERC721-safeTransferFrom}."
      },
      "setApprovalForAll(address,bool)": {
        "details": "See {IERC721-setApprovalForAll}."
      },
      "supportsInterface(bytes4)": {
        "details": "See {IERC165-supportsInterface}"
      },
      "symbol()": {
        "details": "See {IERC721Metadata-symbol}."
      },
      "tokenURI(uint256)": {
        "details": "See {IERC721Metadata-tokenURI}."
      },
      "transferFrom(address,address,uint256)": {
        "details": "See {IERC721-transferFrom}."
      },
      "transferOwnership(address)": {
        "details": "Transfers ownership of the contract to a new account (`newOwner`). Can only be called by the current owner."
      }
    },
    "version": 1
  },
  "userdoc": {
    "kind": "user",
    "methods": {},
    "version": 1
  }
}