{
  "contractName": "HappyMaru",
  "abi": [
    {
      "inputs": [],
      "stateMutability": "nonpayable",
      "type": "constructor"
    },
    {
      "anonymous": false,
      "inputs": [
        {
          "indexed": true,
          "internalType": "address",
          "name": "owner",
          "type": "address"
        },
        {
          "indexed": true,
          "internalType": "address",
          "name": "approved",
          "type": "address"
        },
        {
          "indexed": true,
          "internalType": "uint256",
          "name": "tokenId",
          "type": "uint256"
        }
      ],
      "name": "Approval",
      "type": "event"
    },
    {
      "anonymous": false,
      "inputs": [
        {
          "indexed": true,
          "internalType": "address",
          "name": "owner",
          "type": "address"
        },
        {
          "indexed": true,
          "internalType": "address",
          "name": "operator",
          "type": "address"
        },
        {
          "indexed": false,
          "internalType": "bool",
          "name": "approved",
          "type": "bool"
        }
      ],
      "name": "ApprovalForAll",
      "type": "event"
    },
    {
      "anonymous": false,
      "inputs": [
        {
          "indexed": false,
          "internalType": "uint256",
          "name": "_fromTokenId",
          "type": "uint256"
        },
        {
          "indexed": false,
          "internalType": "uint256",
          "name": "_toTokenId",
          "type": "uint256"
        }
      ],
      "name": "BatchMetadataUpdate",
      "type": "event"
    },
    {
      "anonymous": false,
      "inputs": [
        {
          "indexed": true,
          "internalType": "uint256",
          "name": "tokenId",
          "type": "uint256"
        },
        {
          "indexed": false,
          "internalType": "address payable",
          "name": "owner",
          "type": "address"
        },
        {
          "indexed": false,
          "internalType": "string",
          "name": "name",
          "type": "string"
        },
        {
          "indexed": false,
          "internalType": "string",
          "name": "breed",
          "type": "string"
        },
        {
          "indexed": false,
          "internalType": "string",
          "name": "birthDate",
          "type": "string"
        },
        {
          "indexed": false,
          "internalType": "string",
          "name": "gender",
          "type": "string"
        },
        {
          "indexed": false,
          "internalType": "bool",
          "name": "neutraled",
          "type": "bool"
        },
        {
          "indexed": false,
          "internalType": "string",
          "name": "description",
          "type": "string"
        },
        {
          "indexed": false,
          "internalType": "string",
          "name": "image",
          "type": "string"
        },
        {
          "indexed": false,
          "internalType": "string[]",
          "name": "noseData",
          "type": "string[]"
        }
      ],
      "name": "DogInfoCreated",
      "type": "event"
    },
    {
      "anonymous": false,
      "inputs": [
        {
          "indexed": false,
          "internalType": "uint256",
          "name": "_tokenId",
          "type": "uint256"
        }
      ],
      "name": "MetadataUpdate",
      "type": "event"
    },
    {
      "anonymous": false,
      "inputs": [
        {
          "indexed": true,
          "internalType": "address",
          "name": "previousOwner",
          "type": "address"
        },
        {
          "indexed": true,
          "internalType": "address",
          "name": "newOwner",
          "type": "address"
        }
      ],
      "name": "OwnershipTransferred",
      "type": "event"
    },
    {
      "anonymous": false,
      "inputs": [
        {
          "indexed": true,
          "internalType": "address",
          "name": "from",
          "type": "address"
        },
        {
          "indexed": true,
          "internalType": "address",
          "name": "to",
          "type": "address"
        },
        {
          "indexed": true,
          "internalType": "uint256",
          "name": "tokenId",
          "type": "uint256"
        }
      ],
      "name": "Transfer",
      "type": "event"
    },
    {
      "inputs": [
        {
          "internalType": "address",
          "name": "to",
          "type": "address"
        },
        {
          "internalType": "uint256",
          "name": "tokenId",
          "type": "uint256"
        }
      ],
      "name": "approve",
      "outputs": [],
      "stateMutability": "nonpayable",
      "type": "function"
    },
    {
      "inputs": [
        {
          "internalType": "address",
          "name": "owner",
          "type": "address"
        }
      ],
      "name": "balanceOf",
      "outputs": [
        {
          "internalType": "uint256",
          "name": "",
          "type": "uint256"
        }
      ],
      "stateMutability": "view",
      "type": "function",
      "constant": true
    },
    {
      "inputs": [
        {
          "internalType": "uint256",
          "name": "tokenId",
          "type": "uint256"
        }
      ],
      "name": "getApproved",
      "outputs": [
        {
          "internalType": "address",
          "name": "",
          "type": "address"
        }
      ],
      "stateMutability": "view",
      "type": "function",
      "constant": true
    },
    {
      "inputs": [
        {
          "internalType": "address",
          "name": "owner",
          "type": "address"
        },
        {
          "internalType": "address",
          "name": "operator",
          "type": "address"
        }
      ],
      "name": "isApprovedForAll",
      "outputs": [
        {
          "internalType": "bool",
          "name": "",
          "type": "bool"
        }
      ],
      "stateMutability": "view",
      "type": "function",
      "constant": true
    },
    {
      "inputs": [],
      "name": "name",
      "outputs": [
        {
          "internalType": "string",
          "name": "",
          "type": "string"
        }
      ],
      "stateMutability": "view",
      "type": "function",
      "constant": true
    },
    {
      "inputs": [],
      "name": "owner",
      "outputs": [
        {
          "internalType": "address",
          "name": "",
          "type": "address"
        }
      ],
      "stateMutability": "view",
      "type": "function",
      "constant": true
    },
    {
      "inputs": [
        {
          "internalType": "uint256",
          "name": "tokenId",
          "type": "uint256"
        }
      ],
      "name": "ownerOf",
      "outputs": [
        {
          "internalType": "address",
          "name": "",
          "type": "address"
        }
      ],
      "stateMutability": "view",
      "type": "function",
      "constant": true
    },
    {
      "inputs": [],
      "name": "renounceOwnership",
      "outputs": [],
      "stateMutability": "nonpayable",
      "type": "function"
    },
    {
      "inputs": [
        {
          "internalType": "address",
          "name": "from",
          "type": "address"
        },
        {
          "internalType": "address",
          "name": "to",
          "type": "address"
        },
        {
          "internalType": "uint256",
          "name": "tokenId",
          "type": "uint256"
        }
      ],
      "name": "safeTransferFrom",
      "outputs": [],
      "stateMutability": "nonpayable",
      "type": "function"
    },
    {
      "inputs": [
        {
          "internalType": "address",
          "name": "from",
          "type": "address"
        },
        {
          "internalType": "address",
          "name": "to",
          "type": "address"
        },
        {
          "internalType": "uint256",
          "name": "tokenId",
          "type": "uint256"
        },
        {
          "internalType": "bytes",
          "name": "data",
          "type": "bytes"
        }
      ],
      "name": "safeTransferFrom",
      "outputs": [],
      "stateMutability": "nonpayable",
      "type": "function"
    },
    {
      "inputs": [
        {
          "internalType": "address",
          "name": "operator",
          "type": "address"
        },
        {
          "internalType": "bool",
          "name": "approved",
          "type": "bool"
        }
      ],
      "name": "setApprovalForAll",
      "outputs": [],
      "stateMutability": "nonpayable",
      "type": "function"
    },
    {
      "inputs": [
        {
          "internalType": "bytes4",
          "name": "interfaceId",
          "type": "bytes4"
        }
      ],
      "name": "supportsInterface",
      "outputs": [
        {
          "internalType": "bool",
          "name": "",
          "type": "bool"
        }
      ],
      "stateMutability": "view",
      "type": "function",
      "constant": true
    },
    {
      "inputs": [],
      "name": "symbol",
      "outputs": [
        {
          "internalType": "string",
          "name": "",
          "type": "string"
        }
      ],
      "stateMutability": "view",
      "type": "function",
      "constant": true
    },
    {
      "inputs": [
        {
          "internalType": "uint256",
          "name": "tokenId",
          "type": "uint256"
        }
      ],
      "name": "tokenURI",
      "outputs": [
        {
          "internalType": "string",
          "name": "",
          "type": "string"
        }
      ],
      "stateMutability": "view",
      "type": "function",
      "constant": true
    },
    {
      "inputs": [
        {
          "internalType": "address",
          "name": "from",
          "type": "address"
        },
        {
          "internalType": "address",
          "name": "to",
          "type": "address"
        },
        {
          "internalType": "uint256",
          "name": "tokenId",
          "type": "uint256"
        }
      ],
      "name": "transferFrom",
      "outputs": [],
      "stateMutability": "nonpayable",
      "type": "function"
    },
    {
      "inputs": [
        {
          "internalType": "address",
          "name": "newOwner",
          "type": "address"
        }
      ],
      "name": "transferOwnership",
      "outputs": [],
      "stateMutability": "nonpayable",
      "type": "function"
    },
    {
      "inputs": [
        {
          "internalType": "address",
          "name": "_to",
          "type": "address"
        },
        {
          "internalType": "string",
          "name": "_name",
          "type": "string"
        },
        {
          "internalType": "string",
          "name": "_breed",
          "type": "string"
        },
        {
          "internalType": "string",
          "name": "_birthDate",
          "type": "string"
        },
        {
          "internalType": "string",
          "name": "_gender",
          "type": "string"
        },
        {
          "internalType": "bool",
          "name": "_neutraled",
          "type": "bool"
        },
        {
          "internalType": "string",
          "name": "_description",
          "type": "string"
        },
        {
          "internalType": "string",
          "name": "_image",
          "type": "string"
        },
        {
          "internalType": "string[]",
          "name": "_noseData",
          "type": "string[]"
        },
        {
          "internalType": "string",
          "name": "_tokenURI",
          "type": "string"
        }
      ],
      "name": "createDogInfo",
      "outputs": [
        {
          "internalType": "uint256",
          "name": "",
          "type": "uint256"
        }
      ],
      "stateMutability": "nonpayable",
      "type": "function"
    },
    {
      "inputs": [
        {
          "internalType": "address",
          "name": "_owner",
          "type": "address"
        }
      ],
      "name": "getNfts",
      "outputs": [
        {
          "components": [
            {
              "internalType": "uint256",
              "name": "tokenId",
              "type": "uint256"
            },
            {
              "internalType": "address payable",
              "name": "owner",
              "type": "address"
            },
            {
              "internalType": "string",
              "name": "name",
              "type": "string"
            },
            {
              "internalType": "string",
              "name": "breed",
              "type": "string"
            },
            {
              "internalType": "string",
              "name": "birthDate",
              "type": "string"
            },
            {
              "internalType": "string",
              "name": "gender",
              "type": "string"
            },
            {
              "internalType": "bool",
              "name": "neutraled",
              "type": "bool"
            },
            {
              "internalType": "string",
              "name": "description",
              "type": "string"
            },
            {
              "internalType": "string",
              "name": "image",
              "type": "string"
            },
            {
              "internalType": "string[]",
              "name": "noseData",
              "type": "string[]"
            }
          ],
          "internalType": "struct HappyMaru.dogInfo[]",
          "name": "",
          "type": "tuple[]"
        }
      ],
      "stateMutability": "view",
      "type": "function",
      "constant": true
    },
    {
      "inputs": [
        {
          "internalType": "uint256",
          "name": "_tokenId",
          "type": "uint256"
        }
      ],
      "name": "getDogInfo",
      "outputs": [
        {
          "components": [
            {
              "internalType": "uint256",
              "name": "tokenId",
              "type": "uint256"
            },
            {
              "internalType": "address payable",
              "name": "owner",
              "type": "address"
            },
            {
              "internalType": "string",
              "name": "name",
              "type": "string"
            },
            {
              "internalType": "string",
              "name": "breed",
              "type": "string"
            },
            {
              "internalType": "string",
              "name": "birthDate",
              "type": "string"
            },
            {
              "internalType": "string",
              "name": "gender",
              "type": "string"
            },
            {
              "internalType": "bool",
              "name": "neutraled",
              "type": "bool"
            },
            {
              "internalType": "string",
              "name": "description",
              "type": "string"
            },
            {
              "internalType": "string",
              "name": "image",
              "type": "string"
            },
            {
              "internalType": "string[]",
              "name": "noseData",
              "type": "string[]"
            }
          ],
          "internalType": "struct HappyMaru.dogInfo",
          "name": "",
          "type": "tuple"
        }
      ],
      "stateMutability": "view",
      "type": "function",
      "constant": true
    },
    {
      "inputs": [
        {
          "internalType": "address",
          "name": "owner",
          "type": "address"
        }
      ],
      "name": "getNftsByAddress",
      "outputs": [
        {
          "internalType": "uint256[]",
          "name": "",
          "type": "uint256[]"
        }
      ],
      "stateMutability": "view",
      "type": "function",
      "constant": true
    },
    {
      "inputs": [
        {
          "internalType": "address",
          "name": "from",
          "type": "address"
        },
        {
          "internalType": "address payable",
          "name": "to",
          "type": "address"
        },
        {
          "internalType": "uint256",
          "name": "tokenId",
          "type": "uint256"
        }
      ],
      "name": "sendNft",
      "outputs": [
        {
          "internalType": "uint256",
          "name": "",
          "type": "uint256"
        }
      ],
      "stateMutability": "nonpayable",
      "type": "function"
    },
    {
      "inputs": [],
      "name": "getNftsCount",
      "outputs": [
        {
          "internalType": "uint256",
          "name": "",
          "type": "uint256"
        }
      ],
      "stateMutability": "view",
      "type": "function",
      "constant": true
    }
  ],
  "bytecode": "0x60806040523480156200001157600080fd5b506040518060400160405280600a81526020017f4861707079204d617275000000000000000000000000000000000000000000008152506040518060400160405280601581526020017f48617070794d617275277320646f6720494e464f20000000000000000000000081525081600090816200008f919062000412565b508060019081620000a1919062000412565b505050620000c4620000b8620000ca60201b60201c565b620000d260201b60201c565b620004f9565b600033905090565b6000600760009054906101000a900473ffffffffffffffffffffffffffffffffffffffff16905081600760006101000a81548173ffffffffffffffffffffffffffffffffffffffff021916908373ffffffffffffffffffffffffffffffffffffffff1602179055508173ffffffffffffffffffffffffffffffffffffffff168173ffffffffffffffffffffffffffffffffffffffff167f8be0079c531659141344cd1fd0a4f28419497f9722a3daafe3b4186f6b6457e060405160405180910390a35050565b600081519050919050565b7f4e487b7100000000000000000000000000000000000000000000000000000000600052604160045260246000fd5b7f4e487b7100000000000000000000000000000000000000000000000000000000600052602260045260246000fd5b600060028204905060018216806200021a57607f821691505b60208210810362000230576200022f620001d2565b5b50919050565b60008190508160005260206000209050919050565b60006020601f8301049050919050565b600082821b905092915050565b6000600883026200029a7fffffffffffffffffffffffffffffffffffffffffffffffffffffffffffffffff826200025b565b620002a686836200025b565b95508019841693508086168417925050509392505050565b6000819050919050565b6000819050919050565b6000620002f3620002ed620002e784620002be565b620002c8565b620002be565b9050919050565b6000819050919050565b6200030f83620002d2565b620003276200031e82620002fa565b84845462000268565b825550505050565b600090565b6200033e6200032f565b6200034b81848462000304565b505050565b5b8181101562000373576200036760008262000334565b60018101905062000351565b5050565b601f821115620003c2576200038c8162000236565b62000397846200024b565b81016020851015620003a7578190505b620003bf620003b6856200024b565b83018262000350565b50505b505050565b600082821c905092915050565b6000620003e760001984600802620003c7565b1980831691505092915050565b6000620004028383620003d4565b9150826002028217905092915050565b6200041d8262000198565b67ffffffffffffffff811115620004395762000438620001a3565b5b62000445825462000201565b6200045282828562000377565b600060209050601f8311600181146200048a576000841562000475578287015190505b620004818582620003f4565b865550620004f1565b601f1984166200049a8662000236565b60005b82811015620004c4578489015182556001820191506020850194506020810190506200049d565b86831015620004e45784890151620004e0601f891682620003d4565b8355505b6001600288020188555050505b505050505050565b6149c280620005096000396000f3fe608060405234801561001057600080fd5b50600436106101425760003560e01c806355c4bd4b116100b857806395d89b411161007c57806395d89b41146103af578063a22cb465146103cd578063b88d4fde146103e9578063c87b56dd14610405578063e985e9c514610435578063f2fde38b1461046557610142565b806355c4bd4b146102f75780636352211e1461032757806370a0823114610357578063715018a6146103875780638da5cb5b1461039157610142565b806323b872dd1161010a57806323b872dd146101ff578063362f5fb21461021b5780633a66dd361461024b57806342842e0e1461027b57806344cc2afe146102975780634d81c77d146102c757610142565b806301ffc9a71461014757806305ed9a671461017757806306fdde0314610195578063081812fc146101b3578063095ea7b3146101e3575b600080fd5b610161600480360381019061015c9190612dc8565b610481565b60405161016e9190612e10565b60405180910390f35b61017f6104e2565b60405161018c9190612e44565b60405180910390f35b61019d6104f3565b6040516101aa9190612eef565b60405180910390f35b6101cd60048036038101906101c89190612f3d565b610585565b6040516101da9190612fab565b60405180910390f35b6101fd60048036038101906101f89190612ff2565b6105cb565b005b61021960048036038101906102149190613032565b6106e2565b005b61023560048036038101906102309190612f3d565b610742565b60405161024291906132d4565b60405180910390f35b610265600480360381019061026091906132f6565b610c30565b60405161027291906133d2565b60405180910390f35b61029560048036038101906102909190613032565b610d36565b005b6102b160048036038101906102ac91906132f6565b610d56565b6040516102be91906135ba565b60405180910390f35b6102e160048036038101906102dc9190613608565b611384565b6040516102ee9190612e44565b60405180910390f35b610311600480360381019061030c91906138a2565b6113f0565b60405161031e9190612e44565b60405180910390f35b610341600480360381019061033c9190612f3d565b611503565b60405161034e9190612fab565b60405180910390f35b610371600480360381019061036c91906132f6565b611589565b60405161037e9190612e44565b60405180910390f35b61038f611640565b005b610399611654565b6040516103a69190612fab565b60405180910390f35b6103b761167e565b6040516103c49190612eef565b60405180910390f35b6103e760048036038101906103e29190613a61565b611710565b005b61040360048036038101906103fe9190613b42565b611726565b005b61041f600480360381019061041a9190612f3d565b611788565b60405161042c9190612eef565b60405180910390f35b61044f600480360381019061044a9190613bc5565b61189a565b60405161045c9190612e10565b60405180910390f35b61047f600480360381019061047a91906132f6565b61192e565b005b6000634906490660e01b7bffffffffffffffffffffffffffffffffffffffffffffffffffffffff1916827bffffffffffffffffffffffffffffffffffffffffffffffffffffffff191614806104db57506104da826119b1565b5b9050919050565b60006104ee6008611a93565b905090565b60606000805461050290613c34565b80601f016020809104026020016040519081016040528092919081815260200182805461052e90613c34565b801561057b5780601f106105505761010080835404028352916020019161057b565b820191906000526020600020905b81548152906001019060200180831161055e57829003601f168201915b5050505050905090565b600061059082611aa1565b6004600083815260200190815260200160002060009054906101000a900473ffffffffffffffffffffffffffffffffffffffff169050919050565b60006105d682611503565b90508073ffffffffffffffffffffffffffffffffffffffff168373ffffffffffffffffffffffffffffffffffffffff1603610646576040517f08c379a000000000000000000000000000000000000000000000000000000000815260040161063d90613cd7565b60405180910390fd5b8073ffffffffffffffffffffffffffffffffffffffff16610665611aec565b73ffffffffffffffffffffffffffffffffffffffff16148061069457506106938161068e611aec565b61189a565b5b6106d3576040517f08c379a00000000000000000000000000000000000000000000000000000000081526004016106ca90613d69565b60405180910390fd5b6106dd8383611af4565b505050565b6106f36106ed611aec565b82611bad565b610732576040517f08c379a000000000000000000000000000000000000000000000000000000000815260040161072990613dfb565b60405180910390fd5b61073d838383611c42565b505050565b61074a612c17565b600a600083815260200190815260200160002060405180610140016040529081600082015481526020016001820160009054906101000a900473ffffffffffffffffffffffffffffffffffffffff1673ffffffffffffffffffffffffffffffffffffffff1673ffffffffffffffffffffffffffffffffffffffff1681526020016002820180546107d990613c34565b80601f016020809104026020016040519081016040528092919081815260200182805461080590613c34565b80156108525780601f1061082757610100808354040283529160200191610852565b820191906000526020600020905b81548152906001019060200180831161083557829003601f168201915b5050505050815260200160038201805461086b90613c34565b80601f016020809104026020016040519081016040528092919081815260200182805461089790613c34565b80156108e45780601f106108b9576101008083540402835291602001916108e4565b820191906000526020600020905b8154815290600101906020018083116108c757829003601f168201915b505050505081526020016004820180546108fd90613c34565b80601f016020809104026020016040519081016040528092919081815260200182805461092990613c34565b80156109765780601f1061094b57610100808354040283529160200191610976565b820191906000526020600020905b81548152906001019060200180831161095957829003601f168201915b5050505050815260200160058201805461098f90613c34565b80601f01602080910402602001604051908101604052809291908181526020018280546109bb90613c34565b8015610a085780601f106109dd57610100808354040283529160200191610a08565b820191906000526020600020905b8154815290600101906020018083116109eb57829003601f168201915b505050505081526020016006820160009054906101000a900460ff16151515158152602001600782018054610a3c90613c34565b80601f0160208091040260200160405190810160405280929190818152602001828054610a6890613c34565b8015610ab55780601f10610a8a57610100808354040283529160200191610ab5565b820191906000526020600020905b815481529060010190602001808311610a9857829003601f168201915b50505050508152602001600882018054610ace90613c34565b80601f0160208091040260200160405190810160405280929190818152602001828054610afa90613c34565b8015610b475780601f10610b1c57610100808354040283529160200191610b47565b820191906000526020600020905b815481529060010190602001808311610b2a57829003601f168201915b5050505050815260200160098201805480602002602001604051908101604052809291908181526020016000905b82821015610c21578382906000526020600020018054610b9490613c34565b80601f0160208091040260200160405190810160405280929190818152602001828054610bc090613c34565b8015610c0d5780601f10610be257610100808354040283529160200191610c0d565b820191906000526020600020905b815481529060010190602001808311610bf057829003601f168201915b505050505081526020019060010190610b75565b50505050815250509050919050565b6060600073ffffffffffffffffffffffffffffffffffffffff168273ffffffffffffffffffffffffffffffffffffffff1603610ca1576040517f08c379a0000000000000000000000000000000000000000000000000000000008152600401610c9890613e8d565b60405180910390fd5b600b60008373ffffffffffffffffffffffffffffffffffffffff1673ffffffffffffffffffffffffffffffffffffffff168152602001908152602001600020805480602002602001604051908101604052809291908181526020018280548015610d2a57602002820191906000526020600020905b815481526020019060010190808311610d16575b50505050509050919050565b610d5183838360405180602001604052806000815250611726565b505050565b60606000600b60008473ffffffffffffffffffffffffffffffffffffffff1673ffffffffffffffffffffffffffffffffffffffff168152602001908152602001600020805480602002602001604051908101604052809291908181526020018280548015610de357602002820191906000526020600020905b815481526020019060010190808311610dcf575b505050505090506000815167ffffffffffffffff811115610e0757610e06613665565b5b604051908082528060200260200182016040528015610e4057816020015b610e2d612c17565b815260200190600190039081610e255790505b50905060005b825181101561137957600a6000848381518110610e6657610e65613ead565b5b6020026020010151815260200190815260200160002060405180610140016040529081600082015481526020016001820160009054906101000a900473ffffffffffffffffffffffffffffffffffffffff1673ffffffffffffffffffffffffffffffffffffffff1673ffffffffffffffffffffffffffffffffffffffff168152602001600282018054610ef890613c34565b80601f0160208091040260200160405190810160405280929190818152602001828054610f2490613c34565b8015610f715780601f10610f4657610100808354040283529160200191610f71565b820191906000526020600020905b815481529060010190602001808311610f5457829003601f168201915b50505050508152602001600382018054610f8a90613c34565b80601f0160208091040260200160405190810160405280929190818152602001828054610fb690613c34565b80156110035780601f10610fd857610100808354040283529160200191611003565b820191906000526020600020905b815481529060010190602001808311610fe657829003601f168201915b5050505050815260200160048201805461101c90613c34565b80601f016020809104026020016040519081016040528092919081815260200182805461104890613c34565b80156110955780601f1061106a57610100808354040283529160200191611095565b820191906000526020600020905b81548152906001019060200180831161107857829003601f168201915b505050505081526020016005820180546110ae90613c34565b80601f01602080910402602001604051908101604052809291908181526020018280546110da90613c34565b80156111275780601f106110fc57610100808354040283529160200191611127565b820191906000526020600020905b81548152906001019060200180831161110a57829003601f168201915b505050505081526020016006820160009054906101000a900460ff1615151515815260200160078201805461115b90613c34565b80601f016020809104026020016040519081016040528092919081815260200182805461118790613c34565b80156111d45780601f106111a9576101008083540402835291602001916111d4565b820191906000526020600020905b8154815290600101906020018083116111b757829003601f168201915b505050505081526020016008820180546111ed90613c34565b80601f016020809104026020016040519081016040528092919081815260200182805461121990613c34565b80156112665780601f1061123b57610100808354040283529160200191611266565b820191906000526020600020905b81548152906001019060200180831161124957829003601f168201915b5050505050815260200160098201805480602002602001604051908101604052809291908181526020016000905b828210156113405783829060005260206000200180546112b390613c34565b80601f01602080910402602001604051908101604052809291908181526020018280546112df90613c34565b801561132c5780601f106113015761010080835404028352916020019161132c565b820191906000526020600020905b81548152906001019060200180831161130f57829003601f168201915b505050505081526020019060010190611294565b505050508152505082828151811061135b5761135a613ead565b5b6020026020010181905250808061137190613f0b565b915050610e46565b508092505050919050565b6000611391848484610d36565b82600a600084815260200190815260200160002060010160006101000a81548173ffffffffffffffffffffffffffffffffffffffff021916908373ffffffffffffffffffffffffffffffffffffffff1602179055508190509392505050565b6000806113fd6008611a93565b90506114098c82611f3b565b6114138184612158565b600b60008d73ffffffffffffffffffffffffffffffffffffffff1673ffffffffffffffffffffffffffffffffffffffff16815260200190815260200160002081908060018154018082558091505060019003906000526020600020016000909190919091505560006040518061014001604052808381526020018e73ffffffffffffffffffffffffffffffffffffffff1681526020018d81526020018c81526020018b81526020018a815260200189151581526020018881526020018781526020018681525090506114e68282866121fc565b6114f060086123b7565b81925050509a9950505050505050505050565b60008061150f836123cd565b9050600073ffffffffffffffffffffffffffffffffffffffff168173ffffffffffffffffffffffffffffffffffffffff1603611580576040517f08c379a000000000000000000000000000000000000000000000000000000000815260040161157790613f9f565b60405180910390fd5b80915050919050565b60008073ffffffffffffffffffffffffffffffffffffffff168273ffffffffffffffffffffffffffffffffffffffff16036115f9576040517f08c379a00000000000000000000000000000000000000000000000000000000081526004016115f090613e8d565b60405180910390fd5b600360008373ffffffffffffffffffffffffffffffffffffffff1673ffffffffffffffffffffffffffffffffffffffff168152602001908152602001600020549050919050565b61164861240a565b6116526000612488565b565b6000600760009054906101000a900473ffffffffffffffffffffffffffffffffffffffff16905090565b60606001805461168d90613c34565b80601f01602080910402602001604051908101604052809291908181526020018280546116b990613c34565b80156117065780601f106116db57610100808354040283529160200191611706565b820191906000526020600020905b8154815290600101906020018083116116e957829003601f168201915b5050505050905090565b61172261171b611aec565b838361254e565b5050565b611737611731611aec565b83611bad565b611776576040517f08c379a000000000000000000000000000000000000000000000000000000000815260040161176d90613dfb565b60405180910390fd5b611782848484846126ba565b50505050565b606061179382611aa1565b60006006600084815260200190815260200160002080546117b390613c34565b80601f01602080910402602001604051908101604052809291908181526020018280546117df90613c34565b801561182c5780601f106118015761010080835404028352916020019161182c565b820191906000526020600020905b81548152906001019060200180831161180f57829003601f168201915b50505050509050600061183d612716565b90506000815103611852578192505050611895565b60008251111561188757808260405160200161186f929190613ffb565b60405160208183030381529060405292505050611895565b6118908461272d565b925050505b919050565b6000600560008473ffffffffffffffffffffffffffffffffffffffff1673ffffffffffffffffffffffffffffffffffffffff16815260200190815260200160002060008373ffffffffffffffffffffffffffffffffffffffff1673ffffffffffffffffffffffffffffffffffffffff16815260200190815260200160002060009054906101000a900460ff16905092915050565b61193661240a565b600073ffffffffffffffffffffffffffffffffffffffff168173ffffffffffffffffffffffffffffffffffffffff16036119a5576040517f08c379a000000000000000000000000000000000000000000000000000000000815260040161199c90614091565b60405180910390fd5b6119ae81612488565b50565b60007f80ac58cd000000000000000000000000000000000000000000000000000000007bffffffffffffffffffffffffffffffffffffffffffffffffffffffff1916827bffffffffffffffffffffffffffffffffffffffffffffffffffffffff19161480611a7c57507f5b5e139f000000000000000000000000000000000000000000000000000000007bffffffffffffffffffffffffffffffffffffffffffffffffffffffff1916827bffffffffffffffffffffffffffffffffffffffffffffffffffffffff1916145b80611a8c5750611a8b82612795565b5b9050919050565b600081600001549050919050565b611aaa816127ff565b611ae9576040517f08c379a0000000000000000000000000000000000000000000000000000000008152600401611ae090613f9f565b60405180910390fd5b50565b600033905090565b816004600083815260200190815260200160002060006101000a81548173ffffffffffffffffffffffffffffffffffffffff021916908373ffffffffffffffffffffffffffffffffffffffff160217905550808273ffffffffffffffffffffffffffffffffffffffff16611b6783611503565b73ffffffffffffffffffffffffffffffffffffffff167f8c5be1e5ebec7d5bd14f71427d1e84f3dd0314c0f7b2291e5b200ac8c7c3b92560405160405180910390a45050565b600080611bb983611503565b90508073ffffffffffffffffffffffffffffffffffffffff168473ffffffffffffffffffffffffffffffffffffffff161480611bfb5750611bfa818561189a565b5b80611c3957508373ffffffffffffffffffffffffffffffffffffffff16611c2184610585565b73ffffffffffffffffffffffffffffffffffffffff16145b91505092915050565b8273ffffffffffffffffffffffffffffffffffffffff16611c6282611503565b73ffffffffffffffffffffffffffffffffffffffff1614611cb8576040517f08c379a0000000000000000000000000000000000000000000000000000000008152600401611caf90614123565b60405180910390fd5b600073ffffffffffffffffffffffffffffffffffffffff168273ffffffffffffffffffffffffffffffffffffffff1603611d27576040517f08c379a0000000000000000000000000000000000000000000000000000000008152600401611d1e906141b5565b60405180910390fd5b611d348383836001612840565b8273ffffffffffffffffffffffffffffffffffffffff16611d5482611503565b73ffffffffffffffffffffffffffffffffffffffff1614611daa576040517f08c379a0000000000000000000000000000000000000000000000000000000008152600401611da190614123565b60405180910390fd5b6004600082815260200190815260200160002060006101000a81549073ffffffffffffffffffffffffffffffffffffffff02191690556001600360008573ffffffffffffffffffffffffffffffffffffffff1673ffffffffffffffffffffffffffffffffffffffff168152602001908152602001600020600082825403925050819055506001600360008473ffffffffffffffffffffffffffffffffffffffff1673ffffffffffffffffffffffffffffffffffffffff16815260200190815260200160002060008282540192505081905550816002600083815260200190815260200160002060006101000a81548173ffffffffffffffffffffffffffffffffffffffff021916908373ffffffffffffffffffffffffffffffffffffffff160217905550808273ffffffffffffffffffffffffffffffffffffffff168473ffffffffffffffffffffffffffffffffffffffff167fddf252ad1be2c89b69c2b068fc378daa952ba7f163c4a11628f55a4df523b3ef60405160405180910390a4611f368383836001612846565b505050565b600073ffffffffffffffffffffffffffffffffffffffff168273ffffffffffffffffffffffffffffffffffffffff1603611faa576040517f08c379a0000000000000000000000000000000000000000000000000000000008152600401611fa190614221565b60405180910390fd5b611fb3816127ff565b15611ff3576040517f08c379a0000000000000000000000000000000000000000000000000000000008152600401611fea9061428d565b60405180910390fd5b612001600083836001612840565b61200a816127ff565b1561204a576040517f08c379a00000000000000000000000000000000000000000000000000000000081526004016120419061428d565b60405180910390fd5b6001600360008473ffffffffffffffffffffffffffffffffffffffff1673ffffffffffffffffffffffffffffffffffffffff16815260200190815260200160002060008282540192505081905550816002600083815260200190815260200160002060006101000a81548173ffffffffffffffffffffffffffffffffffffffff021916908373ffffffffffffffffffffffffffffffffffffffff160217905550808273ffffffffffffffffffffffffffffffffffffffff16600073ffffffffffffffffffffffffffffffffffffffff167fddf252ad1be2c89b69c2b068fc378daa952ba7f163c4a11628f55a4df523b3ef60405160405180910390a4612154600083836001612846565b5050565b612161826127ff565b6121a0576040517f08c379a00000000000000000000000000000000000000000000000000000000081526004016121979061431f565b60405180910390fd5b806006600084815260200190815260200160002090816121c091906144eb565b507ff8e1a15aba9398e019f0b49df1a4fde98ee17ae345cb5f6b5e2c27f5033e8ce7826040516121f09190612e44565b60405180910390a15050565b81600a60008581526020019081526020016000206000820151816000015560208201518160010160006101000a81548173ffffffffffffffffffffffffffffffffffffffff021916908373ffffffffffffffffffffffffffffffffffffffff160217905550604082015181600201908161227691906144eb565b50606082015181600301908161228c91906144eb565b5060808201518160040190816122a291906144eb565b5060a08201518160050190816122b891906144eb565b5060c08201518160060160006101000a81548160ff02191690831515021790555060e08201518160070190816122ee91906144eb565b5061010082015181600801908161230591906144eb565b50610120820151816009019080519060200190612323929190612c82565b5090505080600c6000858152602001908152602001600020908161234791906144eb565b50827fab85fdc0254be39f261931b7e870ff87a8df8647394623162c23637344e2feb1338460400151856060015186608001518760a001518860c001518960e001518a61010001518b61012001516040516123aa99989796959493929190614652565b60405180910390a2505050565b6001816000016000828254019250508190555050565b60006002600083815260200190815260200160002060009054906101000a900473ffffffffffffffffffffffffffffffffffffffff169050919050565b612412611aec565b73ffffffffffffffffffffffffffffffffffffffff16612430611654565b73ffffffffffffffffffffffffffffffffffffffff1614612486576040517f08c379a000000000000000000000000000000000000000000000000000000000815260040161247d9061475c565b60405180910390fd5b565b6000600760009054906101000a900473ffffffffffffffffffffffffffffffffffffffff16905081600760006101000a81548173ffffffffffffffffffffffffffffffffffffffff021916908373ffffffffffffffffffffffffffffffffffffffff1602179055508173ffffffffffffffffffffffffffffffffffffffff168173ffffffffffffffffffffffffffffffffffffffff167f8be0079c531659141344cd1fd0a4f28419497f9722a3daafe3b4186f6b6457e060405160405180910390a35050565b8173ffffffffffffffffffffffffffffffffffffffff168373ffffffffffffffffffffffffffffffffffffffff16036125bc576040517f08c379a00000000000000000000000000000000000000000000000000000000081526004016125b3906147c8565b60405180910390fd5b80600560008573ffffffffffffffffffffffffffffffffffffffff1673ffffffffffffffffffffffffffffffffffffffff16815260200190815260200160002060008473ffffffffffffffffffffffffffffffffffffffff1673ffffffffffffffffffffffffffffffffffffffff16815260200190815260200160002060006101000a81548160ff0219169083151502179055508173ffffffffffffffffffffffffffffffffffffffff168373ffffffffffffffffffffffffffffffffffffffff167f17307eab39ab6107e8899845ad3d59bd9653f200f220920489ca2b5937696c31836040516126ad9190612e10565b60405180910390a3505050565b6126c5848484611c42565b6126d18484848461284c565b612710576040517f08c379a00000000000000000000000000000000000000000000000000000000081526004016127079061485a565b60405180910390fd5b50505050565b606060405180602001604052806000815250905090565b606061273882611aa1565b6000612742612716565b90506000815111612762576040518060200160405280600081525061278d565b8061276c846129d3565b60405160200161277d929190613ffb565b6040516020818303038152906040525b915050919050565b60007f01ffc9a7000000000000000000000000000000000000000000000000000000007bffffffffffffffffffffffffffffffffffffffffffffffffffffffff1916827bffffffffffffffffffffffffffffffffffffffffffffffffffffffff1916149050919050565b60008073ffffffffffffffffffffffffffffffffffffffff16612821836123cd565b73ffffffffffffffffffffffffffffffffffffffff1614159050919050565b50505050565b50505050565b600061286d8473ffffffffffffffffffffffffffffffffffffffff16612aa1565b156129c6578373ffffffffffffffffffffffffffffffffffffffff1663150b7a02612896611aec565b8786866040518563ffffffff1660e01b81526004016128b894939291906148cf565b6020604051808303816000875af19250505080156128f457506040513d601f19601f820116820180604052508101906128f19190614930565b60015b612976573d8060008114612924576040519150601f19603f3d011682016040523d82523d6000602084013e612929565b606091505b50600081510361296e576040517f08c379a00000000000000000000000000000000000000000000000000000000081526004016129659061485a565b60405180910390fd5b805181602001fd5b63150b7a0260e01b7bffffffffffffffffffffffffffffffffffffffffffffffffffffffff1916817bffffffffffffffffffffffffffffffffffffffffffffffffffffffff1916149150506129cb565b600190505b949350505050565b6060600060016129e284612ac4565b01905060008167ffffffffffffffff811115612a0157612a00613665565b5b6040519080825280601f01601f191660200182016040528015612a335781602001600182028036833780820191505090505b509050600082602001820190505b600115612a96578080600190039150507f3031323334353637383961626364656600000000000000000000000000000000600a86061a8153600a8581612a8a57612a8961495d565b5b04945060008503612a41575b819350505050919050565b6000808273ffffffffffffffffffffffffffffffffffffffff163b119050919050565b600080600090507a184f03e93ff9f4daa797ed6e38ed64bf6a1f0100000000000000008310612b22577a184f03e93ff9f4daa797ed6e38ed64bf6a1f0100000000000000008381612b1857612b1761495d565b5b0492506040810190505b6d04ee2d6d415b85acef81000000008310612b5f576d04ee2d6d415b85acef81000000008381612b5557612b5461495d565b5b0492506020810190505b662386f26fc100008310612b8e57662386f26fc100008381612b8457612b8361495d565b5b0492506010810190505b6305f5e1008310612bb7576305f5e1008381612bad57612bac61495d565b5b0492506008810190505b6127108310612bdc576127108381612bd257612bd161495d565b5b0492506004810190505b60648310612bff5760648381612bf557612bf461495d565b5b0492506002810190505b600a8310612c0e576001810190505b80915050919050565b60405180610140016040528060008152602001600073ffffffffffffffffffffffffffffffffffffffff168152602001606081526020016060815260200160608152602001606081526020016000151581526020016060815260200160608152602001606081525090565b828054828255906000526020600020908101928215612cca579160200282015b82811115612cc9578251829081612cb991906144eb565b5091602001919060010190612ca2565b5b509050612cd79190612cdb565b5090565b5b80821115612cfb5760008181612cf29190612cff565b50600101612cdc565b5090565b508054612d0b90613c34565b6000825580601f10612d1d5750612d3c565b601f016020900490600052602060002090810190612d3b9190612d3f565b5b50565b5b80821115612d58576000816000905550600101612d40565b5090565b6000604051905090565b600080fd5b600080fd5b60007fffffffff0000000000000000000000000000000000000000000000000000000082169050919050565b612da581612d70565b8114612db057600080fd5b50565b600081359050612dc281612d9c565b92915050565b600060208284031215612dde57612ddd612d66565b5b6000612dec84828501612db3565b91505092915050565b60008115159050919050565b612e0a81612df5565b82525050565b6000602082019050612e256000830184612e01565b92915050565b6000819050919050565b612e3e81612e2b565b82525050565b6000602082019050612e596000830184612e35565b92915050565b600081519050919050565b600082825260208201905092915050565b60005b83811015612e99578082015181840152602081019050612e7e565b60008484015250505050565b6000601f19601f8301169050919050565b6000612ec182612e5f565b612ecb8185612e6a565b9350612edb818560208601612e7b565b612ee481612ea5565b840191505092915050565b60006020820190508181036000830152612f098184612eb6565b905092915050565b612f1a81612e2b565b8114612f2557600080fd5b50565b600081359050612f3781612f11565b92915050565b600060208284031215612f5357612f52612d66565b5b6000612f6184828501612f28565b91505092915050565b600073ffffffffffffffffffffffffffffffffffffffff82169050919050565b6000612f9582612f6a565b9050919050565b612fa581612f8a565b82525050565b6000602082019050612fc06000830184612f9c565b92915050565b612fcf81612f8a565b8114612fda57600080fd5b50565b600081359050612fec81612fc6565b92915050565b6000806040838503121561300957613008612d66565b5b600061301785828601612fdd565b925050602061302885828601612f28565b9150509250929050565b60008060006060848603121561304b5761304a612d66565b5b600061305986828701612fdd565b935050602061306a86828701612fdd565b925050604061307b86828701612f28565b9150509250925092565b61308e81612e2b565b82525050565b600061309f82612f6a565b9050919050565b6130af81613094565b82525050565b600082825260208201905092915050565b60006130d182612e5f565b6130db81856130b5565b93506130eb818560208601612e7b565b6130f481612ea5565b840191505092915050565b61310881612df5565b82525050565b600081519050919050565b600082825260208201905092915050565b6000819050602082019050919050565b600061314683836130c6565b905092915050565b6000602082019050919050565b60006131668261310e565b6131708185613119565b9350836020820285016131828561312a565b8060005b858110156131be578484038952815161319f858261313a565b94506131aa8361314e565b925060208a01995050600181019050613186565b50829750879550505050505092915050565b6000610140830160008301516131e96000860182613085565b5060208301516131fc60208601826130a6565b506040830151848203604086015261321482826130c6565b9150506060830151848203606086015261322e82826130c6565b9150506080830151848203608086015261324882826130c6565b91505060a083015184820360a086015261326282826130c6565b91505060c083015161327760c08601826130ff565b5060e083015184820360e086015261328f82826130c6565b9150506101008301518482036101008601526132ab82826130c6565b9150506101208301518482036101208601526132c7828261315b565b9150508091505092915050565b600060208201905081810360008301526132ee81846131d0565b905092915050565b60006020828403121561330c5761330b612d66565b5b600061331a84828501612fdd565b91505092915050565b600081519050919050565b600082825260208201905092915050565b6000819050602082019050919050565b600061335b8383613085565b60208301905092915050565b6000602082019050919050565b600061337f82613323565b613389818561332e565b93506133948361333f565b8060005b838110156133c55781516133ac888261334f565b97506133b783613367565b925050600181019050613398565b5085935050505092915050565b600060208201905081810360008301526133ec8184613374565b905092915050565b600081519050919050565b600082825260208201905092915050565b6000819050602082019050919050565b6000610140830160008301516134396000860182613085565b50602083015161344c60208601826130a6565b506040830151848203604086015261346482826130c6565b9150506060830151848203606086015261347e82826130c6565b9150506080830151848203608086015261349882826130c6565b91505060a083015184820360a08601526134b282826130c6565b91505060c08301516134c760c08601826130ff565b5060e083015184820360e08601526134df82826130c6565b9150506101008301518482036101008601526134fb82826130c6565b915050610120830151848203610120860152613517828261315b565b9150508091505092915050565b60006135308383613420565b905092915050565b6000602082019050919050565b6000613550826133f4565b61355a81856133ff565b93508360208202850161356c85613410565b8060005b858110156135a857848403895281516135898582613524565b945061359483613538565b925060208a01995050600181019050613570565b50829750879550505050505092915050565b600060208201905081810360008301526135d48184613545565b905092915050565b6135e581613094565b81146135f057600080fd5b50565b600081359050613602816135dc565b92915050565b60008060006060848603121561362157613620612d66565b5b600061362f86828701612fdd565b9350506020613640868287016135f3565b925050604061365186828701612f28565b9150509250925092565b600080fd5b600080fd5b7f4e487b7100000000000000000000000000000000000000000000000000000000600052604160045260246000fd5b61369d82612ea5565b810181811067ffffffffffffffff821117156136bc576136bb613665565b5b80604052505050565b60006136cf612d5c565b90506136db8282613694565b919050565b600067ffffffffffffffff8211156136fb576136fa613665565b5b61370482612ea5565b9050602081019050919050565b82818337600083830152505050565b600061373361372e846136e0565b6136c5565b90508281526020810184848401111561374f5761374e613660565b5b61375a848285613711565b509392505050565b600082601f8301126137775761377661365b565b5b8135613787848260208601613720565b91505092915050565b61379981612df5565b81146137a457600080fd5b50565b6000813590506137b681613790565b92915050565b600067ffffffffffffffff8211156137d7576137d6613665565b5b602082029050602081019050919050565b600080fd5b60006138006137fb846137bc565b6136c5565b90508083825260208201905060208402830185811115613823576138226137e8565b5b835b8181101561386a57803567ffffffffffffffff8111156138485761384761365b565b5b8086016138558982613762565b85526020850194505050602081019050613825565b5050509392505050565b600082601f8301126138895761388861365b565b5b81356138998482602086016137ed565b91505092915050565b6000806000806000806000806000806101408b8d0312156138c6576138c5612d66565b5b60006138d48d828e01612fdd565b9a505060208b013567ffffffffffffffff8111156138f5576138f4612d6b565b5b6139018d828e01613762565b99505060408b013567ffffffffffffffff81111561392257613921612d6b565b5b61392e8d828e01613762565b98505060608b013567ffffffffffffffff81111561394f5761394e612d6b565b5b61395b8d828e01613762565b97505060808b013567ffffffffffffffff81111561397c5761397b612d6b565b5b6139888d828e01613762565b96505060a06139998d828e016137a7565b95505060c08b013567ffffffffffffffff8111156139ba576139b9612d6b565b5b6139c68d828e01613762565b94505060e08b013567ffffffffffffffff8111156139e7576139e6612d6b565b5b6139f38d828e01613762565b9350506101008b013567ffffffffffffffff811115613a1557613a14612d6b565b5b613a218d828e01613874565b9250506101208b013567ffffffffffffffff811115613a4357613a42612d6b565b5b613a4f8d828e01613762565b9150509295989b9194979a5092959850565b60008060408385031215613a7857613a77612d66565b5b6000613a8685828601612fdd565b9250506020613a97858286016137a7565b9150509250929050565b600067ffffffffffffffff821115613abc57613abb613665565b5b613ac582612ea5565b9050602081019050919050565b6000613ae5613ae084613aa1565b6136c5565b905082815260208101848484011115613b0157613b00613660565b5b613b0c848285613711565b509392505050565b600082601f830112613b2957613b2861365b565b5b8135613b39848260208601613ad2565b91505092915050565b60008060008060808587031215613b5c57613b5b612d66565b5b6000613b6a87828801612fdd565b9450506020613b7b87828801612fdd565b9350506040613b8c87828801612f28565b925050606085013567ffffffffffffffff811115613bad57613bac612d6b565b5b613bb987828801613b14565b91505092959194509250565b60008060408385031215613bdc57613bdb612d66565b5b6000613bea85828601612fdd565b9250506020613bfb85828601612fdd565b9150509250929050565b7f4e487b7100000000000000000000000000000000000000000000000000000000600052602260045260246000fd5b60006002820490506001821680613c4c57607f821691505b602082108103613c5f57613c5e613c05565b5b50919050565b7f4552433732313a20617070726f76616c20746f2063757272656e74206f776e6560008201527f7200000000000000000000000000000000000000000000000000000000000000602082015250565b6000613cc1602183612e6a565b9150613ccc82613c65565b604082019050919050565b60006020820190508181036000830152613cf081613cb4565b9050919050565b7f4552433732313a20617070726f76652063616c6c6572206973206e6f7420746f60008201527f6b656e206f776e6572206f7220617070726f76656420666f7220616c6c000000602082015250565b6000613d53603d83612e6a565b9150613d5e82613cf7565b604082019050919050565b60006020820190508181036000830152613d8281613d46565b9050919050565b7f4552433732313a2063616c6c6572206973206e6f7420746f6b656e206f776e6560008201527f72206f7220617070726f76656400000000000000000000000000000000000000602082015250565b6000613de5602d83612e6a565b9150613df082613d89565b604082019050919050565b60006020820190508181036000830152613e1481613dd8565b9050919050565b7f4552433732313a2061646472657373207a65726f206973206e6f74206120766160008201527f6c6964206f776e65720000000000000000000000000000000000000000000000602082015250565b6000613e77602983612e6a565b9150613e8282613e1b565b604082019050919050565b60006020820190508181036000830152613ea681613e6a565b9050919050565b7f4e487b7100000000000000000000000000000000000000000000000000000000600052603260045260246000fd5b7f4e487b7100000000000000000000000000000000000000000000000000000000600052601160045260246000fd5b6000613f1682612e2b565b91507fffffffffffffffffffffffffffffffffffffffffffffffffffffffffffffffff8203613f4857613f47613edc565b5b600182019050919050565b7f4552433732313a20696e76616c696420746f6b656e2049440000000000000000600082015250565b6000613f89601883612e6a565b9150613f9482613f53565b602082019050919050565b60006020820190508181036000830152613fb881613f7c565b9050919050565b600081905092915050565b6000613fd582612e5f565b613fdf8185613fbf565b9350613fef818560208601612e7b565b80840191505092915050565b60006140078285613fca565b91506140138284613fca565b91508190509392505050565b7f4f776e61626c653a206e6577206f776e657220697320746865207a65726f206160008201527f6464726573730000000000000000000000000000000000000000000000000000602082015250565b600061407b602683612e6a565b91506140868261401f565b604082019050919050565b600060208201905081810360008301526140aa8161406e565b9050919050565b7f4552433732313a207472616e736665722066726f6d20696e636f72726563742060008201527f6f776e6572000000000000000000000000000000000000000000000000000000602082015250565b600061410d602583612e6a565b9150614118826140b1565b604082019050919050565b6000602082019050818103600083015261413c81614100565b9050919050565b7f4552433732313a207472616e7366657220746f20746865207a65726f2061646460008201527f7265737300000000000000000000000000000000000000000000000000000000602082015250565b600061419f602483612e6a565b91506141aa82614143565b604082019050919050565b600060208201905081810360008301526141ce81614192565b9050919050565b7f4552433732313a206d696e7420746f20746865207a65726f2061646472657373600082015250565b600061420b602083612e6a565b9150614216826141d5565b602082019050919050565b6000602082019050818103600083015261423a816141fe565b9050919050565b7f4552433732313a20746f6b656e20616c7265616479206d696e74656400000000600082015250565b6000614277601c83612e6a565b915061428282614241565b602082019050919050565b600060208201905081810360008301526142a68161426a565b9050919050565b7f45524337323155524953746f726167653a2055524920736574206f66206e6f6e60008201527f6578697374656e7420746f6b656e000000000000000000000000000000000000602082015250565b6000614309602e83612e6a565b9150614314826142ad565b604082019050919050565b60006020820190508181036000830152614338816142fc565b9050919050565b60008190508160005260206000209050919050565b60006020601f8301049050919050565b600082821b905092915050565b6000600883026143a17fffffffffffffffffffffffffffffffffffffffffffffffffffffffffffffffff82614364565b6143ab8683614364565b95508019841693508086168417925050509392505050565b6000819050919050565b60006143e86143e36143de84612e2b565b6143c3565b612e2b565b9050919050565b6000819050919050565b614402836143cd565b61441661440e826143ef565b848454614371565b825550505050565b600090565b61442b61441e565b6144368184846143f9565b505050565b5b8181101561445a5761444f600082614423565b60018101905061443c565b5050565b601f82111561449f576144708161433f565b61447984614354565b81016020851015614488578190505b61449c61449485614354565b83018261443b565b50505b505050565b600082821c905092915050565b60006144c2600019846008026144a4565b1980831691505092915050565b60006144db83836144b1565b9150826002028217905092915050565b6144f482612e5f565b67ffffffffffffffff81111561450d5761450c613665565b5b6145178254613c34565b61452282828561445e565b600060209050601f8311600181146145555760008415614543578287015190505b61454d85826144cf565b8655506145b5565b601f1984166145638661433f565b60005b8281101561458b57848901518255600182019150602085019450602081019050614566565b868310156145a857848901516145a4601f8916826144b1565b8355505b6001600288020188555050505b505050505050565b6145c681613094565b82525050565b600082825260208201905092915050565b60006145e88261310e565b6145f281856145cc565b9350836020820285016146048561312a565b8060005b858110156146405784840389528151614621858261313a565b945061462c8361314e565b925060208a01995050600181019050614608565b50829750879550505050505092915050565b600061012082019050614668600083018c6145bd565b818103602083015261467a818b612eb6565b9050818103604083015261468e818a612eb6565b905081810360608301526146a28189612eb6565b905081810360808301526146b68188612eb6565b90506146c560a0830187612e01565b81810360c08301526146d78186612eb6565b905081810360e08301526146eb8185612eb6565b905081810361010083015261470081846145dd565b90509a9950505050505050505050565b7f4f776e61626c653a2063616c6c6572206973206e6f7420746865206f776e6572600082015250565b6000614746602083612e6a565b915061475182614710565b602082019050919050565b6000602082019050818103600083015261477581614739565b9050919050565b7f4552433732313a20617070726f766520746f2063616c6c657200000000000000600082015250565b60006147b2601983612e6a565b91506147bd8261477c565b602082019050919050565b600060208201905081810360008301526147e1816147a5565b9050919050565b7f4552433732313a207472616e7366657220746f206e6f6e20455243373231526560008201527f63656976657220696d706c656d656e7465720000000000000000000000000000602082015250565b6000614844603283612e6a565b915061484f826147e8565b604082019050919050565b6000602082019050818103600083015261487381614837565b9050919050565b600081519050919050565b600082825260208201905092915050565b60006148a18261487a565b6148ab8185614885565b93506148bb818560208601612e7b565b6148c481612ea5565b840191505092915050565b60006080820190506148e46000830187612f9c565b6148f16020830186612f9c565b6148fe6040830185612e35565b81810360608301526149108184614896565b905095945050505050565b60008151905061492a81612d9c565b92915050565b60006020828403121561494657614945612d66565b5b60006149548482850161491b565b91505092915050565b7f4e487b7100000000000000000000000000000000000000000000000000000000600052601260045260246000fdfea2646970667358221220eab3c245a6adac6eacb358b15f53b1a56a5b56282fb2beab3f13a09ae3d1f8c164736f6c63430008130033",
  "immutableReferences": {},
  "source": "// contracts/MyNFT.sol\r\n// SPDX-License-Identifier: MIT\r\npragma solidity ^0.8.0;\r\n\r\nimport \"@openzeppelin/contracts/token/ERC721/ERC721.sol\";\r\nimport \"@openzeppelin/contracts/utils/Counters.sol\";\r\nimport \"@openzeppelin/contracts/access/Ownable.sol\";\r\nimport \"@openzeppelin/contracts/token/ERC721/extensions/ERC721URIStorage.sol\";\r\n\r\ncontract HappyMaru is ERC721URIStorage, Ownable {\r\n    using Counters for Counters.Counter;\r\n    Counters.Counter private tokenIds;\r\n    Counters.Counter private userIds;\r\n\r\n    struct dogInfo {\r\n        uint256 tokenId;\r\n        address payable owner;\r\n        // \r\n        string name;\r\n        // \r\n        string breed;\r\n        // \r\n        string birthDate;\r\n        //  \r\n        string gender;\r\n        //  \r\n        bool neutraled;\r\n        // \r\n        string description;\r\n        // \r\n        string image;\r\n        //  \r\n        string[] noseData;\r\n    }\r\n\r\n    mapping(uint256 => dogInfo) private nfts;\r\n    mapping(address => uint256[]) private dogOwners;\r\n    mapping(uint256 => string) private tokenURIs;\r\n\r\n    event DogInfoCreated(\r\n        uint256 indexed tokenId,\r\n        address payable owner,\r\n        string name,\r\n        string breed,\r\n        string birthDate,\r\n        string gender,\r\n        bool neutraled,\r\n        string description,\r\n        string image,\r\n        string[] noseData\r\n    );\r\n\r\n    constructor() ERC721(\"Happy Maru\", \"HappyMaru's dog INFO \") {}\r\n\r\n    function _setNft(\r\n        uint256 _tokenId,\r\n        dogInfo memory _info,\r\n        string memory tokenURI\r\n    ) private {\r\n        nfts[_tokenId] = _info;\r\n        tokenURIs[_tokenId] = tokenURI;\r\n        emit DogInfoCreated(\r\n            _tokenId,\r\n            payable(msg.sender),\r\n            _info.name,\r\n            _info.breed,\r\n            _info.birthDate,\r\n            _info.gender,\r\n            _info.neutraled,\r\n            _info.description,\r\n            _info.image,\r\n            _info.noseData\r\n        );\r\n    }\r\n\r\n    /// @dev this function mints received NFTs\r\n    /// @param _to address tp\r\n    /// @param _name name\r\n    /// @param _breed breed\r\n    /// @param _birthDate birthDate\r\n    /// @param _gender gender\r\n    /// @param _neutraled neutraled\r\n    /// @param _description description\r\n    /// @param _image image Url\r\n    /// @param _noseData nose data\r\n    /// @param _tokenURI image Url\r\n    /// @return newTokenId of the created NFT\r\n    function createDogInfo(\r\n        address _to,\r\n        string memory _name,\r\n        string memory _breed,\r\n        string memory _birthDate,\r\n        string memory _gender,\r\n        bool _neutraled,\r\n        string memory _description,\r\n        string memory _image,\r\n        string[] memory _noseData,\r\n        string memory _tokenURI\r\n    ) public returns (uint256) {\r\n        uint256 newTokenId = tokenIds.current();\r\n        _mint(_to, newTokenId);\r\n\r\n        _setTokenURI(newTokenId, _tokenURI);\r\n        dogOwners[_to].push(newTokenId);\r\n        dogInfo memory _info = dogInfo(newTokenId, payable(_to), _name, _breed, _birthDate, _gender, _neutraled, _description, _image, _noseData);\r\n        _setNft(\r\n            newTokenId, _info, _tokenURI\r\n        );\r\n        tokenIds.increment();\r\n        return newTokenId;\r\n    }\r\n\r\n    /// @dev fetches NFT that a specific user has created\r\n    /// @return nftStruct[] list of nfts created by a user with their metadata\r\n    function getNfts(address _owner) public view returns (dogInfo[] memory) {\r\n        uint256[] memory ownDogIds =  dogOwners[_owner];\r\n        dogInfo[] memory ownDogInfos = new dogInfo[](ownDogIds.length);\r\n\r\n        for (uint256 i = 0; i < ownDogIds.length; i++){\r\n            ownDogInfos[i] = nfts[ownDogIds[i]];\r\n        }\r\n        \r\n        return ownDogInfos;\r\n    }\r\n\r\n    /// @dev fetches details of a particular NFT magazine subscription\r\n    /// @param _tokenId The token ID of the NFT Magazine\r\n    /// @return nftStruct NFT data of the specific token ID\r\n    function getDogInfo(\r\n        uint256 _tokenId\r\n    ) public view returns (dogInfo memory) {\r\n        return nfts[_tokenId];\r\n    }\r\n\r\n    function getNftsByAddress(address owner) public view returns (uint256[] memory) {\r\n        require(owner != address(0), \"ERC721: address zero is not a valid owner\");\r\n        return dogOwners[owner];\r\n    }\r\n\r\n    function sendNft(address from, address payable to, uint256 tokenId) public returns (uint256) {\r\n        safeTransferFrom(from, to, tokenId);\r\n        // owner  \r\n        nfts[tokenId].owner = to;\r\n        return tokenId;\r\n    }\r\n\r\n    function getNftsCount() public view returns (uint256) {\r\n        return tokenIds.current();\r\n    }\r\n}\r\n",
  "sourcePath": "C:\\Projects\\happy-maru-smart-contract\\contracts\\HappyMaru.sol",
  "compiler": {
    "name": "solc",
    "version": "0.8.19+commit.7dd6d404.Emscripten.clang"
  },
  "schemaVersion": "3.4.16",
  "updatedAt": "2024-07-24T14:42:01.867Z",
  "networkType": "ethereum",
  "devdoc": {
    "events": {
      "Approval(address,address,uint256)": {
        "details": "Emitted when `owner` enables `approved` to manage the `tokenId` token."
      },
      "ApprovalForAll(address,address,bool)": {
        "details": "Emitted when `owner` enables or disables (`approved`) `operator` to manage all of its assets."
      },
      "BatchMetadataUpdate(uint256,uint256)": {
        "details": "This event emits when the metadata of a range of tokens is changed. So that the third-party platforms such as NFT market could timely update the images and related attributes of the NFTs."
      },
      "MetadataUpdate(uint256)": {
        "details": "This event emits when the metadata of a token is changed. So that the third-party platforms such as NFT market could timely update the images and related attributes of the NFT."
      },
      "Transfer(address,address,uint256)": {
        "details": "Emitted when `tokenId` token is transferred from `from` to `to`."
      }
    },
    "kind": "dev",
    "methods": {
      "approve(address,uint256)": {
        "details": "See {IERC721-approve}."
      },
      "balanceOf(address)": {
        "details": "See {IERC721-balanceOf}."
      },
      "createDogInfo(address,string,string,string,string,bool,string,string,string[],string)": {
        "details": "this function mints received NFTs",
        "params": {
          "_birthDate": "birthDate",
          "_breed": "breed",
          "_description": "description",
          "_gender": "gender",
          "_image": "image Url",
          "_name": "name",
          "_neutraled": "neutraled",
          "_noseData": "nose data",
          "_to": "address tp",
          "_tokenURI": "image Url"
        },
        "returns": {
          "_0": "newTokenId of the created NFT"
        }
      },
      "getApproved(uint256)": {
        "details": "See {IERC721-getApproved}."
      },
      "getDogInfo(uint256)": {
        "details": "fetches details of a particular NFT magazine subscription",
        "params": {
          "_tokenId": "The token ID of the NFT Magazine"
        },
        "returns": {
          "_0": "nftStruct NFT data of the specific token ID"
        }
      },
      "getNfts(address)": {
        "details": "fetches NFT that a specific user has created",
        "returns": {
          "_0": "nftStruct[] list of nfts created by a user with their metadata"
        }
      },
      "isApprovedForAll(address,address)": {
        "details": "See {IERC721-isApprovedForAll}."
      },
      "name()": {
        "details": "See {IERC721Metadata-name}."
      },
      "owner()": {
        "details": "Returns the address of the current owner."
      },
      "ownerOf(uint256)": {
        "details": "See {IERC721-ownerOf}."
      },
      "renounceOwnership()": {
        "details": "Leaves the contract without owner. It will not be possible to call `onlyOwner` functions. Can only be called by the current owner. NOTE: Renouncing ownership will leave the contract without an owner, thereby disabling any functionality that is only available to the owner."
      },
      "safeTransferFrom(address,address,uint256)": {
        "details": "See {IERC721-safeTransferFrom}."
      },
      "safeTransferFrom(address,address,uint256,bytes)": {
        "details": "See {IERC721-safeTransferFrom}."
      },
      "setApprovalForAll(address,bool)": {
        "details": "See {IERC721-setApprovalForAll}."
      },
      "supportsInterface(bytes4)": {
        "details": "See {IERC165-supportsInterface}"
      },
      "symbol()": {
        "details": "See {IERC721Metadata-symbol}."
      },
      "tokenURI(uint256)": {
        "details": "See {IERC721Metadata-tokenURI}."
      },
      "transferFrom(address,address,uint256)": {
        "details": "See {IERC721-transferFrom}."
      },
      "transferOwnership(address)": {
        "details": "Transfers ownership of the contract to a new account (`newOwner`). Can only be called by the current owner."
      }
    },
    "version": 1
  },
  "userdoc": {
    "kind": "user",
    "methods": {},
    "version": 1
  }
}