{
  "contractName": "HappyMaru",
  "abi": [
    {
      "inputs": [],
      "stateMutability": "nonpayable",
      "type": "constructor"
    },
    {
      "anonymous": false,
      "inputs": [
        {
          "indexed": true,
          "internalType": "address",
          "name": "owner",
          "type": "address"
        },
        {
          "indexed": true,
          "internalType": "address",
          "name": "approved",
          "type": "address"
        },
        {
          "indexed": true,
          "internalType": "uint256",
          "name": "tokenId",
          "type": "uint256"
        }
      ],
      "name": "Approval",
      "type": "event"
    },
    {
      "anonymous": false,
      "inputs": [
        {
          "indexed": true,
          "internalType": "address",
          "name": "owner",
          "type": "address"
        },
        {
          "indexed": true,
          "internalType": "address",
          "name": "operator",
          "type": "address"
        },
        {
          "indexed": false,
          "internalType": "bool",
          "name": "approved",
          "type": "bool"
        }
      ],
      "name": "ApprovalForAll",
      "type": "event"
    },
    {
      "anonymous": false,
      "inputs": [
        {
          "indexed": false,
          "internalType": "uint256",
          "name": "_fromTokenId",
          "type": "uint256"
        },
        {
          "indexed": false,
          "internalType": "uint256",
          "name": "_toTokenId",
          "type": "uint256"
        }
      ],
      "name": "BatchMetadataUpdate",
      "type": "event"
    },
    {
      "anonymous": false,
      "inputs": [
        {
          "indexed": true,
          "internalType": "uint256",
          "name": "tokenId",
          "type": "uint256"
        },
        {
          "indexed": false,
          "internalType": "address payable",
          "name": "owner",
          "type": "address"
        },
        {
          "indexed": false,
          "internalType": "string",
          "name": "name",
          "type": "string"
        },
        {
          "indexed": false,
          "internalType": "string",
          "name": "breed",
          "type": "string"
        },
        {
          "indexed": false,
          "internalType": "string",
          "name": "birthDate",
          "type": "string"
        },
        {
          "indexed": false,
          "internalType": "string",
          "name": "gender",
          "type": "string"
        },
        {
          "indexed": false,
          "internalType": "bool",
          "name": "neutraled",
          "type": "bool"
        },
        {
          "indexed": false,
          "internalType": "string",
          "name": "description",
          "type": "string"
        },
        {
          "indexed": false,
          "internalType": "string",
          "name": "image",
          "type": "string"
        }
      ],
      "name": "DogInfoCreated",
      "type": "event"
    },
    {
      "anonymous": false,
      "inputs": [
        {
          "indexed": false,
          "internalType": "uint256",
          "name": "_tokenId",
          "type": "uint256"
        }
      ],
      "name": "MetadataUpdate",
      "type": "event"
    },
    {
      "anonymous": false,
      "inputs": [
        {
          "indexed": true,
          "internalType": "address",
          "name": "previousOwner",
          "type": "address"
        },
        {
          "indexed": true,
          "internalType": "address",
          "name": "newOwner",
          "type": "address"
        }
      ],
      "name": "OwnershipTransferred",
      "type": "event"
    },
    {
      "anonymous": false,
      "inputs": [
        {
          "indexed": true,
          "internalType": "address",
          "name": "from",
          "type": "address"
        },
        {
          "indexed": true,
          "internalType": "address",
          "name": "to",
          "type": "address"
        },
        {
          "indexed": true,
          "internalType": "uint256",
          "name": "tokenId",
          "type": "uint256"
        }
      ],
      "name": "Transfer",
      "type": "event"
    },
    {
      "inputs": [
        {
          "internalType": "address",
          "name": "to",
          "type": "address"
        },
        {
          "internalType": "uint256",
          "name": "tokenId",
          "type": "uint256"
        }
      ],
      "name": "approve",
      "outputs": [],
      "stateMutability": "nonpayable",
      "type": "function"
    },
    {
      "inputs": [
        {
          "internalType": "address",
          "name": "owner",
          "type": "address"
        }
      ],
      "name": "balanceOf",
      "outputs": [
        {
          "internalType": "uint256",
          "name": "",
          "type": "uint256"
        }
      ],
      "stateMutability": "view",
      "type": "function",
      "constant": true
    },
    {
      "inputs": [
        {
          "internalType": "uint256",
          "name": "tokenId",
          "type": "uint256"
        }
      ],
      "name": "getApproved",
      "outputs": [
        {
          "internalType": "address",
          "name": "",
          "type": "address"
        }
      ],
      "stateMutability": "view",
      "type": "function",
      "constant": true
    },
    {
      "inputs": [
        {
          "internalType": "address",
          "name": "owner",
          "type": "address"
        },
        {
          "internalType": "address",
          "name": "operator",
          "type": "address"
        }
      ],
      "name": "isApprovedForAll",
      "outputs": [
        {
          "internalType": "bool",
          "name": "",
          "type": "bool"
        }
      ],
      "stateMutability": "view",
      "type": "function",
      "constant": true
    },
    {
      "inputs": [],
      "name": "name",
      "outputs": [
        {
          "internalType": "string",
          "name": "",
          "type": "string"
        }
      ],
      "stateMutability": "view",
      "type": "function",
      "constant": true
    },
    {
      "inputs": [],
      "name": "owner",
      "outputs": [
        {
          "internalType": "address",
          "name": "",
          "type": "address"
        }
      ],
      "stateMutability": "view",
      "type": "function",
      "constant": true
    },
    {
      "inputs": [
        {
          "internalType": "uint256",
          "name": "tokenId",
          "type": "uint256"
        }
      ],
      "name": "ownerOf",
      "outputs": [
        {
          "internalType": "address",
          "name": "",
          "type": "address"
        }
      ],
      "stateMutability": "view",
      "type": "function",
      "constant": true
    },
    {
      "inputs": [],
      "name": "renounceOwnership",
      "outputs": [],
      "stateMutability": "nonpayable",
      "type": "function"
    },
    {
      "inputs": [
        {
          "internalType": "address",
          "name": "from",
          "type": "address"
        },
        {
          "internalType": "address",
          "name": "to",
          "type": "address"
        },
        {
          "internalType": "uint256",
          "name": "tokenId",
          "type": "uint256"
        }
      ],
      "name": "safeTransferFrom",
      "outputs": [],
      "stateMutability": "nonpayable",
      "type": "function"
    },
    {
      "inputs": [
        {
          "internalType": "address",
          "name": "from",
          "type": "address"
        },
        {
          "internalType": "address",
          "name": "to",
          "type": "address"
        },
        {
          "internalType": "uint256",
          "name": "tokenId",
          "type": "uint256"
        },
        {
          "internalType": "bytes",
          "name": "data",
          "type": "bytes"
        }
      ],
      "name": "safeTransferFrom",
      "outputs": [],
      "stateMutability": "nonpayable",
      "type": "function"
    },
    {
      "inputs": [
        {
          "internalType": "address",
          "name": "operator",
          "type": "address"
        },
        {
          "internalType": "bool",
          "name": "approved",
          "type": "bool"
        }
      ],
      "name": "setApprovalForAll",
      "outputs": [],
      "stateMutability": "nonpayable",
      "type": "function"
    },
    {
      "inputs": [
        {
          "internalType": "bytes4",
          "name": "interfaceId",
          "type": "bytes4"
        }
      ],
      "name": "supportsInterface",
      "outputs": [
        {
          "internalType": "bool",
          "name": "",
          "type": "bool"
        }
      ],
      "stateMutability": "view",
      "type": "function",
      "constant": true
    },
    {
      "inputs": [],
      "name": "symbol",
      "outputs": [
        {
          "internalType": "string",
          "name": "",
          "type": "string"
        }
      ],
      "stateMutability": "view",
      "type": "function",
      "constant": true
    },
    {
      "inputs": [
        {
          "internalType": "uint256",
          "name": "tokenId",
          "type": "uint256"
        }
      ],
      "name": "tokenURI",
      "outputs": [
        {
          "internalType": "string",
          "name": "",
          "type": "string"
        }
      ],
      "stateMutability": "view",
      "type": "function",
      "constant": true
    },
    {
      "inputs": [
        {
          "internalType": "address",
          "name": "from",
          "type": "address"
        },
        {
          "internalType": "address",
          "name": "to",
          "type": "address"
        },
        {
          "internalType": "uint256",
          "name": "tokenId",
          "type": "uint256"
        }
      ],
      "name": "transferFrom",
      "outputs": [],
      "stateMutability": "nonpayable",
      "type": "function"
    },
    {
      "inputs": [
        {
          "internalType": "address",
          "name": "newOwner",
          "type": "address"
        }
      ],
      "name": "transferOwnership",
      "outputs": [],
      "stateMutability": "nonpayable",
      "type": "function"
    },
    {
      "inputs": [
        {
          "internalType": "string",
          "name": "_name",
          "type": "string"
        },
        {
          "internalType": "string",
          "name": "_breed",
          "type": "string"
        },
        {
          "internalType": "string",
          "name": "_birthDate",
          "type": "string"
        },
        {
          "internalType": "string",
          "name": "_gender",
          "type": "string"
        },
        {
          "internalType": "bool",
          "name": "_neutraled",
          "type": "bool"
        },
        {
          "internalType": "string",
          "name": "_description",
          "type": "string"
        },
        {
          "internalType": "string",
          "name": "_image",
          "type": "string"
        },
        {
          "internalType": "string",
          "name": "_tokenURI",
          "type": "string"
        },
        {
          "internalType": "address payable",
          "name": "_address",
          "type": "address"
        }
      ],
      "name": "createDogInfo",
      "outputs": [
        {
          "internalType": "uint256",
          "name": "",
          "type": "uint256"
        }
      ],
      "stateMutability": "nonpayable",
      "type": "function"
    },
    {
      "inputs": [],
      "name": "getNfts",
      "outputs": [
        {
          "components": [
            {
              "internalType": "uint256",
              "name": "tokenId",
              "type": "uint256"
            },
            {
              "internalType": "address payable",
              "name": "owner",
              "type": "address"
            },
            {
              "internalType": "string",
              "name": "name",
              "type": "string"
            },
            {
              "internalType": "string",
              "name": "breed",
              "type": "string"
            },
            {
              "internalType": "string",
              "name": "birthDate",
              "type": "string"
            },
            {
              "internalType": "string",
              "name": "gender",
              "type": "string"
            },
            {
              "internalType": "bool",
              "name": "neutraled",
              "type": "bool"
            },
            {
              "internalType": "string",
              "name": "description",
              "type": "string"
            },
            {
              "internalType": "string",
              "name": "image",
              "type": "string"
            }
          ],
          "internalType": "struct HappyMaru.dogInfo[]",
          "name": "",
          "type": "tuple[]"
        }
      ],
      "stateMutability": "view",
      "type": "function",
      "constant": true
    },
    {
      "inputs": [
        {
          "internalType": "uint256",
          "name": "_tokenId",
          "type": "uint256"
        }
      ],
      "name": "getIndividualNFT",
      "outputs": [
        {
          "components": [
            {
              "internalType": "uint256",
              "name": "tokenId",
              "type": "uint256"
            },
            {
              "internalType": "address payable",
              "name": "owner",
              "type": "address"
            },
            {
              "internalType": "string",
              "name": "name",
              "type": "string"
            },
            {
              "internalType": "string",
              "name": "breed",
              "type": "string"
            },
            {
              "internalType": "string",
              "name": "birthDate",
              "type": "string"
            },
            {
              "internalType": "string",
              "name": "gender",
              "type": "string"
            },
            {
              "internalType": "bool",
              "name": "neutraled",
              "type": "bool"
            },
            {
              "internalType": "string",
              "name": "description",
              "type": "string"
            },
            {
              "internalType": "string",
              "name": "image",
              "type": "string"
            }
          ],
          "internalType": "struct HappyMaru.dogInfo",
          "name": "",
          "type": "tuple"
        }
      ],
      "stateMutability": "view",
      "type": "function",
      "constant": true
    },
    {
      "inputs": [
        {
          "internalType": "address",
          "name": "owner",
          "type": "address"
        }
      ],
      "name": "getNftsByAddress",
      "outputs": [
        {
          "internalType": "uint256[]",
          "name": "",
          "type": "uint256[]"
        }
      ],
      "stateMutability": "view",
      "type": "function",
      "constant": true
    },
    {
      "inputs": [
        {
          "internalType": "address",
          "name": "from",
          "type": "address"
        },
        {
          "internalType": "address payable",
          "name": "to",
          "type": "address"
        },
        {
          "internalType": "uint256",
          "name": "tokenId",
          "type": "uint256"
        }
      ],
      "name": "sendNft",
      "outputs": [
        {
          "internalType": "uint256",
          "name": "",
          "type": "uint256"
        }
      ],
      "stateMutability": "nonpayable",
      "type": "function"
    },
    {
      "inputs": [],
      "name": "getNftsCount",
      "outputs": [
        {
          "internalType": "uint256",
          "name": "",
          "type": "uint256"
        }
      ],
      "stateMutability": "view",
      "type": "function",
      "constant": true
    },
    {
      "inputs": [
        {
          "internalType": "string",
          "name": "_tokenURI",
          "type": "string"
        },
        {
          "components": [
            {
              "internalType": "uint256",
              "name": "tokenId",
              "type": "uint256"
            },
            {
              "internalType": "address payable",
              "name": "owner",
              "type": "address"
            },
            {
              "internalType": "string",
              "name": "name",
              "type": "string"
            },
            {
              "internalType": "string",
              "name": "breed",
              "type": "string"
            },
            {
              "internalType": "string",
              "name": "birthDate",
              "type": "string"
            },
            {
              "internalType": "string",
              "name": "gender",
              "type": "string"
            },
            {
              "internalType": "bool",
              "name": "neutraled",
              "type": "bool"
            },
            {
              "internalType": "string",
              "name": "description",
              "type": "string"
            },
            {
              "internalType": "string",
              "name": "image",
              "type": "string"
            }
          ],
          "internalType": "struct HappyMaru.dogInfo",
          "name": "_info",
          "type": "tuple"
        },
        {
          "internalType": "address",
          "name": "from",
          "type": "address"
        },
        {
          "internalType": "address payable",
          "name": "to",
          "type": "address"
        }
      ],
      "name": "createAndSendNft",
      "outputs": [
        {
          "internalType": "uint256",
          "name": "",
          "type": "uint256"
        }
      ],
      "stateMutability": "nonpayable",
      "type": "function"
    }
  ],
  "bytecode": "0x60806040523480156200001157600080fd5b506040518060400160405280600a81526020017f4861707079204d617275000000000000000000000000000000000000000000008152506040518060400160405280601581526020017f48617070794d617275277320646f6720494e464f20000000000000000000000081525081600090816200008f91906200044c565b508060019081620000a191906200044c565b505050620000c4620000b8620000ee60201b60201c565b620000f660201b60201c565b620000d66008620001bc60201b60201c565b620000e86009620001bc60201b60201c565b62000533565b600033905090565b6000600760009054906101000a900473ffffffffffffffffffffffffffffffffffffffff16905081600760006101000a81548173ffffffffffffffffffffffffffffffffffffffff021916908373ffffffffffffffffffffffffffffffffffffffff1602179055508173ffffffffffffffffffffffffffffffffffffffff168173ffffffffffffffffffffffffffffffffffffffff167f8be0079c531659141344cd1fd0a4f28419497f9722a3daafe3b4186f6b6457e060405160405180910390a35050565b6001816000016000828254019250508190555050565b600081519050919050565b7f4e487b7100000000000000000000000000000000000000000000000000000000600052604160045260246000fd5b7f4e487b7100000000000000000000000000000000000000000000000000000000600052602260045260246000fd5b600060028204905060018216806200025457607f821691505b6020821081036200026a57620002696200020c565b5b50919050565b60008190508160005260206000209050919050565b60006020601f8301049050919050565b600082821b905092915050565b600060088302620002d47fffffffffffffffffffffffffffffffffffffffffffffffffffffffffffffffff8262000295565b620002e0868362000295565b95508019841693508086168417925050509392505050565b6000819050919050565b6000819050919050565b60006200032d620003276200032184620002f8565b62000302565b620002f8565b9050919050565b6000819050919050565b62000349836200030c565b62000361620003588262000334565b848454620002a2565b825550505050565b600090565b6200037862000369565b620003858184846200033e565b505050565b5b81811015620003ad57620003a16000826200036e565b6001810190506200038b565b5050565b601f821115620003fc57620003c68162000270565b620003d18462000285565b81016020851015620003e1578190505b620003f9620003f08562000285565b8301826200038a565b50505b505050565b600082821c905092915050565b6000620004216000198460080262000401565b1980831691505092915050565b60006200043c83836200040e565b9150826002028217905092915050565b6200045782620001d2565b67ffffffffffffffff811115620004735762000472620001dd565b5b6200047f82546200023b565b6200048c828285620003b1565b600060209050601f831160018114620004c45760008415620004af578287015190505b620004bb85826200042e565b8655506200052b565b601f198416620004d48662000270565b60005b82811015620004fe57848901518255600182019150602085019450602081019050620004d7565b868310156200051e57848901516200051a601f8916826200040e565b8355505b6001600288020188555050505b505050505050565b61481980620005436000396000f3fe608060405234801561001057600080fd5b506004361061014d5760003560e01c8063715018a6116100c3578063b88d4fde1161007c578063b88d4fde146103c4578063c87b56dd146103e0578063d8cb55e314610410578063e985e9c51461042e578063f2fde38b1461045e578063fde50cf01461047a5761014d565b8063715018a614610302578063768563191461030c5780638da5cb5b1461033c57806395d89b411461035a578063a22cb46514610378578063b70dccb7146103945761014d565b806323b872dd1161011557806323b872dd1461020a5780633a66dd361461022657806342842e0e146102565780634d81c77d146102725780636352211e146102a257806370a08231146102d25761014d565b806301ffc9a71461015257806305ed9a671461018257806306fdde03146101a0578063081812fc146101be578063095ea7b3146101ee575b600080fd5b61016c60048036038101906101679190612c9b565b6104aa565b6040516101799190612ce3565b60405180910390f35b61018a61050b565b6040516101979190612d17565b60405180910390f35b6101a861051c565b6040516101b59190612dc2565b60405180910390f35b6101d860048036038101906101d39190612e10565b6105ae565b6040516101e59190612e7e565b60405180910390f35b61020860048036038101906102039190612ec5565b6105f4565b005b610224600480360381019061021f9190612f05565b61070b565b005b610240600480360381019061023b9190612f58565b61076b565b60405161024d9190613043565b60405180910390f35b610270600480360381019061026b9190612f05565b610871565b005b61028c600480360381019061028791906130a3565b610891565b6040516102999190612d17565b60405180910390f35b6102bc60048036038101906102b79190612e10565b6108fd565b6040516102c99190612e7e565b60405180910390f35b6102ec60048036038101906102e79190612f58565b610983565b6040516102f99190612d17565b60405180910390f35b61030a610a3a565b005b61032660048036038101906103219190612e10565b610a4e565b6040516103339190613246565b60405180910390f35b610344610e63565b6040516103519190612e7e565b60405180910390f35b610362610e8d565b60405161036f9190612dc2565b60405180910390f35b610392600480360381019061038d9190613294565b610f1f565b005b6103ae60048036038101906103a99190613409565b610f35565b6040516103bb9190612d17565b60405180910390f35b6103de60048036038101906103d99190613638565b611041565b005b6103fa60048036038101906103f59190612e10565b6110a3565b6040516104079190612dc2565b60405180910390f35b6104186111b5565b6040516104259190613865565b60405180910390f35b61044860048036038101906104439190613887565b611769565b6040516104559190612ce3565b60405180910390f35b61047860048036038101906104739190612f58565b6117fd565b005b610494600480360381019061048f9190613a59565b611880565b6040516104a19190612d17565b60405180910390f35b6000634906490660e01b7bffffffffffffffffffffffffffffffffffffffffffffffffffffffff1916827bffffffffffffffffffffffffffffffffffffffffffffffffffffffff1916148061050457506105038261198a565b5b9050919050565b60006105176008611a6c565b905090565b60606000805461052b90613b27565b80601f016020809104026020016040519081016040528092919081815260200182805461055790613b27565b80156105a45780601f10610579576101008083540402835291602001916105a4565b820191906000526020600020905b81548152906001019060200180831161058757829003601f168201915b5050505050905090565b60006105b982611a7a565b6004600083815260200190815260200160002060009054906101000a900473ffffffffffffffffffffffffffffffffffffffff169050919050565b60006105ff826108fd565b90508073ffffffffffffffffffffffffffffffffffffffff168373ffffffffffffffffffffffffffffffffffffffff160361066f576040517f08c379a000000000000000000000000000000000000000000000000000000000815260040161066690613bca565b60405180910390fd5b8073ffffffffffffffffffffffffffffffffffffffff1661068e611ac5565b73ffffffffffffffffffffffffffffffffffffffff1614806106bd57506106bc816106b7611ac5565b611769565b5b6106fc576040517f08c379a00000000000000000000000000000000000000000000000000000000081526004016106f390613c5c565b60405180910390fd5b6107068383611acd565b505050565b61071c610716611ac5565b82611b86565b61075b576040517f08c379a000000000000000000000000000000000000000000000000000000000815260040161075290613cee565b60405180910390fd5b610766838383611c1b565b505050565b6060600073ffffffffffffffffffffffffffffffffffffffff168273ffffffffffffffffffffffffffffffffffffffff16036107dc576040517f08c379a00000000000000000000000000000000000000000000000000000000081526004016107d390613d80565b60405180910390fd5b600b60008373ffffffffffffffffffffffffffffffffffffffff1673ffffffffffffffffffffffffffffffffffffffff16815260200190815260200160002080548060200260200160405190810160405280929190818152602001828054801561086557602002820191906000526020600020905b815481526020019060010190808311610851575b50505050509050919050565b61088c83838360405180602001604052806000815250611041565b505050565b600061089e848484610871565b82600a600084815260200190815260200160002060010160006101000a81548173ffffffffffffffffffffffffffffffffffffffff021916908373ffffffffffffffffffffffffffffffffffffffff1602179055508190509392505050565b60008061090983611f14565b9050600073ffffffffffffffffffffffffffffffffffffffff168173ffffffffffffffffffffffffffffffffffffffff160361097a576040517f08c379a000000000000000000000000000000000000000000000000000000000815260040161097190613dec565b60405180910390fd5b80915050919050565b60008073ffffffffffffffffffffffffffffffffffffffff168273ffffffffffffffffffffffffffffffffffffffff16036109f3576040517f08c379a00000000000000000000000000000000000000000000000000000000081526004016109ea90613d80565b60405180910390fd5b600360008373ffffffffffffffffffffffffffffffffffffffff1673ffffffffffffffffffffffffffffffffffffffff168152602001908152602001600020549050919050565b610a42611f51565b610a4c6000611fcf565b565b610a56612bcb565b600a600083815260200190815260200160002060405180610120016040529081600082015481526020016001820160009054906101000a900473ffffffffffffffffffffffffffffffffffffffff1673ffffffffffffffffffffffffffffffffffffffff1673ffffffffffffffffffffffffffffffffffffffff168152602001600282018054610ae590613b27565b80601f0160208091040260200160405190810160405280929190818152602001828054610b1190613b27565b8015610b5e5780601f10610b3357610100808354040283529160200191610b5e565b820191906000526020600020905b815481529060010190602001808311610b4157829003601f168201915b50505050508152602001600382018054610b7790613b27565b80601f0160208091040260200160405190810160405280929190818152602001828054610ba390613b27565b8015610bf05780601f10610bc557610100808354040283529160200191610bf0565b820191906000526020600020905b815481529060010190602001808311610bd357829003601f168201915b50505050508152602001600482018054610c0990613b27565b80601f0160208091040260200160405190810160405280929190818152602001828054610c3590613b27565b8015610c825780601f10610c5757610100808354040283529160200191610c82565b820191906000526020600020905b815481529060010190602001808311610c6557829003601f168201915b50505050508152602001600582018054610c9b90613b27565b80601f0160208091040260200160405190810160405280929190818152602001828054610cc790613b27565b8015610d145780601f10610ce957610100808354040283529160200191610d14565b820191906000526020600020905b815481529060010190602001808311610cf757829003601f168201915b505050505081526020016006820160009054906101000a900460ff16151515158152602001600782018054610d4890613b27565b80601f0160208091040260200160405190810160405280929190818152602001828054610d7490613b27565b8015610dc15780601f10610d9657610100808354040283529160200191610dc1565b820191906000526020600020905b815481529060010190602001808311610da457829003601f168201915b50505050508152602001600882018054610dda90613b27565b80601f0160208091040260200160405190810160405280929190818152602001828054610e0690613b27565b8015610e535780601f10610e2857610100808354040283529160200191610e53565b820191906000526020600020905b815481529060010190602001808311610e3657829003601f168201915b5050505050815250509050919050565b6000600760009054906101000a900473ffffffffffffffffffffffffffffffffffffffff16905090565b606060018054610e9c90613b27565b80601f0160208091040260200160405190810160405280929190818152602001828054610ec890613b27565b8015610f155780601f10610eea57610100808354040283529160200191610f15565b820191906000526020600020905b815481529060010190602001808311610ef857829003601f168201915b5050505050905090565b610f31610f2a611ac5565b8383612095565b5050565b600080610f426008611a6c565b9050610f4e8382612201565b610f58818561241e565b600b60008473ffffffffffffffffffffffffffffffffffffffff1673ffffffffffffffffffffffffffffffffffffffff16815260200190815260200160002081908060018154018082558091505060019003906000526020600020016000909190919091505560006040518061012001604052808381526020018573ffffffffffffffffffffffffffffffffffffffff1681526020018d81526020018c81526020018b81526020018a815260200189151581526020018881526020018781525090506110258282876124c2565b61102f6008612658565b81925050509998505050505050505050565b61105261104c611ac5565b83611b86565b611091576040517f08c379a000000000000000000000000000000000000000000000000000000000815260040161108890613cee565b60405180910390fd5b61109d8484848461266e565b50505050565b60606110ae82611a7a565b60006006600084815260200190815260200160002080546110ce90613b27565b80601f01602080910402602001604051908101604052809291908181526020018280546110fa90613b27565b80156111475780601f1061111c57610100808354040283529160200191611147565b820191906000526020600020905b81548152906001019060200180831161112a57829003601f168201915b5050505050905060006111586126ca565b9050600081510361116d5781925050506111b0565b6000825111156111a257808260405160200161118a929190613e48565b604051602081830303815290604052925050506111b0565b6111ab846126e1565b925050505b919050565b606060006111c36008611a6c565b905060008167ffffffffffffffff8111156111e1576111e06132de565b5b60405190808252806020026020018201604052801561121a57816020015b611207612bcb565b8152602001906001900390816111ff5790505b509050600080600190505b838110156116ae573373ffffffffffffffffffffffffffffffffffffffff1661124d826108fd565b73ffffffffffffffffffffffffffffffffffffffff160361169b57600a600082815260200190815260200160002060405180610120016040529081600082015481526020016001820160009054906101000a900473ffffffffffffffffffffffffffffffffffffffff1673ffffffffffffffffffffffffffffffffffffffff1673ffffffffffffffffffffffffffffffffffffffff1681526020016002820180546112f790613b27565b80601f016020809104026020016040519081016040528092919081815260200182805461132390613b27565b80156113705780601f1061134557610100808354040283529160200191611370565b820191906000526020600020905b81548152906001019060200180831161135357829003601f168201915b5050505050815260200160038201805461138990613b27565b80601f01602080910402602001604051908101604052809291908181526020018280546113b590613b27565b80156114025780601f106113d757610100808354040283529160200191611402565b820191906000526020600020905b8154815290600101906020018083116113e557829003601f168201915b5050505050815260200160048201805461141b90613b27565b80601f016020809104026020016040519081016040528092919081815260200182805461144790613b27565b80156114945780601f1061146957610100808354040283529160200191611494565b820191906000526020600020905b81548152906001019060200180831161147757829003601f168201915b505050505081526020016005820180546114ad90613b27565b80601f01602080910402602001604051908101604052809291908181526020018280546114d990613b27565b80156115265780601f106114fb57610100808354040283529160200191611526565b820191906000526020600020905b81548152906001019060200180831161150957829003601f168201915b505050505081526020016006820160009054906101000a900460ff1615151515815260200160078201805461155a90613b27565b80601f016020809104026020016040519081016040528092919081815260200182805461158690613b27565b80156115d35780601f106115a8576101008083540402835291602001916115d3565b820191906000526020600020905b8154815290600101906020018083116115b657829003601f168201915b505050505081526020016008820180546115ec90613b27565b80601f016020809104026020016040519081016040528092919081815260200182805461161890613b27565b80156116655780601f1061163a57610100808354040283529160200191611665565b820191906000526020600020905b81548152906001019060200180831161164857829003601f168201915b50505050508152505083838151811061168157611680613e6c565b5b6020026020010181905250818061169790613eca565b9250505b80806116a690613eca565b915050611225565b5060008167ffffffffffffffff8111156116cb576116ca6132de565b5b60405190808252806020026020018201604052801561170457816020015b6116f1612bcb565b8152602001906001900390816116e95790505b50905060005b8281101561175e5783818151811061172557611724613e6c565b5b60200260200101518282815181106117405761173f613e6c565b5b6020026020010181905250808061175690613eca565b91505061170a565b508094505050505090565b6000600560008473ffffffffffffffffffffffffffffffffffffffff1673ffffffffffffffffffffffffffffffffffffffff16815260200190815260200160002060008373ffffffffffffffffffffffffffffffffffffffff1673ffffffffffffffffffffffffffffffffffffffff16815260200190815260200160002060009054906101000a900460ff16905092915050565b611805611f51565b600073ffffffffffffffffffffffffffffffffffffffff168173ffffffffffffffffffffffffffffffffffffffff1603611874576040517f08c379a000000000000000000000000000000000000000000000000000000000815260040161186b90613f84565b60405180910390fd5b61187d81611fcf565b50565b60008061188d6008611a6c565b90506118998482612201565b6118a3818761241e565b600b60008573ffffffffffffffffffffffffffffffffffffffff1673ffffffffffffffffffffffffffffffffffffffff1681526020019081526020016000208190806001815401808255809150506001900390600052602060002001600090919091909150556119148186886124c2565b61191e6008612658565b611929848483610871565b82600a600083815260200190815260200160002060010160006101000a81548173ffffffffffffffffffffffffffffffffffffffff021916908373ffffffffffffffffffffffffffffffffffffffff16021790555080915050949350505050565b60007f80ac58cd000000000000000000000000000000000000000000000000000000007bffffffffffffffffffffffffffffffffffffffffffffffffffffffff1916827bffffffffffffffffffffffffffffffffffffffffffffffffffffffff19161480611a5557507f5b5e139f000000000000000000000000000000000000000000000000000000007bffffffffffffffffffffffffffffffffffffffffffffffffffffffff1916827bffffffffffffffffffffffffffffffffffffffffffffffffffffffff1916145b80611a655750611a6482612749565b5b9050919050565b600081600001549050919050565b611a83816127b3565b611ac2576040517f08c379a0000000000000000000000000000000000000000000000000000000008152600401611ab990613dec565b60405180910390fd5b50565b600033905090565b816004600083815260200190815260200160002060006101000a81548173ffffffffffffffffffffffffffffffffffffffff021916908373ffffffffffffffffffffffffffffffffffffffff160217905550808273ffffffffffffffffffffffffffffffffffffffff16611b40836108fd565b73ffffffffffffffffffffffffffffffffffffffff167f8c5be1e5ebec7d5bd14f71427d1e84f3dd0314c0f7b2291e5b200ac8c7c3b92560405160405180910390a45050565b600080611b92836108fd565b90508073ffffffffffffffffffffffffffffffffffffffff168473ffffffffffffffffffffffffffffffffffffffff161480611bd45750611bd38185611769565b5b80611c1257508373ffffffffffffffffffffffffffffffffffffffff16611bfa846105ae565b73ffffffffffffffffffffffffffffffffffffffff16145b91505092915050565b8273ffffffffffffffffffffffffffffffffffffffff16611c3b826108fd565b73ffffffffffffffffffffffffffffffffffffffff1614611c91576040517f08c379a0000000000000000000000000000000000000000000000000000000008152600401611c8890614016565b60405180910390fd5b600073ffffffffffffffffffffffffffffffffffffffff168273ffffffffffffffffffffffffffffffffffffffff1603611d00576040517f08c379a0000000000000000000000000000000000000000000000000000000008152600401611cf7906140a8565b60405180910390fd5b611d0d83838360016127f4565b8273ffffffffffffffffffffffffffffffffffffffff16611d2d826108fd565b73ffffffffffffffffffffffffffffffffffffffff1614611d83576040517f08c379a0000000000000000000000000000000000000000000000000000000008152600401611d7a90614016565b60405180910390fd5b6004600082815260200190815260200160002060006101000a81549073ffffffffffffffffffffffffffffffffffffffff02191690556001600360008573ffffffffffffffffffffffffffffffffffffffff1673ffffffffffffffffffffffffffffffffffffffff168152602001908152602001600020600082825403925050819055506001600360008473ffffffffffffffffffffffffffffffffffffffff1673ffffffffffffffffffffffffffffffffffffffff16815260200190815260200160002060008282540192505081905550816002600083815260200190815260200160002060006101000a81548173ffffffffffffffffffffffffffffffffffffffff021916908373ffffffffffffffffffffffffffffffffffffffff160217905550808273ffffffffffffffffffffffffffffffffffffffff168473ffffffffffffffffffffffffffffffffffffffff167fddf252ad1be2c89b69c2b068fc378daa952ba7f163c4a11628f55a4df523b3ef60405160405180910390a4611f0f83838360016127fa565b505050565b60006002600083815260200190815260200160002060009054906101000a900473ffffffffffffffffffffffffffffffffffffffff169050919050565b611f59611ac5565b73ffffffffffffffffffffffffffffffffffffffff16611f77610e63565b73ffffffffffffffffffffffffffffffffffffffff1614611fcd576040517f08c379a0000000000000000000000000000000000000000000000000000000008152600401611fc490614114565b60405180910390fd5b565b6000600760009054906101000a900473ffffffffffffffffffffffffffffffffffffffff16905081600760006101000a81548173ffffffffffffffffffffffffffffffffffffffff021916908373ffffffffffffffffffffffffffffffffffffffff1602179055508173ffffffffffffffffffffffffffffffffffffffff168173ffffffffffffffffffffffffffffffffffffffff167f8be0079c531659141344cd1fd0a4f28419497f9722a3daafe3b4186f6b6457e060405160405180910390a35050565b8173ffffffffffffffffffffffffffffffffffffffff168373ffffffffffffffffffffffffffffffffffffffff1603612103576040517f08c379a00000000000000000000000000000000000000000000000000000000081526004016120fa90614180565b60405180910390fd5b80600560008573ffffffffffffffffffffffffffffffffffffffff1673ffffffffffffffffffffffffffffffffffffffff16815260200190815260200160002060008473ffffffffffffffffffffffffffffffffffffffff1673ffffffffffffffffffffffffffffffffffffffff16815260200190815260200160002060006101000a81548160ff0219169083151502179055508173ffffffffffffffffffffffffffffffffffffffff168373ffffffffffffffffffffffffffffffffffffffff167f17307eab39ab6107e8899845ad3d59bd9653f200f220920489ca2b5937696c31836040516121f49190612ce3565b60405180910390a3505050565b600073ffffffffffffffffffffffffffffffffffffffff168273ffffffffffffffffffffffffffffffffffffffff1603612270576040517f08c379a0000000000000000000000000000000000000000000000000000000008152600401612267906141ec565b60405180910390fd5b612279816127b3565b156122b9576040517f08c379a00000000000000000000000000000000000000000000000000000000081526004016122b090614258565b60405180910390fd5b6122c76000838360016127f4565b6122d0816127b3565b15612310576040517f08c379a000000000000000000000000000000000000000000000000000000000815260040161230790614258565b60405180910390fd5b6001600360008473ffffffffffffffffffffffffffffffffffffffff1673ffffffffffffffffffffffffffffffffffffffff16815260200190815260200160002060008282540192505081905550816002600083815260200190815260200160002060006101000a81548173ffffffffffffffffffffffffffffffffffffffff021916908373ffffffffffffffffffffffffffffffffffffffff160217905550808273ffffffffffffffffffffffffffffffffffffffff16600073ffffffffffffffffffffffffffffffffffffffff167fddf252ad1be2c89b69c2b068fc378daa952ba7f163c4a11628f55a4df523b3ef60405160405180910390a461241a6000838360016127fa565b5050565b612427826127b3565b612466576040517f08c379a000000000000000000000000000000000000000000000000000000000815260040161245d906142ea565b60405180910390fd5b8060066000848152602001908152602001600020908161248691906144b6565b507ff8e1a15aba9398e019f0b49df1a4fde98ee17ae345cb5f6b5e2c27f5033e8ce7826040516124b69190612d17565b60405180910390a15050565b81600a60008581526020019081526020016000206000820151816000015560208201518160010160006101000a81548173ffffffffffffffffffffffffffffffffffffffff021916908373ffffffffffffffffffffffffffffffffffffffff160217905550604082015181600201908161253c91906144b6565b50606082015181600301908161255291906144b6565b50608082015181600401908161256891906144b6565b5060a082015181600501908161257e91906144b6565b5060c08201518160060160006101000a81548160ff02191690831515021790555060e08201518160070190816125b491906144b6565b506101008201518160080190816125cb91906144b6565b5090505080600c600085815260200190815260200160002090816125ef91906144b6565b50827f94009785e13accce9aee6dcc034e8e35e3cc1f97e82830cba04004b920e515c4338460400151856060015186608001518760a001518860c001518960e001518a610100015160405161264b989796959493929190614597565b60405180910390a2505050565b6001816000016000828254019250508190555050565b612679848484611c1b565b61268584848484612800565b6126c4576040517f08c379a00000000000000000000000000000000000000000000000000000000081526004016126bb906146b1565b60405180910390fd5b50505050565b606060405180602001604052806000815250905090565b60606126ec82611a7a565b60006126f66126ca565b905060008151116127165760405180602001604052806000815250612741565b8061272084612987565b604051602001612731929190613e48565b6040516020818303038152906040525b915050919050565b60007f01ffc9a7000000000000000000000000000000000000000000000000000000007bffffffffffffffffffffffffffffffffffffffffffffffffffffffff1916827bffffffffffffffffffffffffffffffffffffffffffffffffffffffff1916149050919050565b60008073ffffffffffffffffffffffffffffffffffffffff166127d583611f14565b73ffffffffffffffffffffffffffffffffffffffff1614159050919050565b50505050565b50505050565b60006128218473ffffffffffffffffffffffffffffffffffffffff16612a55565b1561297a578373ffffffffffffffffffffffffffffffffffffffff1663150b7a0261284a611ac5565b8786866040518563ffffffff1660e01b815260040161286c9493929190614726565b6020604051808303816000875af19250505080156128a857506040513d601f19601f820116820180604052508101906128a59190614787565b60015b61292a573d80600081146128d8576040519150601f19603f3d011682016040523d82523d6000602084013e6128dd565b606091505b506000815103612922576040517f08c379a0000000000000000000000000000000000000000000000000000000008152600401612919906146b1565b60405180910390fd5b805181602001fd5b63150b7a0260e01b7bffffffffffffffffffffffffffffffffffffffffffffffffffffffff1916817bffffffffffffffffffffffffffffffffffffffffffffffffffffffff19161491505061297f565b600190505b949350505050565b60606000600161299684612a78565b01905060008167ffffffffffffffff8111156129b5576129b46132de565b5b6040519080825280601f01601f1916602001820160405280156129e75781602001600182028036833780820191505090505b509050600082602001820190505b600115612a4a578080600190039150507f3031323334353637383961626364656600000000000000000000000000000000600a86061a8153600a8581612a3e57612a3d6147b4565b5b049450600085036129f5575b819350505050919050565b6000808273ffffffffffffffffffffffffffffffffffffffff163b119050919050565b600080600090507a184f03e93ff9f4daa797ed6e38ed64bf6a1f0100000000000000008310612ad6577a184f03e93ff9f4daa797ed6e38ed64bf6a1f0100000000000000008381612acc57612acb6147b4565b5b0492506040810190505b6d04ee2d6d415b85acef81000000008310612b13576d04ee2d6d415b85acef81000000008381612b0957612b086147b4565b5b0492506020810190505b662386f26fc100008310612b4257662386f26fc100008381612b3857612b376147b4565b5b0492506010810190505b6305f5e1008310612b6b576305f5e1008381612b6157612b606147b4565b5b0492506008810190505b6127108310612b90576127108381612b8657612b856147b4565b5b0492506004810190505b60648310612bb35760648381612ba957612ba86147b4565b5b0492506002810190505b600a8310612bc2576001810190505b80915050919050565b60405180610120016040528060008152602001600073ffffffffffffffffffffffffffffffffffffffff1681526020016060815260200160608152602001606081526020016060815260200160001515815260200160608152602001606081525090565b6000604051905090565b600080fd5b600080fd5b60007fffffffff0000000000000000000000000000000000000000000000000000000082169050919050565b612c7881612c43565b8114612c8357600080fd5b50565b600081359050612c9581612c6f565b92915050565b600060208284031215612cb157612cb0612c39565b5b6000612cbf84828501612c86565b91505092915050565b60008115159050919050565b612cdd81612cc8565b82525050565b6000602082019050612cf86000830184612cd4565b92915050565b6000819050919050565b612d1181612cfe565b82525050565b6000602082019050612d2c6000830184612d08565b92915050565b600081519050919050565b600082825260208201905092915050565b60005b83811015612d6c578082015181840152602081019050612d51565b60008484015250505050565b6000601f19601f8301169050919050565b6000612d9482612d32565b612d9e8185612d3d565b9350612dae818560208601612d4e565b612db781612d78565b840191505092915050565b60006020820190508181036000830152612ddc8184612d89565b905092915050565b612ded81612cfe565b8114612df857600080fd5b50565b600081359050612e0a81612de4565b92915050565b600060208284031215612e2657612e25612c39565b5b6000612e3484828501612dfb565b91505092915050565b600073ffffffffffffffffffffffffffffffffffffffff82169050919050565b6000612e6882612e3d565b9050919050565b612e7881612e5d565b82525050565b6000602082019050612e936000830184612e6f565b92915050565b612ea281612e5d565b8114612ead57600080fd5b50565b600081359050612ebf81612e99565b92915050565b60008060408385031215612edc57612edb612c39565b5b6000612eea85828601612eb0565b9250506020612efb85828601612dfb565b9150509250929050565b600080600060608486031215612f1e57612f1d612c39565b5b6000612f2c86828701612eb0565b9350506020612f3d86828701612eb0565b9250506040612f4e86828701612dfb565b9150509250925092565b600060208284031215612f6e57612f6d612c39565b5b6000612f7c84828501612eb0565b91505092915050565b600081519050919050565b600082825260208201905092915050565b6000819050602082019050919050565b612fba81612cfe565b82525050565b6000612fcc8383612fb1565b60208301905092915050565b6000602082019050919050565b6000612ff082612f85565b612ffa8185612f90565b935061300583612fa1565b8060005b8381101561303657815161301d8882612fc0565b975061302883612fd8565b925050600181019050613009565b5085935050505092915050565b6000602082019050818103600083015261305d8184612fe5565b905092915050565b600061307082612e3d565b9050919050565b61308081613065565b811461308b57600080fd5b50565b60008135905061309d81613077565b92915050565b6000806000606084860312156130bc576130bb612c39565b5b60006130ca86828701612eb0565b93505060206130db8682870161308e565b92505060406130ec86828701612dfb565b9150509250925092565b6130ff81613065565b82525050565b600082825260208201905092915050565b600061312182612d32565b61312b8185613105565b935061313b818560208601612d4e565b61314481612d78565b840191505092915050565b61315881612cc8565b82525050565b6000610120830160008301516131776000860182612fb1565b50602083015161318a60208601826130f6565b50604083015184820360408601526131a28282613116565b915050606083015184820360608601526131bc8282613116565b915050608083015184820360808601526131d68282613116565b91505060a083015184820360a08601526131f08282613116565b91505060c083015161320560c086018261314f565b5060e083015184820360e086015261321d8282613116565b9150506101008301518482036101008601526132398282613116565b9150508091505092915050565b60006020820190508181036000830152613260818461315e565b905092915050565b61327181612cc8565b811461327c57600080fd5b50565b60008135905061328e81613268565b92915050565b600080604083850312156132ab576132aa612c39565b5b60006132b985828601612eb0565b92505060206132ca8582860161327f565b9150509250929050565b600080fd5b600080fd5b7f4e487b7100000000000000000000000000000000000000000000000000000000600052604160045260246000fd5b61331682612d78565b810181811067ffffffffffffffff82111715613335576133346132de565b5b80604052505050565b6000613348612c2f565b9050613354828261330d565b919050565b600067ffffffffffffffff821115613374576133736132de565b5b61337d82612d78565b9050602081019050919050565b82818337600083830152505050565b60006133ac6133a784613359565b61333e565b9050828152602081018484840111156133c8576133c76132d9565b5b6133d384828561338a565b509392505050565b600082601f8301126133f0576133ef6132d4565b5b8135613400848260208601613399565b91505092915050565b60008060008060008060008060006101208a8c03121561342c5761342b612c39565b5b60008a013567ffffffffffffffff81111561344a57613449612c3e565b5b6134568c828d016133db565b99505060208a013567ffffffffffffffff81111561347757613476612c3e565b5b6134838c828d016133db565b98505060408a013567ffffffffffffffff8111156134a4576134a3612c3e565b5b6134b08c828d016133db565b97505060608a013567ffffffffffffffff8111156134d1576134d0612c3e565b5b6134dd8c828d016133db565b96505060806134ee8c828d0161327f565b95505060a08a013567ffffffffffffffff81111561350f5761350e612c3e565b5b61351b8c828d016133db565b94505060c08a013567ffffffffffffffff81111561353c5761353b612c3e565b5b6135488c828d016133db565b93505060e08a013567ffffffffffffffff81111561356957613568612c3e565b5b6135758c828d016133db565b9250506101006135878c828d0161308e565b9150509295985092959850929598565b600067ffffffffffffffff8211156135b2576135b16132de565b5b6135bb82612d78565b9050602081019050919050565b60006135db6135d684613597565b61333e565b9050828152602081018484840111156135f7576135f66132d9565b5b61360284828561338a565b509392505050565b600082601f83011261361f5761361e6132d4565b5b813561362f8482602086016135c8565b91505092915050565b6000806000806080858703121561365257613651612c39565b5b600061366087828801612eb0565b945050602061367187828801612eb0565b935050604061368287828801612dfb565b925050606085013567ffffffffffffffff8111156136a3576136a2612c3e565b5b6136af8782880161360a565b91505092959194509250565b600081519050919050565b600082825260208201905092915050565b6000819050602082019050919050565b6000610120830160008301516137006000860182612fb1565b50602083015161371360208601826130f6565b506040830151848203604086015261372b8282613116565b915050606083015184820360608601526137458282613116565b9150506080830151848203608086015261375f8282613116565b91505060a083015184820360a08601526137798282613116565b91505060c083015161378e60c086018261314f565b5060e083015184820360e08601526137a68282613116565b9150506101008301518482036101008601526137c28282613116565b9150508091505092915050565b60006137db83836136e7565b905092915050565b6000602082019050919050565b60006137fb826136bb565b61380581856136c6565b935083602082028501613817856136d7565b8060005b85811015613853578484038952815161383485826137cf565b945061383f836137e3565b925060208a0199505060018101905061381b565b50829750879550505050505092915050565b6000602082019050818103600083015261387f81846137f0565b905092915050565b6000806040838503121561389e5761389d612c39565b5b60006138ac85828601612eb0565b92505060206138bd85828601612eb0565b9150509250929050565b600080fd5b600080fd5b600061012082840312156138e8576138e76138c7565b5b6138f361012061333e565b9050600061390384828501612dfb565b60008301525060206139178482850161308e565b602083015250604082013567ffffffffffffffff81111561393b5761393a6138cc565b5b613947848285016133db565b604083015250606082013567ffffffffffffffff81111561396b5761396a6138cc565b5b613977848285016133db565b606083015250608082013567ffffffffffffffff81111561399b5761399a6138cc565b5b6139a7848285016133db565b60808301525060a082013567ffffffffffffffff8111156139cb576139ca6138cc565b5b6139d7848285016133db565b60a08301525060c06139eb8482850161327f565b60c08301525060e082013567ffffffffffffffff811115613a0f57613a0e6138cc565b5b613a1b848285016133db565b60e08301525061010082013567ffffffffffffffff811115613a4057613a3f6138cc565b5b613a4c848285016133db565b6101008301525092915050565b60008060008060808587031215613a7357613a72612c39565b5b600085013567ffffffffffffffff811115613a9157613a90612c3e565b5b613a9d878288016133db565b945050602085013567ffffffffffffffff811115613abe57613abd612c3e565b5b613aca878288016138d1565b9350506040613adb87828801612eb0565b9250506060613aec8782880161308e565b91505092959194509250565b7f4e487b7100000000000000000000000000000000000000000000000000000000600052602260045260246000fd5b60006002820490506001821680613b3f57607f821691505b602082108103613b5257613b51613af8565b5b50919050565b7f4552433732313a20617070726f76616c20746f2063757272656e74206f776e6560008201527f7200000000000000000000000000000000000000000000000000000000000000602082015250565b6000613bb4602183612d3d565b9150613bbf82613b58565b604082019050919050565b60006020820190508181036000830152613be381613ba7565b9050919050565b7f4552433732313a20617070726f76652063616c6c6572206973206e6f7420746f60008201527f6b656e206f776e6572206f7220617070726f76656420666f7220616c6c000000602082015250565b6000613c46603d83612d3d565b9150613c5182613bea565b604082019050919050565b60006020820190508181036000830152613c7581613c39565b9050919050565b7f4552433732313a2063616c6c6572206973206e6f7420746f6b656e206f776e6560008201527f72206f7220617070726f76656400000000000000000000000000000000000000602082015250565b6000613cd8602d83612d3d565b9150613ce382613c7c565b604082019050919050565b60006020820190508181036000830152613d0781613ccb565b9050919050565b7f4552433732313a2061646472657373207a65726f206973206e6f74206120766160008201527f6c6964206f776e65720000000000000000000000000000000000000000000000602082015250565b6000613d6a602983612d3d565b9150613d7582613d0e565b604082019050919050565b60006020820190508181036000830152613d9981613d5d565b9050919050565b7f4552433732313a20696e76616c696420746f6b656e2049440000000000000000600082015250565b6000613dd6601883612d3d565b9150613de182613da0565b602082019050919050565b60006020820190508181036000830152613e0581613dc9565b9050919050565b600081905092915050565b6000613e2282612d32565b613e2c8185613e0c565b9350613e3c818560208601612d4e565b80840191505092915050565b6000613e548285613e17565b9150613e608284613e17565b91508190509392505050565b7f4e487b7100000000000000000000000000000000000000000000000000000000600052603260045260246000fd5b7f4e487b7100000000000000000000000000000000000000000000000000000000600052601160045260246000fd5b6000613ed582612cfe565b91507fffffffffffffffffffffffffffffffffffffffffffffffffffffffffffffffff8203613f0757613f06613e9b565b5b600182019050919050565b7f4f776e61626c653a206e6577206f776e657220697320746865207a65726f206160008201527f6464726573730000000000000000000000000000000000000000000000000000602082015250565b6000613f6e602683612d3d565b9150613f7982613f12565b604082019050919050565b60006020820190508181036000830152613f9d81613f61565b9050919050565b7f4552433732313a207472616e736665722066726f6d20696e636f72726563742060008201527f6f776e6572000000000000000000000000000000000000000000000000000000602082015250565b6000614000602583612d3d565b915061400b82613fa4565b604082019050919050565b6000602082019050818103600083015261402f81613ff3565b9050919050565b7f4552433732313a207472616e7366657220746f20746865207a65726f2061646460008201527f7265737300000000000000000000000000000000000000000000000000000000602082015250565b6000614092602483612d3d565b915061409d82614036565b604082019050919050565b600060208201905081810360008301526140c181614085565b9050919050565b7f4f776e61626c653a2063616c6c6572206973206e6f7420746865206f776e6572600082015250565b60006140fe602083612d3d565b9150614109826140c8565b602082019050919050565b6000602082019050818103600083015261412d816140f1565b9050919050565b7f4552433732313a20617070726f766520746f2063616c6c657200000000000000600082015250565b600061416a601983612d3d565b915061417582614134565b602082019050919050565b600060208201905081810360008301526141998161415d565b9050919050565b7f4552433732313a206d696e7420746f20746865207a65726f2061646472657373600082015250565b60006141d6602083612d3d565b91506141e1826141a0565b602082019050919050565b60006020820190508181036000830152614205816141c9565b9050919050565b7f4552433732313a20746f6b656e20616c7265616479206d696e74656400000000600082015250565b6000614242601c83612d3d565b915061424d8261420c565b602082019050919050565b6000602082019050818103600083015261427181614235565b9050919050565b7f45524337323155524953746f726167653a2055524920736574206f66206e6f6e60008201527f6578697374656e7420746f6b656e000000000000000000000000000000000000602082015250565b60006142d4602e83612d3d565b91506142df82614278565b604082019050919050565b60006020820190508181036000830152614303816142c7565b9050919050565b60008190508160005260206000209050919050565b60006020601f8301049050919050565b600082821b905092915050565b60006008830261436c7fffffffffffffffffffffffffffffffffffffffffffffffffffffffffffffffff8261432f565b614376868361432f565b95508019841693508086168417925050509392505050565b6000819050919050565b60006143b36143ae6143a984612cfe565b61438e565b612cfe565b9050919050565b6000819050919050565b6143cd83614398565b6143e16143d9826143ba565b84845461433c565b825550505050565b600090565b6143f66143e9565b6144018184846143c4565b505050565b5b818110156144255761441a6000826143ee565b600181019050614407565b5050565b601f82111561446a5761443b8161430a565b6144448461431f565b81016020851015614453578190505b61446761445f8561431f565b830182614406565b50505b505050565b600082821c905092915050565b600061448d6000198460080261446f565b1980831691505092915050565b60006144a6838361447c565b9150826002028217905092915050565b6144bf82612d32565b67ffffffffffffffff8111156144d8576144d76132de565b5b6144e28254613b27565b6144ed828285614429565b600060209050601f831160018114614520576000841561450e578287015190505b614518858261449a565b865550614580565b601f19841661452e8661430a565b60005b8281101561455657848901518255600182019150602085019450602081019050614531565b86831015614573578489015161456f601f89168261447c565b8355505b6001600288020188555050505b505050505050565b61459181613065565b82525050565b6000610100820190506145ad600083018b614588565b81810360208301526145bf818a612d89565b905081810360408301526145d38189612d89565b905081810360608301526145e78188612d89565b905081810360808301526145fb8187612d89565b905061460a60a0830186612cd4565b81810360c083015261461c8185612d89565b905081810360e08301526146308184612d89565b90509998505050505050505050565b7f4552433732313a207472616e7366657220746f206e6f6e20455243373231526560008201527f63656976657220696d706c656d656e7465720000000000000000000000000000602082015250565b600061469b603283612d3d565b91506146a68261463f565b604082019050919050565b600060208201905081810360008301526146ca8161468e565b9050919050565b600081519050919050565b600082825260208201905092915050565b60006146f8826146d1565b61470281856146dc565b9350614712818560208601612d4e565b61471b81612d78565b840191505092915050565b600060808201905061473b6000830187612e6f565b6147486020830186612e6f565b6147556040830185612d08565b818103606083015261476781846146ed565b905095945050505050565b60008151905061478181612c6f565b92915050565b60006020828403121561479d5761479c612c39565b5b60006147ab84828501614772565b91505092915050565b7f4e487b7100000000000000000000000000000000000000000000000000000000600052601260045260246000fdfea26469706673582212200f8006e9604d2bdc65fe555e78203de5146f72252a58462634572079c6a1b2d664736f6c63430008130033",
  "immutableReferences": {},
  "source": "// contracts/MyNFT.sol\r\n// SPDX-License-Identifier: MIT\r\npragma solidity ^0.8.0;\r\n\r\nimport \"@openzeppelin/contracts/token/ERC721/ERC721.sol\";\r\nimport \"@openzeppelin/contracts/utils/Counters.sol\";\r\nimport \"@openzeppelin/contracts/access/Ownable.sol\";\r\nimport \"@openzeppelin/contracts/token/ERC721/extensions/ERC721URIStorage.sol\";\r\n\r\ncontract HappyMaru is ERC721URIStorage, Ownable {\r\n    using Counters for Counters.Counter;\r\n    Counters.Counter private tokenIds;\r\n    Counters.Counter private userIds;\r\n\r\n    struct dogInfo {\r\n        uint256 tokenId;\r\n        address payable owner;\r\n        // \r\n        string name;\r\n        // \r\n        string breed;\r\n        // \r\n        string birthDate;\r\n        //  \r\n        string gender;\r\n        //  \r\n        bool neutraled;\r\n        // \r\n        string description;\r\n        // \r\n        string image;\r\n    }\r\n\r\n    mapping(uint256 => dogInfo) private nfts;\r\n    mapping(address => uint256[]) private dogOwners;\r\n    mapping(uint256 => string) private tokenURIs;\r\n\r\n    event DogInfoCreated(\r\n        uint256 indexed tokenId,\r\n        address payable owner,\r\n        string name,\r\n        string breed,\r\n        string birthDate,\r\n        string gender,\r\n        bool neutraled,\r\n        string description,\r\n        string image\r\n    );\r\n\r\n    constructor() ERC721(\"Happy Maru\", \"HappyMaru's dog INFO \") {\r\n        tokenIds.increment();\r\n        userIds.increment();\r\n    }\r\n\r\n    function setNft(\r\n        uint256 _tokenId,\r\n        dogInfo memory _info,\r\n        string memory tokenURI\r\n    ) private {\r\n        nfts[_tokenId] = _info;\r\n        tokenURIs[_tokenId] = tokenURI;\r\n        emit DogInfoCreated(\r\n            _tokenId,\r\n            payable(msg.sender),\r\n            _info.name,\r\n            _info.breed,\r\n            _info.birthDate,\r\n            _info.gender,\r\n            _info.neutraled,\r\n            _info.description,\r\n            _info.image\r\n        );\r\n    }\r\n\r\n    /// @dev this function mints received NFTs\r\n    /// @param _name name\r\n    /// @param _breed breed\r\n    /// @param _birthDate birthDate\r\n    /// @param _gender gender\r\n    /// @param _neutraled neutraled\r\n    /// @param _description description\r\n    /// @param _image image Url\r\n    /// @param _tokenURI image Url\r\n    /// @return newTokenId of the created NFT\r\n    function createDogInfo(\r\n        string memory _name,\r\n        string memory _breed,\r\n        string memory _birthDate,\r\n        string memory _gender,\r\n        bool _neutraled,\r\n        string memory _description,\r\n        string memory _image,\r\n        string memory _tokenURI,\r\n        address payable _address\r\n    ) public returns (uint256) {\r\n        uint256 newTokenId = tokenIds.current();\r\n        _mint(_address, newTokenId);\r\n\r\n        _setTokenURI(newTokenId, _tokenURI);\r\n        dogOwners[_address].push(newTokenId);\r\n        dogInfo memory _info = dogInfo(newTokenId, payable(_address), _name, _breed, _birthDate, _gender, _neutraled, _description, _image);\r\n        setNft(\r\n            newTokenId, _info, _tokenURI\r\n        );\r\n        tokenIds.increment();\r\n        return newTokenId;\r\n    }\r\n\r\n\r\n    /// @dev fetches NFT that a specific user has created\r\n    /// @return nftStruct[] list of nfts created by a user with their metadata\r\n    function getNfts() public view returns (dogInfo[] memory) {\r\n        uint256 nftCount = tokenIds.current();\r\n        dogInfo[] memory myNfts = new dogInfo[](nftCount);\r\n        uint256 j = 0;\r\n        for (uint256 i = 1; i < nftCount; i++) {\r\n            if (ownerOf(i) == msg.sender) {\r\n                myNfts[j] = nfts[i];\r\n                j++;\r\n            }\r\n        }\r\n        dogInfo[] memory returnMyNFts = new dogInfo[](j);\r\n        for (uint256 i = 0; i < j; i++) {\r\n            returnMyNFts[i] = myNfts[i];\r\n        }\r\n        return returnMyNFts;\r\n    }\r\n\r\n    /// @dev fetches details of a particular\r\n    /// @param _tokenId The token ID\r\n    /// @return nftStruct NFT data of the specific token ID\r\n    function getIndividualNFT(\r\n        uint256 _tokenId\r\n    ) public view returns (dogInfo memory) {\r\n        return nfts[_tokenId];\r\n    }\r\n\r\n    function getNftsByAddress(address owner) public view returns (uint256[] memory) {\r\n        require(owner != address(0), \"ERC721: address zero is not a valid owner\");\r\n        return dogOwners[owner];\r\n    }\r\n\r\n    function sendNft(address from, address payable to, uint256 tokenId) public returns (uint256) {\r\n        safeTransferFrom(from, to, tokenId);\r\n        // owner  \r\n        nfts[tokenId].owner = to;\r\n        return tokenId;\r\n    }\r\n\r\n    function getNftsCount() public view returns (uint256) {\r\n        return tokenIds.current();\r\n    }\r\n\r\n    /// @dev this function mints received NFTs\r\n    /// @param _tokenURI the new token URI\r\n    /// @param _info dogInfo\r\n    /// @return newTokenId\r\n    function createAndSendNft(\r\n        string memory _tokenURI,\r\n        dogInfo memory _info,\r\n        address from, address payable to\r\n    ) public returns (uint256) {\r\n        uint256 newTokenId = tokenIds.current();\r\n        _mint(from, newTokenId);\r\n        _setTokenURI(newTokenId, _tokenURI);\r\n        dogOwners[from].push(newTokenId);\r\n        setNft(\r\n            newTokenId, _info, _tokenURI\r\n        );\r\n        tokenIds.increment();\r\n\r\n        safeTransferFrom(from, to, newTokenId);\r\n        nfts[newTokenId].owner = to;\r\n        return newTokenId;\r\n    }\r\n}\r\n",
  "sourcePath": "C:\\Projects\\puppy-life-contract\\contracts\\HappyMaru.sol",
  "compiler": {
    "name": "solc",
    "version": "0.8.19+commit.7dd6d404.Emscripten.clang"
  },
  "schemaVersion": "3.4.16",
  "updatedAt": "2024-08-24T10:37:01.785Z",
  "networkType": "ethereum",
  "devdoc": {
    "events": {
      "Approval(address,address,uint256)": {
        "details": "Emitted when `owner` enables `approved` to manage the `tokenId` token."
      },
      "ApprovalForAll(address,address,bool)": {
        "details": "Emitted when `owner` enables or disables (`approved`) `operator` to manage all of its assets."
      },
      "BatchMetadataUpdate(uint256,uint256)": {
        "details": "This event emits when the metadata of a range of tokens is changed. So that the third-party platforms such as NFT market could timely update the images and related attributes of the NFTs."
      },
      "MetadataUpdate(uint256)": {
        "details": "This event emits when the metadata of a token is changed. So that the third-party platforms such as NFT market could timely update the images and related attributes of the NFT."
      },
      "Transfer(address,address,uint256)": {
        "details": "Emitted when `tokenId` token is transferred from `from` to `to`."
      }
    },
    "kind": "dev",
    "methods": {
      "approve(address,uint256)": {
        "details": "See {IERC721-approve}."
      },
      "balanceOf(address)": {
        "details": "See {IERC721-balanceOf}."
      },
      "createAndSendNft(string,(uint256,address,string,string,string,string,bool,string,string),address,address)": {
        "details": "this function mints received NFTs",
        "params": {
          "_info": "dogInfo",
          "_tokenURI": "the new token URI"
        },
        "returns": {
          "_0": "newTokenId"
        }
      },
      "createDogInfo(string,string,string,string,bool,string,string,string,address)": {
        "details": "this function mints received NFTs",
        "params": {
          "_birthDate": "birthDate",
          "_breed": "breed",
          "_description": "description",
          "_gender": "gender",
          "_image": "image Url",
          "_name": "name",
          "_neutraled": "neutraled",
          "_tokenURI": "image Url"
        },
        "returns": {
          "_0": "newTokenId of the created NFT"
        }
      },
      "getApproved(uint256)": {
        "details": "See {IERC721-getApproved}."
      },
      "getIndividualNFT(uint256)": {
        "details": "fetches details of a particular",
        "params": {
          "_tokenId": "The token ID"
        },
        "returns": {
          "_0": "nftStruct NFT data of the specific token ID"
        }
      },
      "getNfts()": {
        "details": "fetches NFT that a specific user has created",
        "returns": {
          "_0": "nftStruct[] list of nfts created by a user with their metadata"
        }
      },
      "isApprovedForAll(address,address)": {
        "details": "See {IERC721-isApprovedForAll}."
      },
      "name()": {
        "details": "See {IERC721Metadata-name}."
      },
      "owner()": {
        "details": "Returns the address of the current owner."
      },
      "ownerOf(uint256)": {
        "details": "See {IERC721-ownerOf}."
      },
      "renounceOwnership()": {
        "details": "Leaves the contract without owner. It will not be possible to call `onlyOwner` functions. Can only be called by the current owner. NOTE: Renouncing ownership will leave the contract without an owner, thereby disabling any functionality that is only available to the owner."
      },
      "safeTransferFrom(address,address,uint256)": {
        "details": "See {IERC721-safeTransferFrom}."
      },
      "safeTransferFrom(address,address,uint256,bytes)": {
        "details": "See {IERC721-safeTransferFrom}."
      },
      "setApprovalForAll(address,bool)": {
        "details": "See {IERC721-setApprovalForAll}."
      },
      "supportsInterface(bytes4)": {
        "details": "See {IERC165-supportsInterface}"
      },
      "symbol()": {
        "details": "See {IERC721Metadata-symbol}."
      },
      "tokenURI(uint256)": {
        "details": "See {IERC721Metadata-tokenURI}."
      },
      "transferFrom(address,address,uint256)": {
        "details": "See {IERC721-transferFrom}."
      },
      "transferOwnership(address)": {
        "details": "Transfers ownership of the contract to a new account (`newOwner`). Can only be called by the current owner."
      }
    },
    "version": 1
  },
  "userdoc": {
    "kind": "user",
    "methods": {},
    "version": 1
  }
}